{
	"contracts/test/Demo.sol": {
		"Demo": {
			"abi": [
				{
					"inputs": [
						{
							"internalType": "string",
							"name": "name_",
							"type": "string"
						}
					],
					"name": "create",
					"outputs": [
						{
							"internalType": "uint256",
							"name": "",
							"type": "uint256"
						}
					],
					"stateMutability": "nonpayable",
					"type": "function"
				},
				{
					"inputs": [
						{
							"internalType": "uint256",
							"name": "index",
							"type": "uint256"
						}
					],
					"name": "get",
					"outputs": [
						{
							"internalType": "string",
							"name": "name",
							"type": "string"
						},
						{
							"internalType": "bool",
							"name": "status",
							"type": "bool"
						}
					],
					"stateMutability": "view",
					"type": "function"
				},
				{
					"inputs": [
						{
							"internalType": "uint256",
							"name": "index",
							"type": "uint256"
						}
					],
					"name": "getTwo",
					"outputs": [
						{
							"internalType": "string",
							"name": "name",
							"type": "string"
						},
						{
							"internalType": "bool",
							"name": "status",
							"type": "bool"
						}
					],
					"stateMutability": "view",
					"type": "function"
				},
				{
					"inputs": [
						{
							"internalType": "uint256",
							"name": "",
							"type": "uint256"
						}
					],
					"name": "list",
					"outputs": [
						{
							"internalType": "string",
							"name": "name",
							"type": "string"
						},
						{
							"internalType": "bool",
							"name": "isCompleted",
							"type": "bool"
						}
					],
					"stateMutability": "view",
					"type": "function"
				},
				{
					"inputs": [
						{
							"internalType": "uint256",
							"name": "index",
							"type": "uint256"
						},
						{
							"internalType": "string",
							"name": "name",
							"type": "string"
						}
					],
					"name": "updateName",
					"outputs": [],
					"stateMutability": "nonpayable",
					"type": "function"
				},
				{
					"inputs": [
						{
							"internalType": "uint256",
							"name": "index",
							"type": "uint256"
						},
						{
							"internalType": "string",
							"name": "name",
							"type": "string"
						}
					],
					"name": "updateNameTwo",
					"outputs": [],
					"stateMutability": "nonpayable",
					"type": "function"
				},
				{
					"inputs": [
						{
							"internalType": "uint256",
							"name": "index",
							"type": "uint256"
						},
						{
							"internalType": "bool",
							"name": "status",
							"type": "bool"
						}
					],
					"name": "updateStatus",
					"outputs": [],
					"stateMutability": "nonpayable",
					"type": "function"
				},
				{
					"inputs": [
						{
							"internalType": "uint256",
							"name": "index",
							"type": "uint256"
						}
					],
					"name": "updateStatusTwo",
					"outputs": [],
					"stateMutability": "nonpayable",
					"type": "function"
				}
			],
			"devdoc": {
				"kind": "dev",
				"methods": {},
				"version": 1
			},
			"evm": {
				"assembly": "    /* \"contracts/test/Demo.sol\":59:1472  contract Demo {... */\n  mstore(0x40, 0x80)\n  callvalue\n  dup1\n  iszero\n  tag_1\n  jumpi\n  0x00\n  dup1\n  revert\ntag_1:\n  pop\n  dataSize(sub_0)\n  dup1\n  dataOffset(sub_0)\n  0x00\n  codecopy\n  0x00\n  return\nstop\n\nsub_0: assembly {\n        /* \"contracts/test/Demo.sol\":59:1472  contract Demo {... */\n      mstore(0x40, 0x80)\n      callvalue\n      dup1\n      iszero\n      tag_1\n      jumpi\n      0x00\n      dup1\n      revert\n    tag_1:\n      pop\n      jumpi(tag_2, lt(calldatasize, 0x04))\n      shr(0xe0, calldataload(0x00))\n      dup1\n      0x80c9419e\n      gt\n      tag_11\n      jumpi\n      dup1\n      0x80c9419e\n      eq\n      tag_7\n      jumpi\n      dup1\n      0x84fe49ad\n      eq\n      tag_8\n      jumpi\n      dup1\n      0x9507d39a\n      eq\n      tag_9\n      jumpi\n      dup1\n      0xb6a46b3b\n      eq\n      tag_10\n      jumpi\n      jump(tag_2)\n    tag_11:\n      dup1\n      0x387008c2\n      eq\n      tag_3\n      jumpi\n      dup1\n      0x3ea2ea7a\n      eq\n      tag_4\n      jumpi\n      dup1\n      0x53e76f2c\n      eq\n      tag_5\n      jumpi\n      dup1\n      0x5de79c8e\n      eq\n      tag_6\n      jumpi\n    tag_2:\n      0x00\n      dup1\n      revert\n        /* \"contracts/test/Demo.sol\":764:871  function updateStatus(uint256 index,bool status)external  {... */\n    tag_3:\n      tag_12\n      0x04\n      dup1\n      calldatasize\n      sub\n      dup2\n      add\n      swap1\n      tag_13\n      swap2\n      swap1\n      tag_14\n      jump\t// in\n    tag_13:\n      tag_15\n      jump\t// in\n    tag_12:\n      stop\n        /* \"contracts/test/Demo.sol\":878:1021  function updateStatusTwo(uint256 index)external  {... */\n    tag_4:\n      tag_16\n      0x04\n      dup1\n      calldatasize\n      sub\n      dup2\n      add\n      swap1\n      tag_17\n      swap2\n      swap1\n      tag_18\n      jump\t// in\n    tag_17:\n      tag_19\n      jump\t// in\n    tag_16:\n      stop\n        /* \"contracts/test/Demo.sol\":467:571  function updateName(uint256 index,string memory name) external  {... */\n    tag_5:\n      tag_20\n      0x04\n      dup1\n      calldatasize\n      sub\n      dup2\n      add\n      swap1\n      tag_21\n      swap2\n      swap1\n      tag_22\n      jump\t// in\n    tag_21:\n      tag_23\n      jump\t// in\n    tag_20:\n      stop\n        /* \"contracts/test/Demo.sol\":617:758  function updateNameTwo(uint256 index,string memory name) external  {... */\n    tag_6:\n      tag_24\n      0x04\n      dup1\n      calldatasize\n      sub\n      dup2\n      add\n      swap1\n      tag_25\n      swap2\n      swap1\n      tag_22\n      jump\t// in\n    tag_25:\n      tag_26\n      jump\t// in\n    tag_24:\n      stop\n        /* \"contracts/test/Demo.sol\":151:169  Todo[] public list */\n    tag_7:\n      tag_27\n      0x04\n      dup1\n      calldatasize\n      sub\n      dup2\n      add\n      swap1\n      tag_28\n      swap2\n      swap1\n      tag_18\n      jump\t// in\n    tag_28:\n      tag_29\n      jump\t// in\n    tag_27:\n      mload(0x40)\n      tag_30\n      swap3\n      swap2\n      swap1\n      tag_31\n      jump\t// in\n    tag_30:\n      mload(0x40)\n      dup1\n      swap2\n      sub\n      swap1\n      return\n        /* \"contracts/test/Demo.sol\":1291:1468  function getTwo(uint256 index) external view returns(string memory name,bool status){... */\n    tag_8:\n      tag_32\n      0x04\n      dup1\n      calldatasize\n      sub\n      dup2\n      add\n      swap1\n      tag_33\n      swap2\n      swap1\n      tag_18\n      jump\t// in\n    tag_33:\n      tag_34\n      jump\t// in\n    tag_32:\n      mload(0x40)\n      tag_35\n      swap3\n      swap2\n      swap1\n      tag_31\n      jump\t// in\n    tag_35:\n      mload(0x40)\n      dup1\n      swap2\n      sub\n      swap1\n      return\n        /* \"contracts/test/Demo.sol\":1068:1241  function get(uint256 index) external view returns(string memory name,bool status){... */\n    tag_9:\n      tag_36\n      0x04\n      dup1\n      calldatasize\n      sub\n      dup2\n      add\n      swap1\n      tag_37\n      swap2\n      swap1\n      tag_18\n      jump\t// in\n    tag_37:\n      tag_38\n      jump\t// in\n    tag_36:\n      mload(0x40)\n      tag_39\n      swap3\n      swap2\n      swap1\n      tag_31\n      jump\t// in\n    tag_39:\n      mload(0x40)\n      dup1\n      swap2\n      sub\n      swap1\n      return\n        /* \"contracts/test/Demo.sol\":196:422  function create(string memory name_) external returns(uint256) {... */\n    tag_10:\n      tag_40\n      0x04\n      dup1\n      calldatasize\n      sub\n      dup2\n      add\n      swap1\n      tag_41\n      swap2\n      swap1\n      tag_42\n      jump\t// in\n    tag_41:\n      tag_43\n      jump\t// in\n    tag_40:\n      mload(0x40)\n      tag_44\n      swap2\n      swap1\n      tag_45\n      jump\t// in\n    tag_44:\n      mload(0x40)\n      dup1\n      swap2\n      sub\n      swap1\n      return\n        /* \"contracts/test/Demo.sol\":764:871  function updateStatus(uint256 index,bool status)external  {... */\n    tag_15:\n        /* \"contracts/test/Demo.sol\":858:864  status */\n      dup1\n        /* \"contracts/test/Demo.sol\":832:836  list */\n      0x00\n        /* \"contracts/test/Demo.sol\":837:842  index */\n      dup4\n        /* \"contracts/test/Demo.sol\":832:843  list[index] */\n      dup2\n      sload\n      dup2\n      lt\n      tag_47\n      jumpi\n      tag_48\n      tag_49\n      jump\t// in\n    tag_48:\n    tag_47:\n      swap1\n      0x00\n      mstore\n      keccak256(0x00, 0x20)\n      swap1\n      0x02\n      mul\n      add\n        /* \"contracts/test/Demo.sol\":832:855  list[index].isCompleted */\n      0x01\n      add\n      0x00\n        /* \"contracts/test/Demo.sol\":832:864  list[index].isCompleted = status */\n      0x0100\n      exp\n      dup2\n      sload\n      dup2\n      0xff\n      mul\n      not\n      and\n      swap1\n      dup4\n      iszero\n      iszero\n      mul\n      or\n      swap1\n      sstore\n      pop\n        /* \"contracts/test/Demo.sol\":764:871  function updateStatus(uint256 index,bool status)external  {... */\n      pop\n      pop\n      jump\t// out\n        /* \"contracts/test/Demo.sol\":878:1021  function updateStatusTwo(uint256 index)external  {... */\n    tag_19:\n        /* \"contracts/test/Demo.sol\":937:954  Todo storage todo */\n      0x00\n        /* \"contracts/test/Demo.sol\":957:961  list */\n      dup1\n        /* \"contracts/test/Demo.sol\":962:967  index */\n      dup3\n        /* \"contracts/test/Demo.sol\":957:968  list[index] */\n      dup2\n      sload\n      dup2\n      lt\n      tag_52\n      jumpi\n      tag_53\n      tag_49\n      jump\t// in\n    tag_53:\n    tag_52:\n      swap1\n      0x00\n      mstore\n      keccak256(0x00, 0x20)\n      swap1\n      0x02\n      mul\n      add\n        /* \"contracts/test/Demo.sol\":937:968  Todo storage todo = list[index] */\n      swap1\n      pop\n        /* \"contracts/test/Demo.sol\":998:1002  todo */\n      dup1\n        /* \"contracts/test/Demo.sol\":998:1014  todo.isCompleted */\n      0x01\n      add\n      0x00\n      swap1\n      sload\n      swap1\n      0x0100\n      exp\n      swap1\n      div\n      0xff\n      and\n        /* \"contracts/test/Demo.sol\":997:1014  !todo.isCompleted */\n      iszero\n        /* \"contracts/test/Demo.sol\":978:982  todo */\n      dup2\n        /* \"contracts/test/Demo.sol\":978:994  todo.isCompleted */\n      0x01\n      add\n      0x00\n        /* \"contracts/test/Demo.sol\":978:1014  todo.isCompleted = !todo.isCompleted */\n      0x0100\n      exp\n      dup2\n      sload\n      dup2\n      0xff\n      mul\n      not\n      and\n      swap1\n      dup4\n      iszero\n      iszero\n      mul\n      or\n      swap1\n      sstore\n      pop\n        /* \"contracts/test/Demo.sol\":927:1021  {... */\n      pop\n        /* \"contracts/test/Demo.sol\":878:1021  function updateStatusTwo(uint256 index)external  {... */\n      pop\n      jump\t// out\n        /* \"contracts/test/Demo.sol\":467:571  function updateName(uint256 index,string memory name) external  {... */\n    tag_23:\n        /* \"contracts/test/Demo.sol\":560:564  name */\n      dup1\n        /* \"contracts/test/Demo.sol\":541:545  list */\n      0x00\n        /* \"contracts/test/Demo.sol\":546:551  index */\n      dup4\n        /* \"contracts/test/Demo.sol\":541:552  list[index] */\n      dup2\n      sload\n      dup2\n      lt\n      tag_56\n      jumpi\n      tag_57\n      tag_49\n      jump\t// in\n    tag_57:\n    tag_56:\n      swap1\n      0x00\n      mstore\n      keccak256(0x00, 0x20)\n      swap1\n      0x02\n      mul\n      add\n        /* \"contracts/test/Demo.sol\":541:557  list[index].name */\n      0x00\n      add\n        /* \"contracts/test/Demo.sol\":541:564  list[index].name = name */\n      swap1\n      dup2\n      tag_59\n      swap2\n      swap1\n      tag_60\n      jump\t// in\n    tag_59:\n      pop\n        /* \"contracts/test/Demo.sol\":467:571  function updateName(uint256 index,string memory name) external  {... */\n      pop\n      pop\n      jump\t// out\n        /* \"contracts/test/Demo.sol\":617:758  function updateNameTwo(uint256 index,string memory name) external  {... */\n    tag_26:\n        /* \"contracts/test/Demo.sol\":694:711  Todo storage todo */\n      0x00\n        /* \"contracts/test/Demo.sol\":714:718  list */\n      dup1\n        /* \"contracts/test/Demo.sol\":719:724  index */\n      dup4\n        /* \"contracts/test/Demo.sol\":714:725  list[index] */\n      dup2\n      sload\n      dup2\n      lt\n      tag_62\n      jumpi\n      tag_63\n      tag_49\n      jump\t// in\n    tag_63:\n    tag_62:\n      swap1\n      0x00\n      mstore\n      keccak256(0x00, 0x20)\n      swap1\n      0x02\n      mul\n      add\n        /* \"contracts/test/Demo.sol\":694:725  Todo storage todo = list[index] */\n      swap1\n      pop\n        /* \"contracts/test/Demo.sol\":747:751  name */\n      dup2\n        /* \"contracts/test/Demo.sol\":735:739  todo */\n      dup2\n        /* \"contracts/test/Demo.sol\":735:744  todo.name */\n      0x00\n      add\n        /* \"contracts/test/Demo.sol\":735:751  todo.name = name */\n      swap1\n      dup2\n      tag_65\n      swap2\n      swap1\n      tag_60\n      jump\t// in\n    tag_65:\n      pop\n        /* \"contracts/test/Demo.sol\":684:758  {... */\n      pop\n        /* \"contracts/test/Demo.sol\":617:758  function updateNameTwo(uint256 index,string memory name) external  {... */\n      pop\n      pop\n      jump\t// out\n        /* \"contracts/test/Demo.sol\":151:169  Todo[] public list */\n    tag_29:\n      0x00\n      dup2\n      dup2\n      sload\n      dup2\n      lt\n      tag_66\n      jumpi\n      0x00\n      dup1\n      revert\n    tag_66:\n      swap1\n      0x00\n      mstore\n      keccak256(0x00, 0x20)\n      swap1\n      0x02\n      mul\n      add\n      0x00\n      swap2\n      pop\n      swap1\n      pop\n      dup1\n      0x00\n      add\n      dup1\n      sload\n      tag_68\n      swap1\n      tag_69\n      jump\t// in\n    tag_68:\n      dup1\n      0x1f\n      add\n      0x20\n      dup1\n      swap2\n      div\n      mul\n      0x20\n      add\n      mload(0x40)\n      swap1\n      dup2\n      add\n      0x40\n      mstore\n      dup1\n      swap3\n      swap2\n      swap1\n      dup2\n      dup2\n      mstore\n      0x20\n      add\n      dup3\n      dup1\n      sload\n      tag_70\n      swap1\n      tag_69\n      jump\t// in\n    tag_70:\n      dup1\n      iszero\n      tag_71\n      jumpi\n      dup1\n      0x1f\n      lt\n      tag_72\n      jumpi\n      0x0100\n      dup1\n      dup4\n      sload\n      div\n      mul\n      dup4\n      mstore\n      swap2\n      0x20\n      add\n      swap2\n      jump(tag_71)\n    tag_72:\n      dup3\n      add\n      swap2\n      swap1\n      0x00\n      mstore\n      keccak256(0x00, 0x20)\n      swap1\n    tag_73:\n      dup2\n      sload\n      dup2\n      mstore\n      swap1\n      0x01\n      add\n      swap1\n      0x20\n      add\n      dup1\n      dup4\n      gt\n      tag_73\n      jumpi\n      dup3\n      swap1\n      sub\n      0x1f\n      and\n      dup3\n      add\n      swap2\n    tag_71:\n      pop\n      pop\n      pop\n      pop\n      pop\n      swap1\n      dup1\n      0x01\n      add\n      0x00\n      swap1\n      sload\n      swap1\n      0x0100\n      exp\n      swap1\n      div\n      0xff\n      and\n      swap1\n      pop\n      dup3\n      jump\t// out\n        /* \"contracts/test/Demo.sol\":1291:1468  function getTwo(uint256 index) external view returns(string memory name,bool status){... */\n    tag_34:\n        /* \"contracts/test/Demo.sol\":1344:1362  string memory name */\n      0x60\n        /* \"contracts/test/Demo.sol\":1363:1374  bool status */\n      0x00\n        /* \"contracts/test/Demo.sol\":1385:1402  Todo storage temp */\n      dup1\n        /* \"contracts/test/Demo.sol\":1405:1409  list */\n      0x00\n        /* \"contracts/test/Demo.sol\":1410:1415  index */\n      dup5\n        /* \"contracts/test/Demo.sol\":1405:1416  list[index] */\n      dup2\n      sload\n      dup2\n      lt\n      tag_75\n      jumpi\n      tag_76\n      tag_49\n      jump\t// in\n    tag_76:\n    tag_75:\n      swap1\n      0x00\n      mstore\n      keccak256(0x00, 0x20)\n      swap1\n      0x02\n      mul\n      add\n        /* \"contracts/test/Demo.sol\":1385:1416  Todo storage temp = list[index] */\n      swap1\n      pop\n        /* \"contracts/test/Demo.sol\":1434:1438  temp */\n      dup1\n        /* \"contracts/test/Demo.sol\":1434:1443  temp.name */\n      0x00\n      add\n        /* \"contracts/test/Demo.sol\":1444:1448  temp */\n      dup2\n        /* \"contracts/test/Demo.sol\":1444:1460  temp.isCompleted */\n      0x01\n      add\n      0x00\n      swap1\n      sload\n      swap1\n      0x0100\n      exp\n      swap1\n      div\n      0xff\n      and\n        /* \"contracts/test/Demo.sol\":1426:1461  return (temp.name,temp.isCompleted) */\n      dup2\n      dup1\n      sload\n      tag_78\n      swap1\n      tag_69\n      jump\t// in\n    tag_78:\n      dup1\n      0x1f\n      add\n      0x20\n      dup1\n      swap2\n      div\n      mul\n      0x20\n      add\n      mload(0x40)\n      swap1\n      dup2\n      add\n      0x40\n      mstore\n      dup1\n      swap3\n      swap2\n      swap1\n      dup2\n      dup2\n      mstore\n      0x20\n      add\n      dup3\n      dup1\n      sload\n      tag_79\n      swap1\n      tag_69\n      jump\t// in\n    tag_79:\n      dup1\n      iszero\n      tag_80\n      jumpi\n      dup1\n      0x1f\n      lt\n      tag_81\n      jumpi\n      0x0100\n      dup1\n      dup4\n      sload\n      div\n      mul\n      dup4\n      mstore\n      swap2\n      0x20\n      add\n      swap2\n      jump(tag_80)\n    tag_81:\n      dup3\n      add\n      swap2\n      swap1\n      0x00\n      mstore\n      keccak256(0x00, 0x20)\n      swap1\n    tag_82:\n      dup2\n      sload\n      dup2\n      mstore\n      swap1\n      0x01\n      add\n      swap1\n      0x20\n      add\n      dup1\n      dup4\n      gt\n      tag_82\n      jumpi\n      dup3\n      swap1\n      sub\n      0x1f\n      and\n      dup3\n      add\n      swap2\n    tag_80:\n      pop\n      pop\n      pop\n      pop\n      pop\n      swap2\n      pop\n      swap3\n      pop\n      swap3\n      pop\n      pop\n        /* \"contracts/test/Demo.sol\":1291:1468  function getTwo(uint256 index) external view returns(string memory name,bool status){... */\n      swap2\n      pop\n      swap2\n      jump\t// out\n        /* \"contracts/test/Demo.sol\":1068:1241  function get(uint256 index) external view returns(string memory name,bool status){... */\n    tag_38:\n        /* \"contracts/test/Demo.sol\":1118:1136  string memory name */\n      0x60\n        /* \"contracts/test/Demo.sol\":1137:1148  bool status */\n      0x00\n        /* \"contracts/test/Demo.sol\":1159:1175  Todo memory temp */\n      dup1\n        /* \"contracts/test/Demo.sol\":1178:1182  list */\n      0x00\n        /* \"contracts/test/Demo.sol\":1183:1188  index */\n      dup5\n        /* \"contracts/test/Demo.sol\":1178:1189  list[index] */\n      dup2\n      sload\n      dup2\n      lt\n      tag_84\n      jumpi\n      tag_85\n      tag_49\n      jump\t// in\n    tag_85:\n    tag_84:\n      swap1\n      0x00\n      mstore\n      keccak256(0x00, 0x20)\n      swap1\n      0x02\n      mul\n      add\n        /* \"contracts/test/Demo.sol\":1159:1189  Todo memory temp = list[index] */\n      mload(0x40)\n      dup1\n      0x40\n      add\n      0x40\n      mstore\n      swap1\n      dup2\n      0x00\n      dup3\n      add\n      dup1\n      sload\n      tag_87\n      swap1\n      tag_69\n      jump\t// in\n    tag_87:\n      dup1\n      0x1f\n      add\n      0x20\n      dup1\n      swap2\n      div\n      mul\n      0x20\n      add\n      mload(0x40)\n      swap1\n      dup2\n      add\n      0x40\n      mstore\n      dup1\n      swap3\n      swap2\n      swap1\n      dup2\n      dup2\n      mstore\n      0x20\n      add\n      dup3\n      dup1\n      sload\n      tag_88\n      swap1\n      tag_69\n      jump\t// in\n    tag_88:\n      dup1\n      iszero\n      tag_89\n      jumpi\n      dup1\n      0x1f\n      lt\n      tag_90\n      jumpi\n      0x0100\n      dup1\n      dup4\n      sload\n      div\n      mul\n      dup4\n      mstore\n      swap2\n      0x20\n      add\n      swap2\n      jump(tag_89)\n    tag_90:\n      dup3\n      add\n      swap2\n      swap1\n      0x00\n      mstore\n      keccak256(0x00, 0x20)\n      swap1\n    tag_91:\n      dup2\n      sload\n      dup2\n      mstore\n      swap1\n      0x01\n      add\n      swap1\n      0x20\n      add\n      dup1\n      dup4\n      gt\n      tag_91\n      jumpi\n      dup3\n      swap1\n      sub\n      0x1f\n      and\n      dup3\n      add\n      swap2\n    tag_89:\n      pop\n      pop\n      pop\n      pop\n      pop\n      dup2\n      mstore\n      0x20\n      add\n      0x01\n      dup3\n      add\n      0x00\n      swap1\n      sload\n      swap1\n      0x0100\n      exp\n      swap1\n      div\n      0xff\n      and\n      iszero\n      iszero\n      iszero\n      iszero\n      dup2\n      mstore\n      pop\n      pop\n      swap1\n      pop\n        /* \"contracts/test/Demo.sol\":1207:1211  temp */\n      dup1\n        /* \"contracts/test/Demo.sol\":1207:1216  temp.name */\n      0x00\n      add\n      mload\n        /* \"contracts/test/Demo.sol\":1217:1221  temp */\n      dup2\n        /* \"contracts/test/Demo.sol\":1217:1233  temp.isCompleted */\n      0x20\n      add\n      mload\n        /* \"contracts/test/Demo.sol\":1199:1234  return (temp.name,temp.isCompleted) */\n      swap3\n      pop\n      swap3\n      pop\n      pop\n        /* \"contracts/test/Demo.sol\":1068:1241  function get(uint256 index) external view returns(string memory name,bool status){... */\n      swap2\n      pop\n      swap2\n      jump\t// out\n        /* \"contracts/test/Demo.sol\":196:422  function create(string memory name_) external returns(uint256) {... */\n    tag_43:\n        /* \"contracts/test/Demo.sol\":250:257  uint256 */\n      0x00\n        /* \"contracts/test/Demo.sol\":269:273  list */\n      dup1\n        /* \"contracts/test/Demo.sol\":292:377  Todo({... */\n      mload(0x40)\n      dup1\n      0x40\n      add\n      0x40\n      mstore\n      dup1\n        /* \"contracts/test/Demo.sol\":321:326  name_ */\n      dup5\n        /* \"contracts/test/Demo.sol\":292:377  Todo({... */\n      dup2\n      mstore\n      0x20\n      add\n        /* \"contracts/test/Demo.sol\":357:362  false */\n      0x00\n        /* \"contracts/test/Demo.sol\":292:377  Todo({... */\n      iszero\n      iszero\n      dup2\n      mstore\n      pop\n        /* \"contracts/test/Demo.sol\":269:387  list.push(... */\n      swap1\n      dup1\n      0x01\n      dup2\n      sload\n      add\n      dup1\n      dup3\n      sstore\n      dup1\n      swap2\n      pop\n      pop\n      0x01\n      swap1\n      sub\n      swap1\n      0x00\n      mstore\n      keccak256(0x00, 0x20)\n      swap1\n      0x02\n      mul\n      add\n      0x00\n      swap1\n      swap2\n      swap1\n      swap2\n      swap1\n      swap2\n      pop\n      0x00\n      dup3\n      add\n      mload\n      dup2\n      0x00\n      add\n      swap1\n      dup2\n      tag_94\n      swap2\n      swap1\n      tag_60\n      jump\t// in\n    tag_94:\n      pop\n      0x20\n      dup3\n      add\n      mload\n      dup2\n      0x01\n      add\n      exp(0x0100, 0x00)\n      dup2\n      sload\n      dup2\n      0xff\n      mul\n      not\n      and\n      swap1\n      dup4\n      iszero\n      iszero\n      mul\n      or\n      swap1\n      sstore\n      pop\n      pop\n      pop\n        /* \"contracts/test/Demo.sol\":404:408  list */\n      0x00\n        /* \"contracts/test/Demo.sol\":404:415  list.length */\n      dup1\n      sload\n      swap1\n      pop\n        /* \"contracts/test/Demo.sol\":397:415  return list.length */\n      swap1\n      pop\n        /* \"contracts/test/Demo.sol\":196:422  function create(string memory name_) external returns(uint256) {... */\n      swap2\n      swap1\n      pop\n      jump\t// out\n        /* \"#utility.yul\":7:82   */\n    tag_95:\n        /* \"#utility.yul\":40:46   */\n      0x00\n        /* \"#utility.yul\":73:75   */\n      0x40\n        /* \"#utility.yul\":67:76   */\n      mload\n        /* \"#utility.yul\":57:76   */\n      swap1\n      pop\n        /* \"#utility.yul\":7:82   */\n      swap1\n      jump\t// out\n        /* \"#utility.yul\":88:205   */\n    tag_96:\n        /* \"#utility.yul\":197:198   */\n      0x00\n        /* \"#utility.yul\":194:195   */\n      dup1\n        /* \"#utility.yul\":187:199   */\n      revert\n        /* \"#utility.yul\":211:328   */\n    tag_97:\n        /* \"#utility.yul\":320:321   */\n      0x00\n        /* \"#utility.yul\":317:318   */\n      dup1\n        /* \"#utility.yul\":310:322   */\n      revert\n        /* \"#utility.yul\":334:411   */\n    tag_98:\n        /* \"#utility.yul\":371:378   */\n      0x00\n        /* \"#utility.yul\":400:405   */\n      dup2\n        /* \"#utility.yul\":389:405   */\n      swap1\n      pop\n        /* \"#utility.yul\":334:411   */\n      swap2\n      swap1\n      pop\n      jump\t// out\n        /* \"#utility.yul\":417:539   */\n    tag_99:\n        /* \"#utility.yul\":490:514   */\n      tag_142\n        /* \"#utility.yul\":508:513   */\n      dup2\n        /* \"#utility.yul\":490:514   */\n      tag_98\n      jump\t// in\n    tag_142:\n        /* \"#utility.yul\":483:488   */\n      dup2\n        /* \"#utility.yul\":480:515   */\n      eq\n        /* \"#utility.yul\":470:533   */\n      tag_143\n      jumpi\n        /* \"#utility.yul\":529:530   */\n      0x00\n        /* \"#utility.yul\":526:527   */\n      dup1\n        /* \"#utility.yul\":519:531   */\n      revert\n        /* \"#utility.yul\":470:533   */\n    tag_143:\n        /* \"#utility.yul\":417:539   */\n      pop\n      jump\t// out\n        /* \"#utility.yul\":545:684   */\n    tag_100:\n        /* \"#utility.yul\":591:596   */\n      0x00\n        /* \"#utility.yul\":629:635   */\n      dup2\n        /* \"#utility.yul\":616:636   */\n      calldataload\n        /* \"#utility.yul\":607:636   */\n      swap1\n      pop\n        /* \"#utility.yul\":645:678   */\n      tag_145\n        /* \"#utility.yul\":672:677   */\n      dup2\n        /* \"#utility.yul\":645:678   */\n      tag_99\n      jump\t// in\n    tag_145:\n        /* \"#utility.yul\":545:684   */\n      swap3\n      swap2\n      pop\n      pop\n      jump\t// out\n        /* \"#utility.yul\":690:780   */\n    tag_101:\n        /* \"#utility.yul\":724:731   */\n      0x00\n        /* \"#utility.yul\":767:772   */\n      dup2\n        /* \"#utility.yul\":760:773   */\n      iszero\n        /* \"#utility.yul\":753:774   */\n      iszero\n        /* \"#utility.yul\":742:774   */\n      swap1\n      pop\n        /* \"#utility.yul\":690:780   */\n      swap2\n      swap1\n      pop\n      jump\t// out\n        /* \"#utility.yul\":786:902   */\n    tag_102:\n        /* \"#utility.yul\":856:877   */\n      tag_148\n        /* \"#utility.yul\":871:876   */\n      dup2\n        /* \"#utility.yul\":856:877   */\n      tag_101\n      jump\t// in\n    tag_148:\n        /* \"#utility.yul\":849:854   */\n      dup2\n        /* \"#utility.yul\":846:878   */\n      eq\n        /* \"#utility.yul\":836:896   */\n      tag_149\n      jumpi\n        /* \"#utility.yul\":892:893   */\n      0x00\n        /* \"#utility.yul\":889:890   */\n      dup1\n        /* \"#utility.yul\":882:894   */\n      revert\n        /* \"#utility.yul\":836:896   */\n    tag_149:\n        /* \"#utility.yul\":786:902   */\n      pop\n      jump\t// out\n        /* \"#utility.yul\":908:1041   */\n    tag_103:\n        /* \"#utility.yul\":951:956   */\n      0x00\n        /* \"#utility.yul\":989:995   */\n      dup2\n        /* \"#utility.yul\":976:996   */\n      calldataload\n        /* \"#utility.yul\":967:996   */\n      swap1\n      pop\n        /* \"#utility.yul\":1005:1035   */\n      tag_151\n        /* \"#utility.yul\":1029:1034   */\n      dup2\n        /* \"#utility.yul\":1005:1035   */\n      tag_102\n      jump\t// in\n    tag_151:\n        /* \"#utility.yul\":908:1041   */\n      swap3\n      swap2\n      pop\n      pop\n      jump\t// out\n        /* \"#utility.yul\":1047:1515   */\n    tag_14:\n        /* \"#utility.yul\":1112:1118   */\n      0x00\n        /* \"#utility.yul\":1120:1126   */\n      dup1\n        /* \"#utility.yul\":1169:1171   */\n      0x40\n        /* \"#utility.yul\":1157:1166   */\n      dup4\n        /* \"#utility.yul\":1148:1155   */\n      dup6\n        /* \"#utility.yul\":1144:1167   */\n      sub\n        /* \"#utility.yul\":1140:1172   */\n      slt\n        /* \"#utility.yul\":1137:1256   */\n      iszero\n      tag_153\n      jumpi\n        /* \"#utility.yul\":1175:1254   */\n      tag_154\n      tag_96\n      jump\t// in\n    tag_154:\n        /* \"#utility.yul\":1137:1256   */\n    tag_153:\n        /* \"#utility.yul\":1295:1296   */\n      0x00\n        /* \"#utility.yul\":1320:1373   */\n      tag_155\n        /* \"#utility.yul\":1365:1372   */\n      dup6\n        /* \"#utility.yul\":1356:1362   */\n      dup3\n        /* \"#utility.yul\":1345:1354   */\n      dup7\n        /* \"#utility.yul\":1341:1363   */\n      add\n        /* \"#utility.yul\":1320:1373   */\n      tag_100\n      jump\t// in\n    tag_155:\n        /* \"#utility.yul\":1310:1373   */\n      swap3\n      pop\n        /* \"#utility.yul\":1266:1383   */\n      pop\n        /* \"#utility.yul\":1422:1424   */\n      0x20\n        /* \"#utility.yul\":1448:1498   */\n      tag_156\n        /* \"#utility.yul\":1490:1497   */\n      dup6\n        /* \"#utility.yul\":1481:1487   */\n      dup3\n        /* \"#utility.yul\":1470:1479   */\n      dup7\n        /* \"#utility.yul\":1466:1488   */\n      add\n        /* \"#utility.yul\":1448:1498   */\n      tag_103\n      jump\t// in\n    tag_156:\n        /* \"#utility.yul\":1438:1498   */\n      swap2\n      pop\n        /* \"#utility.yul\":1393:1508   */\n      pop\n        /* \"#utility.yul\":1047:1515   */\n      swap3\n      pop\n      swap3\n      swap1\n      pop\n      jump\t// out\n        /* \"#utility.yul\":1521:1850   */\n    tag_18:\n        /* \"#utility.yul\":1580:1586   */\n      0x00\n        /* \"#utility.yul\":1629:1631   */\n      0x20\n        /* \"#utility.yul\":1617:1626   */\n      dup3\n        /* \"#utility.yul\":1608:1615   */\n      dup5\n        /* \"#utility.yul\":1604:1627   */\n      sub\n        /* \"#utility.yul\":1600:1632   */\n      slt\n        /* \"#utility.yul\":1597:1716   */\n      iszero\n      tag_158\n      jumpi\n        /* \"#utility.yul\":1635:1714   */\n      tag_159\n      tag_96\n      jump\t// in\n    tag_159:\n        /* \"#utility.yul\":1597:1716   */\n    tag_158:\n        /* \"#utility.yul\":1755:1756   */\n      0x00\n        /* \"#utility.yul\":1780:1833   */\n      tag_160\n        /* \"#utility.yul\":1825:1832   */\n      dup5\n        /* \"#utility.yul\":1816:1822   */\n      dup3\n        /* \"#utility.yul\":1805:1814   */\n      dup6\n        /* \"#utility.yul\":1801:1823   */\n      add\n        /* \"#utility.yul\":1780:1833   */\n      tag_100\n      jump\t// in\n    tag_160:\n        /* \"#utility.yul\":1770:1833   */\n      swap2\n      pop\n        /* \"#utility.yul\":1726:1843   */\n      pop\n        /* \"#utility.yul\":1521:1850   */\n      swap3\n      swap2\n      pop\n      pop\n      jump\t// out\n        /* \"#utility.yul\":1856:1973   */\n    tag_104:\n        /* \"#utility.yul\":1965:1966   */\n      0x00\n        /* \"#utility.yul\":1962:1963   */\n      dup1\n        /* \"#utility.yul\":1955:1967   */\n      revert\n        /* \"#utility.yul\":1979:2096   */\n    tag_105:\n        /* \"#utility.yul\":2088:2089   */\n      0x00\n        /* \"#utility.yul\":2085:2086   */\n      dup1\n        /* \"#utility.yul\":2078:2090   */\n      revert\n        /* \"#utility.yul\":2102:2204   */\n    tag_106:\n        /* \"#utility.yul\":2143:2149   */\n      0x00\n        /* \"#utility.yul\":2194:2196   */\n      0x1f\n        /* \"#utility.yul\":2190:2197   */\n      not\n        /* \"#utility.yul\":2185:2187   */\n      0x1f\n        /* \"#utility.yul\":2178:2183   */\n      dup4\n        /* \"#utility.yul\":2174:2188   */\n      add\n        /* \"#utility.yul\":2170:2198   */\n      and\n        /* \"#utility.yul\":2160:2198   */\n      swap1\n      pop\n        /* \"#utility.yul\":2102:2204   */\n      swap2\n      swap1\n      pop\n      jump\t// out\n        /* \"#utility.yul\":2210:2390   */\n    tag_107:\n        /* \"#utility.yul\":2258:2335   */\n      0x4e487b7100000000000000000000000000000000000000000000000000000000\n        /* \"#utility.yul\":2255:2256   */\n      0x00\n        /* \"#utility.yul\":2248:2336   */\n      mstore\n        /* \"#utility.yul\":2355:2359   */\n      0x41\n        /* \"#utility.yul\":2352:2353   */\n      0x04\n        /* \"#utility.yul\":2345:2360   */\n      mstore\n        /* \"#utility.yul\":2379:2383   */\n      0x24\n        /* \"#utility.yul\":2376:2377   */\n      0x00\n        /* \"#utility.yul\":2369:2384   */\n      revert\n        /* \"#utility.yul\":2396:2677   */\n    tag_108:\n        /* \"#utility.yul\":2479:2506   */\n      tag_166\n        /* \"#utility.yul\":2501:2505   */\n      dup3\n        /* \"#utility.yul\":2479:2506   */\n      tag_106\n      jump\t// in\n    tag_166:\n        /* \"#utility.yul\":2471:2477   */\n      dup2\n        /* \"#utility.yul\":2467:2507   */\n      add\n        /* \"#utility.yul\":2609:2615   */\n      dup2\n        /* \"#utility.yul\":2597:2607   */\n      dup2\n        /* \"#utility.yul\":2594:2616   */\n      lt\n        /* \"#utility.yul\":2573:2591   */\n      0xffffffffffffffff\n        /* \"#utility.yul\":2561:2571   */\n      dup3\n        /* \"#utility.yul\":2558:2592   */\n      gt\n        /* \"#utility.yul\":2555:2617   */\n      or\n        /* \"#utility.yul\":2552:2640   */\n      iszero\n      tag_167\n      jumpi\n        /* \"#utility.yul\":2620:2638   */\n      tag_168\n      tag_107\n      jump\t// in\n    tag_168:\n        /* \"#utility.yul\":2552:2640   */\n    tag_167:\n        /* \"#utility.yul\":2660:2670   */\n      dup1\n        /* \"#utility.yul\":2656:2658   */\n      0x40\n        /* \"#utility.yul\":2649:2671   */\n      mstore\n        /* \"#utility.yul\":2439:2677   */\n      pop\n        /* \"#utility.yul\":2396:2677   */\n      pop\n      pop\n      jump\t// out\n        /* \"#utility.yul\":2683:2812   */\n    tag_109:\n        /* \"#utility.yul\":2717:2723   */\n      0x00\n        /* \"#utility.yul\":2744:2764   */\n      tag_170\n      tag_95\n      jump\t// in\n    tag_170:\n        /* \"#utility.yul\":2734:2764   */\n      swap1\n      pop\n        /* \"#utility.yul\":2773:2806   */\n      tag_171\n        /* \"#utility.yul\":2801:2805   */\n      dup3\n        /* \"#utility.yul\":2793:2799   */\n      dup3\n        /* \"#utility.yul\":2773:2806   */\n      tag_108\n      jump\t// in\n    tag_171:\n        /* \"#utility.yul\":2683:2812   */\n      swap2\n      swap1\n      pop\n      jump\t// out\n        /* \"#utility.yul\":2818:3126   */\n    tag_110:\n        /* \"#utility.yul\":2880:2884   */\n      0x00\n        /* \"#utility.yul\":2970:2988   */\n      0xffffffffffffffff\n        /* \"#utility.yul\":2962:2968   */\n      dup3\n        /* \"#utility.yul\":2959:2989   */\n      gt\n        /* \"#utility.yul\":2956:3012   */\n      iszero\n      tag_173\n      jumpi\n        /* \"#utility.yul\":2992:3010   */\n      tag_174\n      tag_107\n      jump\t// in\n    tag_174:\n        /* \"#utility.yul\":2956:3012   */\n    tag_173:\n        /* \"#utility.yul\":3030:3059   */\n      tag_175\n        /* \"#utility.yul\":3052:3058   */\n      dup3\n        /* \"#utility.yul\":3030:3059   */\n      tag_106\n      jump\t// in\n    tag_175:\n        /* \"#utility.yul\":3022:3059   */\n      swap1\n      pop\n        /* \"#utility.yul\":3114:3118   */\n      0x20\n        /* \"#utility.yul\":3108:3112   */\n      dup2\n        /* \"#utility.yul\":3104:3119   */\n      add\n        /* \"#utility.yul\":3096:3119   */\n      swap1\n      pop\n        /* \"#utility.yul\":2818:3126   */\n      swap2\n      swap1\n      pop\n      jump\t// out\n        /* \"#utility.yul\":3132:3280   */\n    tag_111:\n        /* \"#utility.yul\":3230:3236   */\n      dup3\n        /* \"#utility.yul\":3225:3228   */\n      dup2\n        /* \"#utility.yul\":3220:3223   */\n      dup4\n        /* \"#utility.yul\":3207:3237   */\n      calldatacopy\n        /* \"#utility.yul\":3271:3272   */\n      0x00\n        /* \"#utility.yul\":3262:3268   */\n      dup4\n        /* \"#utility.yul\":3257:3260   */\n      dup4\n        /* \"#utility.yul\":3253:3269   */\n      add\n        /* \"#utility.yul\":3246:3273   */\n      mstore\n        /* \"#utility.yul\":3132:3280   */\n      pop\n      pop\n      pop\n      jump\t// out\n        /* \"#utility.yul\":3286:3711   */\n    tag_112:\n        /* \"#utility.yul\":3364:3369   */\n      0x00\n        /* \"#utility.yul\":3389:3455   */\n      tag_178\n        /* \"#utility.yul\":3405:3454   */\n      tag_179\n        /* \"#utility.yul\":3447:3453   */\n      dup5\n        /* \"#utility.yul\":3405:3454   */\n      tag_110\n      jump\t// in\n    tag_179:\n        /* \"#utility.yul\":3389:3455   */\n      tag_109\n      jump\t// in\n    tag_178:\n        /* \"#utility.yul\":3380:3455   */\n      swap1\n      pop\n        /* \"#utility.yul\":3478:3484   */\n      dup3\n        /* \"#utility.yul\":3471:3476   */\n      dup2\n        /* \"#utility.yul\":3464:3485   */\n      mstore\n        /* \"#utility.yul\":3516:3520   */\n      0x20\n        /* \"#utility.yul\":3509:3514   */\n      dup2\n        /* \"#utility.yul\":3505:3521   */\n      add\n        /* \"#utility.yul\":3554:3557   */\n      dup5\n        /* \"#utility.yul\":3545:3551   */\n      dup5\n        /* \"#utility.yul\":3540:3543   */\n      dup5\n        /* \"#utility.yul\":3536:3552   */\n      add\n        /* \"#utility.yul\":3533:3558   */\n      gt\n        /* \"#utility.yul\":3530:3642   */\n      iszero\n      tag_180\n      jumpi\n        /* \"#utility.yul\":3561:3640   */\n      tag_181\n      tag_105\n      jump\t// in\n    tag_181:\n        /* \"#utility.yul\":3530:3642   */\n    tag_180:\n        /* \"#utility.yul\":3651:3705   */\n      tag_182\n        /* \"#utility.yul\":3698:3704   */\n      dup5\n        /* \"#utility.yul\":3693:3696   */\n      dup3\n        /* \"#utility.yul\":3688:3691   */\n      dup6\n        /* \"#utility.yul\":3651:3705   */\n      tag_111\n      jump\t// in\n    tag_182:\n        /* \"#utility.yul\":3370:3711   */\n      pop\n        /* \"#utility.yul\":3286:3711   */\n      swap4\n      swap3\n      pop\n      pop\n      pop\n      jump\t// out\n        /* \"#utility.yul\":3731:4071   */\n    tag_113:\n        /* \"#utility.yul\":3787:3792   */\n      0x00\n        /* \"#utility.yul\":3836:3839   */\n      dup3\n        /* \"#utility.yul\":3829:3833   */\n      0x1f\n        /* \"#utility.yul\":3821:3827   */\n      dup4\n        /* \"#utility.yul\":3817:3834   */\n      add\n        /* \"#utility.yul\":3813:3840   */\n      slt\n        /* \"#utility.yul\":3803:3925   */\n      tag_184\n      jumpi\n        /* \"#utility.yul\":3844:3923   */\n      tag_185\n      tag_104\n      jump\t// in\n    tag_185:\n        /* \"#utility.yul\":3803:3925   */\n    tag_184:\n        /* \"#utility.yul\":3961:3967   */\n      dup2\n        /* \"#utility.yul\":3948:3968   */\n      calldataload\n        /* \"#utility.yul\":3986:4065   */\n      tag_186\n        /* \"#utility.yul\":4061:4064   */\n      dup5\n        /* \"#utility.yul\":4053:4059   */\n      dup3\n        /* \"#utility.yul\":4046:4050   */\n      0x20\n        /* \"#utility.yul\":4038:4044   */\n      dup7\n        /* \"#utility.yul\":4034:4051   */\n      add\n        /* \"#utility.yul\":3986:4065   */\n      tag_112\n      jump\t// in\n    tag_186:\n        /* \"#utility.yul\":3977:4065   */\n      swap2\n      pop\n        /* \"#utility.yul\":3793:4071   */\n      pop\n        /* \"#utility.yul\":3731:4071   */\n      swap3\n      swap2\n      pop\n      pop\n      jump\t// out\n        /* \"#utility.yul\":4077:4731   */\n    tag_22:\n        /* \"#utility.yul\":4155:4161   */\n      0x00\n        /* \"#utility.yul\":4163:4169   */\n      dup1\n        /* \"#utility.yul\":4212:4214   */\n      0x40\n        /* \"#utility.yul\":4200:4209   */\n      dup4\n        /* \"#utility.yul\":4191:4198   */\n      dup6\n        /* \"#utility.yul\":4187:4210   */\n      sub\n        /* \"#utility.yul\":4183:4215   */\n      slt\n        /* \"#utility.yul\":4180:4299   */\n      iszero\n      tag_188\n      jumpi\n        /* \"#utility.yul\":4218:4297   */\n      tag_189\n      tag_96\n      jump\t// in\n    tag_189:\n        /* \"#utility.yul\":4180:4299   */\n    tag_188:\n        /* \"#utility.yul\":4338:4339   */\n      0x00\n        /* \"#utility.yul\":4363:4416   */\n      tag_190\n        /* \"#utility.yul\":4408:4415   */\n      dup6\n        /* \"#utility.yul\":4399:4405   */\n      dup3\n        /* \"#utility.yul\":4388:4397   */\n      dup7\n        /* \"#utility.yul\":4384:4406   */\n      add\n        /* \"#utility.yul\":4363:4416   */\n      tag_100\n      jump\t// in\n    tag_190:\n        /* \"#utility.yul\":4353:4416   */\n      swap3\n      pop\n        /* \"#utility.yul\":4309:4426   */\n      pop\n        /* \"#utility.yul\":4493:4495   */\n      0x20\n        /* \"#utility.yul\":4482:4491   */\n      dup4\n        /* \"#utility.yul\":4478:4496   */\n      add\n        /* \"#utility.yul\":4465:4497   */\n      calldataload\n        /* \"#utility.yul\":4524:4542   */\n      0xffffffffffffffff\n        /* \"#utility.yul\":4516:4522   */\n      dup2\n        /* \"#utility.yul\":4513:4543   */\n      gt\n        /* \"#utility.yul\":4510:4627   */\n      iszero\n      tag_191\n      jumpi\n        /* \"#utility.yul\":4546:4625   */\n      tag_192\n      tag_97\n      jump\t// in\n    tag_192:\n        /* \"#utility.yul\":4510:4627   */\n    tag_191:\n        /* \"#utility.yul\":4651:4714   */\n      tag_193\n        /* \"#utility.yul\":4706:4713   */\n      dup6\n        /* \"#utility.yul\":4697:4703   */\n      dup3\n        /* \"#utility.yul\":4686:4695   */\n      dup7\n        /* \"#utility.yul\":4682:4704   */\n      add\n        /* \"#utility.yul\":4651:4714   */\n      tag_113\n      jump\t// in\n    tag_193:\n        /* \"#utility.yul\":4641:4714   */\n      swap2\n      pop\n        /* \"#utility.yul\":4436:4724   */\n      pop\n        /* \"#utility.yul\":4077:4731   */\n      swap3\n      pop\n      swap3\n      swap1\n      pop\n      jump\t// out\n        /* \"#utility.yul\":4737:4836   */\n    tag_114:\n        /* \"#utility.yul\":4789:4795   */\n      0x00\n        /* \"#utility.yul\":4823:4828   */\n      dup2\n        /* \"#utility.yul\":4817:4829   */\n      mload\n        /* \"#utility.yul\":4807:4829   */\n      swap1\n      pop\n        /* \"#utility.yul\":4737:4836   */\n      swap2\n      swap1\n      pop\n      jump\t// out\n        /* \"#utility.yul\":4842:5011   */\n    tag_115:\n        /* \"#utility.yul\":4926:4937   */\n      0x00\n        /* \"#utility.yul\":4960:4966   */\n      dup3\n        /* \"#utility.yul\":4955:4958   */\n      dup3\n        /* \"#utility.yul\":4948:4967   */\n      mstore\n        /* \"#utility.yul\":5000:5004   */\n      0x20\n        /* \"#utility.yul\":4995:4998   */\n      dup3\n        /* \"#utility.yul\":4991:5005   */\n      add\n        /* \"#utility.yul\":4976:5005   */\n      swap1\n      pop\n        /* \"#utility.yul\":4842:5011   */\n      swap3\n      swap2\n      pop\n      pop\n      jump\t// out\n        /* \"#utility.yul\":5017:5156   */\n    tag_116:\n        /* \"#utility.yul\":5106:5112   */\n      dup3\n        /* \"#utility.yul\":5101:5104   */\n      dup2\n        /* \"#utility.yul\":5096:5099   */\n      dup4\n        /* \"#utility.yul\":5090:5113   */\n      mcopy\n        /* \"#utility.yul\":5147:5148   */\n      0x00\n        /* \"#utility.yul\":5138:5144   */\n      dup4\n        /* \"#utility.yul\":5133:5136   */\n      dup4\n        /* \"#utility.yul\":5129:5145   */\n      add\n        /* \"#utility.yul\":5122:5149   */\n      mstore\n        /* \"#utility.yul\":5017:5156   */\n      pop\n      pop\n      pop\n      jump\t// out\n        /* \"#utility.yul\":5162:5539   */\n    tag_117:\n        /* \"#utility.yul\":5250:5253   */\n      0x00\n        /* \"#utility.yul\":5278:5317   */\n      tag_198\n        /* \"#utility.yul\":5311:5316   */\n      dup3\n        /* \"#utility.yul\":5278:5317   */\n      tag_114\n      jump\t// in\n    tag_198:\n        /* \"#utility.yul\":5333:5404   */\n      tag_199\n        /* \"#utility.yul\":5397:5403   */\n      dup2\n        /* \"#utility.yul\":5392:5395   */\n      dup6\n        /* \"#utility.yul\":5333:5404   */\n      tag_115\n      jump\t// in\n    tag_199:\n        /* \"#utility.yul\":5326:5404   */\n      swap4\n      pop\n        /* \"#utility.yul\":5413:5478   */\n      tag_200\n        /* \"#utility.yul\":5471:5477   */\n      dup2\n        /* \"#utility.yul\":5466:5469   */\n      dup6\n        /* \"#utility.yul\":5459:5463   */\n      0x20\n        /* \"#utility.yul\":5452:5457   */\n      dup7\n        /* \"#utility.yul\":5448:5464   */\n      add\n        /* \"#utility.yul\":5413:5478   */\n      tag_116\n      jump\t// in\n    tag_200:\n        /* \"#utility.yul\":5503:5532   */\n      tag_201\n        /* \"#utility.yul\":5525:5531   */\n      dup2\n        /* \"#utility.yul\":5503:5532   */\n      tag_106\n      jump\t// in\n    tag_201:\n        /* \"#utility.yul\":5498:5501   */\n      dup5\n        /* \"#utility.yul\":5494:5533   */\n      add\n        /* \"#utility.yul\":5487:5533   */\n      swap2\n      pop\n        /* \"#utility.yul\":5254:5539   */\n      pop\n        /* \"#utility.yul\":5162:5539   */\n      swap3\n      swap2\n      pop\n      pop\n      jump\t// out\n        /* \"#utility.yul\":5545:5654   */\n    tag_118:\n        /* \"#utility.yul\":5626:5647   */\n      tag_203\n        /* \"#utility.yul\":5641:5646   */\n      dup2\n        /* \"#utility.yul\":5626:5647   */\n      tag_101\n      jump\t// in\n    tag_203:\n        /* \"#utility.yul\":5621:5624   */\n      dup3\n        /* \"#utility.yul\":5614:5648   */\n      mstore\n        /* \"#utility.yul\":5545:5654   */\n      pop\n      pop\n      jump\t// out\n        /* \"#utility.yul\":5660:6071   */\n    tag_31:\n        /* \"#utility.yul\":5795:5799   */\n      0x00\n        /* \"#utility.yul\":5833:5835   */\n      0x40\n        /* \"#utility.yul\":5822:5831   */\n      dup3\n        /* \"#utility.yul\":5818:5836   */\n      add\n        /* \"#utility.yul\":5810:5836   */\n      swap1\n      pop\n        /* \"#utility.yul\":5882:5891   */\n      dup2\n        /* \"#utility.yul\":5876:5880   */\n      dup2\n        /* \"#utility.yul\":5872:5892   */\n      sub\n        /* \"#utility.yul\":5868:5869   */\n      0x00\n        /* \"#utility.yul\":5857:5866   */\n      dup4\n        /* \"#utility.yul\":5853:5870   */\n      add\n        /* \"#utility.yul\":5846:5893   */\n      mstore\n        /* \"#utility.yul\":5910:5988   */\n      tag_205\n        /* \"#utility.yul\":5983:5987   */\n      dup2\n        /* \"#utility.yul\":5974:5980   */\n      dup6\n        /* \"#utility.yul\":5910:5988   */\n      tag_117\n      jump\t// in\n    tag_205:\n        /* \"#utility.yul\":5902:5988   */\n      swap1\n      pop\n        /* \"#utility.yul\":5998:6064   */\n      tag_206\n        /* \"#utility.yul\":6060:6062   */\n      0x20\n        /* \"#utility.yul\":6049:6058   */\n      dup4\n        /* \"#utility.yul\":6045:6063   */\n      add\n        /* \"#utility.yul\":6036:6042   */\n      dup5\n        /* \"#utility.yul\":5998:6064   */\n      tag_118\n      jump\t// in\n    tag_206:\n        /* \"#utility.yul\":5660:6071   */\n      swap4\n      swap3\n      pop\n      pop\n      pop\n      jump\t// out\n        /* \"#utility.yul\":6077:6586   */\n    tag_42:\n        /* \"#utility.yul\":6146:6152   */\n      0x00\n        /* \"#utility.yul\":6195:6197   */\n      0x20\n        /* \"#utility.yul\":6183:6192   */\n      dup3\n        /* \"#utility.yul\":6174:6181   */\n      dup5\n        /* \"#utility.yul\":6170:6193   */\n      sub\n        /* \"#utility.yul\":6166:6198   */\n      slt\n        /* \"#utility.yul\":6163:6282   */\n      iszero\n      tag_208\n      jumpi\n        /* \"#utility.yul\":6201:6280   */\n      tag_209\n      tag_96\n      jump\t// in\n    tag_209:\n        /* \"#utility.yul\":6163:6282   */\n    tag_208:\n        /* \"#utility.yul\":6349:6350   */\n      0x00\n        /* \"#utility.yul\":6338:6347   */\n      dup3\n        /* \"#utility.yul\":6334:6351   */\n      add\n        /* \"#utility.yul\":6321:6352   */\n      calldataload\n        /* \"#utility.yul\":6379:6397   */\n      0xffffffffffffffff\n        /* \"#utility.yul\":6371:6377   */\n      dup2\n        /* \"#utility.yul\":6368:6398   */\n      gt\n        /* \"#utility.yul\":6365:6482   */\n      iszero\n      tag_210\n      jumpi\n        /* \"#utility.yul\":6401:6480   */\n      tag_211\n      tag_97\n      jump\t// in\n    tag_211:\n        /* \"#utility.yul\":6365:6482   */\n    tag_210:\n        /* \"#utility.yul\":6506:6569   */\n      tag_212\n        /* \"#utility.yul\":6561:6568   */\n      dup5\n        /* \"#utility.yul\":6552:6558   */\n      dup3\n        /* \"#utility.yul\":6541:6550   */\n      dup6\n        /* \"#utility.yul\":6537:6559   */\n      add\n        /* \"#utility.yul\":6506:6569   */\n      tag_113\n      jump\t// in\n    tag_212:\n        /* \"#utility.yul\":6496:6569   */\n      swap2\n      pop\n        /* \"#utility.yul\":6292:6579   */\n      pop\n        /* \"#utility.yul\":6077:6586   */\n      swap3\n      swap2\n      pop\n      pop\n      jump\t// out\n        /* \"#utility.yul\":6592:6710   */\n    tag_119:\n        /* \"#utility.yul\":6679:6703   */\n      tag_214\n        /* \"#utility.yul\":6697:6702   */\n      dup2\n        /* \"#utility.yul\":6679:6703   */\n      tag_98\n      jump\t// in\n    tag_214:\n        /* \"#utility.yul\":6674:6677   */\n      dup3\n        /* \"#utility.yul\":6667:6704   */\n      mstore\n        /* \"#utility.yul\":6592:6710   */\n      pop\n      pop\n      jump\t// out\n        /* \"#utility.yul\":6716:6938   */\n    tag_45:\n        /* \"#utility.yul\":6809:6813   */\n      0x00\n        /* \"#utility.yul\":6847:6849   */\n      0x20\n        /* \"#utility.yul\":6836:6845   */\n      dup3\n        /* \"#utility.yul\":6832:6850   */\n      add\n        /* \"#utility.yul\":6824:6850   */\n      swap1\n      pop\n        /* \"#utility.yul\":6860:6931   */\n      tag_216\n        /* \"#utility.yul\":6928:6929   */\n      0x00\n        /* \"#utility.yul\":6917:6926   */\n      dup4\n        /* \"#utility.yul\":6913:6930   */\n      add\n        /* \"#utility.yul\":6904:6910   */\n      dup5\n        /* \"#utility.yul\":6860:6931   */\n      tag_119\n      jump\t// in\n    tag_216:\n        /* \"#utility.yul\":6716:6938   */\n      swap3\n      swap2\n      pop\n      pop\n      jump\t// out\n        /* \"#utility.yul\":6944:7124   */\n    tag_49:\n        /* \"#utility.yul\":6992:7069   */\n      0x4e487b7100000000000000000000000000000000000000000000000000000000\n        /* \"#utility.yul\":6989:6990   */\n      0x00\n        /* \"#utility.yul\":6982:7070   */\n      mstore\n        /* \"#utility.yul\":7089:7093   */\n      0x32\n        /* \"#utility.yul\":7086:7087   */\n      0x04\n        /* \"#utility.yul\":7079:7094   */\n      mstore\n        /* \"#utility.yul\":7113:7117   */\n      0x24\n        /* \"#utility.yul\":7110:7111   */\n      0x00\n        /* \"#utility.yul\":7103:7118   */\n      revert\n        /* \"#utility.yul\":7130:7310   */\n    tag_120:\n        /* \"#utility.yul\":7178:7255   */\n      0x4e487b7100000000000000000000000000000000000000000000000000000000\n        /* \"#utility.yul\":7175:7176   */\n      0x00\n        /* \"#utility.yul\":7168:7256   */\n      mstore\n        /* \"#utility.yul\":7275:7279   */\n      0x22\n        /* \"#utility.yul\":7272:7273   */\n      0x04\n        /* \"#utility.yul\":7265:7280   */\n      mstore\n        /* \"#utility.yul\":7299:7303   */\n      0x24\n        /* \"#utility.yul\":7296:7297   */\n      0x00\n        /* \"#utility.yul\":7289:7304   */\n      revert\n        /* \"#utility.yul\":7316:7636   */\n    tag_69:\n        /* \"#utility.yul\":7360:7366   */\n      0x00\n        /* \"#utility.yul\":7397:7398   */\n      0x02\n        /* \"#utility.yul\":7391:7395   */\n      dup3\n        /* \"#utility.yul\":7387:7399   */\n      div\n        /* \"#utility.yul\":7377:7399   */\n      swap1\n      pop\n        /* \"#utility.yul\":7444:7445   */\n      0x01\n        /* \"#utility.yul\":7438:7442   */\n      dup3\n        /* \"#utility.yul\":7434:7446   */\n      and\n        /* \"#utility.yul\":7465:7483   */\n      dup1\n        /* \"#utility.yul\":7455:7536   */\n      tag_220\n      jumpi\n        /* \"#utility.yul\":7521:7525   */\n      0x7f\n        /* \"#utility.yul\":7513:7519   */\n      dup3\n        /* \"#utility.yul\":7509:7526   */\n      and\n        /* \"#utility.yul\":7499:7526   */\n      swap2\n      pop\n        /* \"#utility.yul\":7455:7536   */\n    tag_220:\n        /* \"#utility.yul\":7583:7585   */\n      0x20\n        /* \"#utility.yul\":7575:7581   */\n      dup3\n        /* \"#utility.yul\":7572:7586   */\n      lt\n        /* \"#utility.yul\":7552:7570   */\n      dup2\n        /* \"#utility.yul\":7549:7587   */\n      sub\n        /* \"#utility.yul\":7546:7630   */\n      tag_221\n      jumpi\n        /* \"#utility.yul\":7602:7620   */\n      tag_222\n      tag_120\n      jump\t// in\n    tag_222:\n        /* \"#utility.yul\":7546:7630   */\n    tag_221:\n        /* \"#utility.yul\":7367:7636   */\n      pop\n        /* \"#utility.yul\":7316:7636   */\n      swap2\n      swap1\n      pop\n      jump\t// out\n        /* \"#utility.yul\":7642:7783   */\n    tag_121:\n        /* \"#utility.yul\":7691:7695   */\n      0x00\n        /* \"#utility.yul\":7714:7717   */\n      dup2\n        /* \"#utility.yul\":7706:7717   */\n      swap1\n      pop\n        /* \"#utility.yul\":7737:7740   */\n      dup2\n        /* \"#utility.yul\":7734:7735   */\n      0x00\n        /* \"#utility.yul\":7727:7741   */\n      mstore\n        /* \"#utility.yul\":7771:7775   */\n      0x20\n        /* \"#utility.yul\":7768:7769   */\n      0x00\n        /* \"#utility.yul\":7758:7776   */\n      keccak256\n        /* \"#utility.yul\":7750:7776   */\n      swap1\n      pop\n        /* \"#utility.yul\":7642:7783   */\n      swap2\n      swap1\n      pop\n      jump\t// out\n        /* \"#utility.yul\":7789:7882   */\n    tag_122:\n        /* \"#utility.yul\":7826:7832   */\n      0x00\n        /* \"#utility.yul\":7873:7875   */\n      0x20\n        /* \"#utility.yul\":7868:7870   */\n      0x1f\n        /* \"#utility.yul\":7861:7866   */\n      dup4\n        /* \"#utility.yul\":7857:7871   */\n      add\n        /* \"#utility.yul\":7853:7876   */\n      div\n        /* \"#utility.yul\":7843:7876   */\n      swap1\n      pop\n        /* \"#utility.yul\":7789:7882   */\n      swap2\n      swap1\n      pop\n      jump\t// out\n        /* \"#utility.yul\":7888:7995   */\n    tag_123:\n        /* \"#utility.yul\":7932:7940   */\n      0x00\n        /* \"#utility.yul\":7982:7987   */\n      dup3\n        /* \"#utility.yul\":7976:7980   */\n      dup3\n        /* \"#utility.yul\":7972:7988   */\n      shl\n        /* \"#utility.yul\":7951:7988   */\n      swap1\n      pop\n        /* \"#utility.yul\":7888:7995   */\n      swap3\n      swap2\n      pop\n      pop\n      jump\t// out\n        /* \"#utility.yul\":8001:8394   */\n    tag_124:\n        /* \"#utility.yul\":8070:8076   */\n      0x00\n        /* \"#utility.yul\":8120:8121   */\n      0x08\n        /* \"#utility.yul\":8108:8118   */\n      dup4\n        /* \"#utility.yul\":8104:8122   */\n      mul\n        /* \"#utility.yul\":8143:8240   */\n      tag_227\n        /* \"#utility.yul\":8173:8239   */\n      0xffffffffffffffffffffffffffffffffffffffffffffffffffffffffffffffff\n        /* \"#utility.yul\":8162:8171   */\n      dup3\n        /* \"#utility.yul\":8143:8240   */\n      tag_123\n      jump\t// in\n    tag_227:\n        /* \"#utility.yul\":8261:8300   */\n      tag_228\n        /* \"#utility.yul\":8291:8299   */\n      dup7\n        /* \"#utility.yul\":8280:8289   */\n      dup4\n        /* \"#utility.yul\":8261:8300   */\n      tag_123\n      jump\t// in\n    tag_228:\n        /* \"#utility.yul\":8249:8300   */\n      swap6\n      pop\n        /* \"#utility.yul\":8333:8337   */\n      dup1\n        /* \"#utility.yul\":8329:8338   */\n      not\n        /* \"#utility.yul\":8322:8327   */\n      dup5\n        /* \"#utility.yul\":8318:8339   */\n      and\n        /* \"#utility.yul\":8309:8339   */\n      swap4\n      pop\n        /* \"#utility.yul\":8382:8386   */\n      dup1\n        /* \"#utility.yul\":8372:8380   */\n      dup7\n        /* \"#utility.yul\":8368:8387   */\n      and\n        /* \"#utility.yul\":8361:8366   */\n      dup5\n        /* \"#utility.yul\":8358:8388   */\n      or\n        /* \"#utility.yul\":8348:8388   */\n      swap3\n      pop\n        /* \"#utility.yul\":8077:8394   */\n      pop\n      pop\n        /* \"#utility.yul\":8001:8394   */\n      swap4\n      swap3\n      pop\n      pop\n      pop\n      jump\t// out\n        /* \"#utility.yul\":8400:8460   */\n    tag_125:\n        /* \"#utility.yul\":8428:8431   */\n      0x00\n        /* \"#utility.yul\":8449:8454   */\n      dup2\n        /* \"#utility.yul\":8442:8454   */\n      swap1\n      pop\n        /* \"#utility.yul\":8400:8460   */\n      swap2\n      swap1\n      pop\n      jump\t// out\n        /* \"#utility.yul\":8466:8608   */\n    tag_126:\n        /* \"#utility.yul\":8516:8525   */\n      0x00\n        /* \"#utility.yul\":8549:8602   */\n      tag_231\n        /* \"#utility.yul\":8567:8601   */\n      tag_232\n        /* \"#utility.yul\":8576:8600   */\n      tag_233\n        /* \"#utility.yul\":8594:8599   */\n      dup5\n        /* \"#utility.yul\":8576:8600   */\n      tag_98\n      jump\t// in\n    tag_233:\n        /* \"#utility.yul\":8567:8601   */\n      tag_125\n      jump\t// in\n    tag_232:\n        /* \"#utility.yul\":8549:8602   */\n      tag_98\n      jump\t// in\n    tag_231:\n        /* \"#utility.yul\":8536:8602   */\n      swap1\n      pop\n        /* \"#utility.yul\":8466:8608   */\n      swap2\n      swap1\n      pop\n      jump\t// out\n        /* \"#utility.yul\":8614:8689   */\n    tag_127:\n        /* \"#utility.yul\":8657:8660   */\n      0x00\n        /* \"#utility.yul\":8678:8683   */\n      dup2\n        /* \"#utility.yul\":8671:8683   */\n      swap1\n      pop\n        /* \"#utility.yul\":8614:8689   */\n      swap2\n      swap1\n      pop\n      jump\t// out\n        /* \"#utility.yul\":8695:8964   */\n    tag_128:\n        /* \"#utility.yul\":8805:8844   */\n      tag_236\n        /* \"#utility.yul\":8836:8843   */\n      dup4\n        /* \"#utility.yul\":8805:8844   */\n      tag_126\n      jump\t// in\n    tag_236:\n        /* \"#utility.yul\":8866:8957   */\n      tag_237\n        /* \"#utility.yul\":8915:8956   */\n      tag_238\n        /* \"#utility.yul\":8939:8955   */\n      dup3\n        /* \"#utility.yul\":8915:8956   */\n      tag_127\n      jump\t// in\n    tag_238:\n        /* \"#utility.yul\":8907:8913   */\n      dup5\n        /* \"#utility.yul\":8900:8904   */\n      dup5\n        /* \"#utility.yul\":8894:8905   */\n      sload\n        /* \"#utility.yul\":8866:8957   */\n      tag_124\n      jump\t// in\n    tag_237:\n        /* \"#utility.yul\":8860:8864   */\n      dup3\n        /* \"#utility.yul\":8853:8958   */\n      sstore\n        /* \"#utility.yul\":8771:8964   */\n      pop\n        /* \"#utility.yul\":8695:8964   */\n      pop\n      pop\n      pop\n      jump\t// out\n        /* \"#utility.yul\":8970:9043   */\n    tag_129:\n        /* \"#utility.yul\":9015:9018   */\n      0x00\n        /* \"#utility.yul\":8970:9043   */\n      swap1\n      jump\t// out\n        /* \"#utility.yul\":9049:9238   */\n    tag_130:\n        /* \"#utility.yul\":9126:9158   */\n      tag_241\n      tag_129\n      jump\t// in\n    tag_241:\n        /* \"#utility.yul\":9167:9232   */\n      tag_242\n        /* \"#utility.yul\":9225:9231   */\n      dup2\n        /* \"#utility.yul\":9217:9223   */\n      dup5\n        /* \"#utility.yul\":9211:9215   */\n      dup5\n        /* \"#utility.yul\":9167:9232   */\n      tag_128\n      jump\t// in\n    tag_242:\n        /* \"#utility.yul\":9102:9238   */\n      pop\n        /* \"#utility.yul\":9049:9238   */\n      pop\n      pop\n      jump\t// out\n        /* \"#utility.yul\":9244:9430   */\n    tag_131:\n        /* \"#utility.yul\":9304:9424   */\n    tag_244:\n        /* \"#utility.yul\":9321:9324   */\n      dup2\n        /* \"#utility.yul\":9314:9319   */\n      dup2\n        /* \"#utility.yul\":9311:9325   */\n      lt\n        /* \"#utility.yul\":9304:9424   */\n      iszero\n      tag_246\n      jumpi\n        /* \"#utility.yul\":9375:9414   */\n      tag_247\n        /* \"#utility.yul\":9412:9413   */\n      0x00\n        /* \"#utility.yul\":9405:9410   */\n      dup3\n        /* \"#utility.yul\":9375:9414   */\n      tag_130\n      jump\t// in\n    tag_247:\n        /* \"#utility.yul\":9348:9349   */\n      0x01\n        /* \"#utility.yul\":9341:9346   */\n      dup2\n        /* \"#utility.yul\":9337:9350   */\n      add\n        /* \"#utility.yul\":9328:9350   */\n      swap1\n      pop\n        /* \"#utility.yul\":9304:9424   */\n      jump(tag_244)\n    tag_246:\n        /* \"#utility.yul\":9244:9430   */\n      pop\n      pop\n      jump\t// out\n        /* \"#utility.yul\":9436:9979   */\n    tag_132:\n        /* \"#utility.yul\":9537:9539   */\n      0x1f\n        /* \"#utility.yul\":9532:9535   */\n      dup3\n        /* \"#utility.yul\":9529:9540   */\n      gt\n        /* \"#utility.yul\":9526:9972   */\n      iszero\n      tag_249\n      jumpi\n        /* \"#utility.yul\":9571:9609   */\n      tag_250\n        /* \"#utility.yul\":9603:9608   */\n      dup2\n        /* \"#utility.yul\":9571:9609   */\n      tag_121\n      jump\t// in\n    tag_250:\n        /* \"#utility.yul\":9655:9684   */\n      tag_251\n        /* \"#utility.yul\":9673:9683   */\n      dup5\n        /* \"#utility.yul\":9655:9684   */\n      tag_122\n      jump\t// in\n    tag_251:\n        /* \"#utility.yul\":9645:9653   */\n      dup2\n        /* \"#utility.yul\":9641:9685   */\n      add\n        /* \"#utility.yul\":9838:9840   */\n      0x20\n        /* \"#utility.yul\":9826:9836   */\n      dup6\n        /* \"#utility.yul\":9823:9841   */\n      lt\n        /* \"#utility.yul\":9820:9869   */\n      iszero\n      tag_252\n      jumpi\n        /* \"#utility.yul\":9859:9867   */\n      dup2\n        /* \"#utility.yul\":9844:9867   */\n      swap1\n      pop\n        /* \"#utility.yul\":9820:9869   */\n    tag_252:\n        /* \"#utility.yul\":9882:9962   */\n      tag_253\n        /* \"#utility.yul\":9938:9960   */\n      tag_254\n        /* \"#utility.yul\":9956:9959   */\n      dup6\n        /* \"#utility.yul\":9938:9960   */\n      tag_122\n      jump\t// in\n    tag_254:\n        /* \"#utility.yul\":9928:9936   */\n      dup4\n        /* \"#utility.yul\":9924:9961   */\n      add\n        /* \"#utility.yul\":9911:9922   */\n      dup3\n        /* \"#utility.yul\":9882:9962   */\n      tag_131\n      jump\t// in\n    tag_253:\n        /* \"#utility.yul\":9541:9972   */\n      pop\n      pop\n        /* \"#utility.yul\":9526:9972   */\n    tag_249:\n        /* \"#utility.yul\":9436:9979   */\n      pop\n      pop\n      pop\n      jump\t// out\n        /* \"#utility.yul\":9985:10102   */\n    tag_133:\n        /* \"#utility.yul\":10039:10047   */\n      0x00\n        /* \"#utility.yul\":10089:10094   */\n      dup3\n        /* \"#utility.yul\":10083:10087   */\n      dup3\n        /* \"#utility.yul\":10079:10095   */\n      shr\n        /* \"#utility.yul\":10058:10095   */\n      swap1\n      pop\n        /* \"#utility.yul\":9985:10102   */\n      swap3\n      swap2\n      pop\n      pop\n      jump\t// out\n        /* \"#utility.yul\":10108:10277   */\n    tag_134:\n        /* \"#utility.yul\":10152:10158   */\n      0x00\n        /* \"#utility.yul\":10185:10236   */\n      tag_257\n        /* \"#utility.yul\":10233:10234   */\n      0x00\n        /* \"#utility.yul\":10229:10235   */\n      not\n        /* \"#utility.yul\":10221:10226   */\n      dup5\n        /* \"#utility.yul\":10218:10219   */\n      0x08\n        /* \"#utility.yul\":10214:10227   */\n      mul\n        /* \"#utility.yul\":10185:10236   */\n      tag_133\n      jump\t// in\n    tag_257:\n        /* \"#utility.yul\":10181:10237   */\n      not\n        /* \"#utility.yul\":10266:10270   */\n      dup1\n        /* \"#utility.yul\":10260:10264   */\n      dup4\n        /* \"#utility.yul\":10256:10271   */\n      and\n        /* \"#utility.yul\":10246:10271   */\n      swap2\n      pop\n        /* \"#utility.yul\":10159:10277   */\n      pop\n        /* \"#utility.yul\":10108:10277   */\n      swap3\n      swap2\n      pop\n      pop\n      jump\t// out\n        /* \"#utility.yul\":10282:10577   */\n    tag_135:\n        /* \"#utility.yul\":10358:10362   */\n      0x00\n        /* \"#utility.yul\":10504:10533   */\n      tag_259\n        /* \"#utility.yul\":10529:10532   */\n      dup4\n        /* \"#utility.yul\":10523:10527   */\n      dup4\n        /* \"#utility.yul\":10504:10533   */\n      tag_134\n      jump\t// in\n    tag_259:\n        /* \"#utility.yul\":10496:10533   */\n      swap2\n      pop\n        /* \"#utility.yul\":10566:10569   */\n      dup3\n        /* \"#utility.yul\":10563:10564   */\n      0x02\n        /* \"#utility.yul\":10559:10570   */\n      mul\n        /* \"#utility.yul\":10553:10557   */\n      dup3\n        /* \"#utility.yul\":10550:10571   */\n      or\n        /* \"#utility.yul\":10542:10571   */\n      swap1\n      pop\n        /* \"#utility.yul\":10282:10577   */\n      swap3\n      swap2\n      pop\n      pop\n      jump\t// out\n        /* \"#utility.yul\":10582:11977   */\n    tag_60:\n        /* \"#utility.yul\":10699:10736   */\n      tag_261\n        /* \"#utility.yul\":10732:10735   */\n      dup3\n        /* \"#utility.yul\":10699:10736   */\n      tag_114\n      jump\t// in\n    tag_261:\n        /* \"#utility.yul\":10801:10819   */\n      0xffffffffffffffff\n        /* \"#utility.yul\":10793:10799   */\n      dup2\n        /* \"#utility.yul\":10790:10820   */\n      gt\n        /* \"#utility.yul\":10787:10843   */\n      iszero\n      tag_262\n      jumpi\n        /* \"#utility.yul\":10823:10841   */\n      tag_263\n      tag_107\n      jump\t// in\n    tag_263:\n        /* \"#utility.yul\":10787:10843   */\n    tag_262:\n        /* \"#utility.yul\":10867:10905   */\n      tag_264\n        /* \"#utility.yul\":10899:10903   */\n      dup3\n        /* \"#utility.yul\":10893:10904   */\n      sload\n        /* \"#utility.yul\":10867:10905   */\n      tag_69\n      jump\t// in\n    tag_264:\n        /* \"#utility.yul\":10952:11019   */\n      tag_265\n        /* \"#utility.yul\":11012:11018   */\n      dup3\n        /* \"#utility.yul\":11004:11010   */\n      dup3\n        /* \"#utility.yul\":10998:11002   */\n      dup6\n        /* \"#utility.yul\":10952:11019   */\n      tag_132\n      jump\t// in\n    tag_265:\n        /* \"#utility.yul\":11046:11047   */\n      0x00\n        /* \"#utility.yul\":11070:11074   */\n      0x20\n        /* \"#utility.yul\":11057:11074   */\n      swap1\n      pop\n        /* \"#utility.yul\":11102:11104   */\n      0x1f\n        /* \"#utility.yul\":11094:11100   */\n      dup4\n        /* \"#utility.yul\":11091:11105   */\n      gt\n        /* \"#utility.yul\":11119:11120   */\n      0x01\n        /* \"#utility.yul\":11114:11732   */\n      dup2\n      eq\n      tag_267\n      jumpi\n        /* \"#utility.yul\":11776:11777   */\n      0x00\n        /* \"#utility.yul\":11793:11799   */\n      dup5\n        /* \"#utility.yul\":11790:11867   */\n      iszero\n      tag_268\n      jumpi\n        /* \"#utility.yul\":11842:11851   */\n      dup3\n        /* \"#utility.yul\":11837:11840   */\n      dup8\n        /* \"#utility.yul\":11833:11852   */\n      add\n        /* \"#utility.yul\":11827:11853   */\n      mload\n        /* \"#utility.yul\":11818:11853   */\n      swap1\n      pop\n        /* \"#utility.yul\":11790:11867   */\n    tag_268:\n        /* \"#utility.yul\":11893:11960   */\n      tag_269\n        /* \"#utility.yul\":11953:11959   */\n      dup6\n        /* \"#utility.yul\":11946:11951   */\n      dup3\n        /* \"#utility.yul\":11893:11960   */\n      tag_135\n      jump\t// in\n    tag_269:\n        /* \"#utility.yul\":11887:11891   */\n      dup7\n        /* \"#utility.yul\":11880:11961   */\n      sstore\n        /* \"#utility.yul\":11749:11971   */\n      pop\n        /* \"#utility.yul\":11084:11971   */\n      jump(tag_266)\n        /* \"#utility.yul\":11114:11732   */\n    tag_267:\n        /* \"#utility.yul\":11166:11170   */\n      0x1f\n        /* \"#utility.yul\":11162:11171   */\n      not\n        /* \"#utility.yul\":11154:11160   */\n      dup5\n        /* \"#utility.yul\":11150:11172   */\n      and\n        /* \"#utility.yul\":11200:11237   */\n      tag_270\n        /* \"#utility.yul\":11232:11236   */\n      dup7\n        /* \"#utility.yul\":11200:11237   */\n      tag_121\n      jump\t// in\n    tag_270:\n        /* \"#utility.yul\":11259:11260   */\n      0x00\n        /* \"#utility.yul\":11273:11481   */\n    tag_271:\n        /* \"#utility.yul\":11287:11294   */\n      dup3\n        /* \"#utility.yul\":11284:11285   */\n      dup2\n        /* \"#utility.yul\":11281:11295   */\n      lt\n        /* \"#utility.yul\":11273:11481   */\n      iszero\n      tag_273\n      jumpi\n        /* \"#utility.yul\":11366:11375   */\n      dup5\n        /* \"#utility.yul\":11361:11364   */\n      dup10\n        /* \"#utility.yul\":11357:11376   */\n      add\n        /* \"#utility.yul\":11351:11377   */\n      mload\n        /* \"#utility.yul\":11343:11349   */\n      dup3\n        /* \"#utility.yul\":11336:11378   */\n      sstore\n        /* \"#utility.yul\":11417:11418   */\n      0x01\n        /* \"#utility.yul\":11409:11415   */\n      dup3\n        /* \"#utility.yul\":11405:11419   */\n      add\n        /* \"#utility.yul\":11395:11419   */\n      swap2\n      pop\n        /* \"#utility.yul\":11464:11466   */\n      0x20\n        /* \"#utility.yul\":11453:11462   */\n      dup6\n        /* \"#utility.yul\":11449:11467   */\n      add\n        /* \"#utility.yul\":11436:11467   */\n      swap5\n      pop\n        /* \"#utility.yul\":11310:11314   */\n      0x20\n        /* \"#utility.yul\":11307:11308   */\n      dup2\n        /* \"#utility.yul\":11303:11315   */\n      add\n        /* \"#utility.yul\":11298:11315   */\n      swap1\n      pop\n        /* \"#utility.yul\":11273:11481   */\n      jump(tag_271)\n    tag_273:\n        /* \"#utility.yul\":11509:11515   */\n      dup7\n        /* \"#utility.yul\":11500:11507   */\n      dup4\n        /* \"#utility.yul\":11497:11516   */\n      lt\n        /* \"#utility.yul\":11494:11673   */\n      iszero\n      tag_274\n      jumpi\n        /* \"#utility.yul\":11567:11576   */\n      dup5\n        /* \"#utility.yul\":11562:11565   */\n      dup10\n        /* \"#utility.yul\":11558:11577   */\n      add\n        /* \"#utility.yul\":11552:11578   */\n      mload\n        /* \"#utility.yul\":11610:11658   */\n      tag_275\n        /* \"#utility.yul\":11652:11656   */\n      0x1f\n        /* \"#utility.yul\":11644:11650   */\n      dup10\n        /* \"#utility.yul\":11640:11657   */\n      and\n        /* \"#utility.yul\":11629:11638   */\n      dup3\n        /* \"#utility.yul\":11610:11658   */\n      tag_134\n      jump\t// in\n    tag_275:\n        /* \"#utility.yul\":11602:11608   */\n      dup4\n        /* \"#utility.yul\":11595:11659   */\n      sstore\n        /* \"#utility.yul\":11517:11673   */\n      pop\n        /* \"#utility.yul\":11494:11673   */\n    tag_274:\n        /* \"#utility.yul\":11719:11720   */\n      0x01\n        /* \"#utility.yul\":11715:11716   */\n      0x02\n        /* \"#utility.yul\":11707:11713   */\n      dup9\n        /* \"#utility.yul\":11703:11717   */\n      mul\n        /* \"#utility.yul\":11699:11721   */\n      add\n        /* \"#utility.yul\":11693:11697   */\n      dup9\n        /* \"#utility.yul\":11686:11722   */\n      sstore\n        /* \"#utility.yul\":11121:11732   */\n      pop\n      pop\n      pop\n        /* \"#utility.yul\":11084:11971   */\n    tag_266:\n      pop\n        /* \"#utility.yul\":10674:11977   */\n      pop\n      pop\n      pop\n        /* \"#utility.yul\":10582:11977   */\n      pop\n      pop\n      jump\t// out\n\n    auxdata: 0xa2646970667358221220d2b26b13266621b4195cd4716bb88f6fa6efc1f2285c47f7bb2d2ec95f7e58ea64736f6c634300081a0033\n}\n",
				"bytecode": {
					"linkReferences": {},
					"object": "6080604052348015600e575f80fd5b50610c608061001c5f395ff3fe608060405234801561000f575f80fd5b5060043610610086575f3560e01c806380c9419e1161005957806380c9419e146100fa57806384fe49ad1461012b5780639507d39a1461015c578063b6a46b3b1461018d57610086565b8063387008c21461008a5780633ea2ea7a146100a657806353e76f2c146100c25780635de79c8e146100de575b5f80fd5b6100a4600480360381019061009f9190610629565b6101bd565b005b6100c060048036038101906100bb9190610667565b6101fa565b005b6100dc60048036038101906100d791906107ce565b61024c565b005b6100f860048036038101906100f391906107ce565b61027f565b005b610114600480360381019061010f9190610667565b6102b7565b604051610122929190610897565b60405180910390f35b61014560048036038101906101409190610667565b610377565b604051610153929190610897565b60405180910390f35b61017660048036038101906101719190610667565b610444565b604051610184929190610897565b60405180910390f35b6101a760048036038101906101a291906108c5565b610530565b6040516101b4919061091b565b60405180910390f35b805f83815481106101d1576101d0610934565b5b905f5260205f2090600202016001015f6101000a81548160ff0219169083151502179055505050565b5f80828154811061020e5761020d610934565b5b905f5260205f2090600202019050806001015f9054906101000a900460ff1615816001015f6101000a81548160ff0219169083151502179055505050565b805f83815481106102605761025f610934565b5b905f5260205f2090600202015f01908161027a9190610b5b565b505050565b5f80838154811061029357610292610934565b5b905f5260205f209060020201905081815f0190816102b19190610b5b565b50505050565b5f81815481106102c5575f80fd5b905f5260205f2090600202015f91509050805f0180546102e49061098e565b80601f01602080910402602001604051908101604052809291908181526020018280546103109061098e565b801561035b5780601f106103325761010080835404028352916020019161035b565b820191905f5260205f20905b81548152906001019060200180831161033e57829003601f168201915b505050505090806001015f9054906101000a900460ff16905082565b60605f805f848154811061038e5761038d610934565b5b905f5260205f2090600202019050805f01816001015f9054906101000a900460ff168180546103bc9061098e565b80601f01602080910402602001604051908101604052809291908181526020018280546103e89061098e565b80156104335780601f1061040a57610100808354040283529160200191610433565b820191905f5260205f20905b81548152906001019060200180831161041657829003601f168201915b505050505091509250925050915091565b60605f805f848154811061045b5761045a610934565b5b905f5260205f2090600202016040518060400160405290815f820180546104819061098e565b80601f01602080910402602001604051908101604052809291908181526020018280546104ad9061098e565b80156104f85780601f106104cf576101008083540402835291602001916104f8565b820191905f5260205f20905b8154815290600101906020018083116104db57829003601f168201915b50505050508152602001600182015f9054906101000a900460ff1615151515815250509050805f015181602001519250925050915091565b5f8060405180604001604052808481526020015f1515815250908060018154018082558091505060019003905f5260205f2090600202015f909190919091505f820151815f0190816105829190610b5b565b506020820151816001015f6101000a81548160ff02191690831515021790555050505f805490509050919050565b5f604051905090565b5f80fd5b5f80fd5b5f819050919050565b6105d3816105c1565b81146105dd575f80fd5b50565b5f813590506105ee816105ca565b92915050565b5f8115159050919050565b610608816105f4565b8114610612575f80fd5b50565b5f81359050610623816105ff565b92915050565b5f806040838503121561063f5761063e6105b9565b5b5f61064c858286016105e0565b925050602061065d85828601610615565b9150509250929050565b5f6020828403121561067c5761067b6105b9565b5b5f610689848285016105e0565b91505092915050565b5f80fd5b5f80fd5b5f601f19601f8301169050919050565b7f4e487b71000000000000000000000000000000000000000000000000000000005f52604160045260245ffd5b6106e08261069a565b810181811067ffffffffffffffff821117156106ff576106fe6106aa565b5b80604052505050565b5f6107116105b0565b905061071d82826106d7565b919050565b5f67ffffffffffffffff82111561073c5761073b6106aa565b5b6107458261069a565b9050602081019050919050565b828183375f83830152505050565b5f61077261076d84610722565b610708565b90508281526020810184848401111561078e5761078d610696565b5b610799848285610752565b509392505050565b5f82601f8301126107b5576107b4610692565b5b81356107c5848260208601610760565b91505092915050565b5f80604083850312156107e4576107e36105b9565b5b5f6107f1858286016105e0565b925050602083013567ffffffffffffffff811115610812576108116105bd565b5b61081e858286016107a1565b9150509250929050565b5f81519050919050565b5f82825260208201905092915050565b8281835e5f83830152505050565b5f61085a82610828565b6108648185610832565b9350610874818560208601610842565b61087d8161069a565b840191505092915050565b610891816105f4565b82525050565b5f6040820190508181035f8301526108af8185610850565b90506108be6020830184610888565b9392505050565b5f602082840312156108da576108d96105b9565b5b5f82013567ffffffffffffffff8111156108f7576108f66105bd565b5b610903848285016107a1565b91505092915050565b610915816105c1565b82525050565b5f60208201905061092e5f83018461090c565b92915050565b7f4e487b71000000000000000000000000000000000000000000000000000000005f52603260045260245ffd5b7f4e487b71000000000000000000000000000000000000000000000000000000005f52602260045260245ffd5b5f60028204905060018216806109a557607f821691505b6020821081036109b8576109b7610961565b5b50919050565b5f819050815f5260205f209050919050565b5f6020601f8301049050919050565b5f82821b905092915050565b5f60088302610a1a7fffffffffffffffffffffffffffffffffffffffffffffffffffffffffffffffff826109df565b610a2486836109df565b95508019841693508086168417925050509392505050565b5f819050919050565b5f610a5f610a5a610a55846105c1565b610a3c565b6105c1565b9050919050565b5f819050919050565b610a7883610a45565b610a8c610a8482610a66565b8484546109eb565b825550505050565b5f90565b610aa0610a94565b610aab818484610a6f565b505050565b5b81811015610ace57610ac35f82610a98565b600181019050610ab1565b5050565b601f821115610b1357610ae4816109be565b610aed846109d0565b81016020851015610afc578190505b610b10610b08856109d0565b830182610ab0565b50505b505050565b5f82821c905092915050565b5f610b335f1984600802610b18565b1980831691505092915050565b5f610b4b8383610b24565b9150826002028217905092915050565b610b6482610828565b67ffffffffffffffff811115610b7d57610b7c6106aa565b5b610b87825461098e565b610b92828285610ad2565b5f60209050601f831160018114610bc3575f8415610bb1578287015190505b610bbb8582610b40565b865550610c22565b601f198416610bd1866109be565b5f5b82811015610bf857848901518255600182019150602085019450602081019050610bd3565b86831015610c155784890151610c11601f891682610b24565b8355505b6001600288020188555050505b50505050505056fea2646970667358221220d2b26b13266621b4195cd4716bb88f6fa6efc1f2285c47f7bb2d2ec95f7e58ea64736f6c634300081a0033",
					"opcodes": "PUSH1 0x80 PUSH1 0x40 MSTORE CALLVALUE DUP1 ISZERO PUSH1 0xE JUMPI PUSH0 DUP1 REVERT JUMPDEST POP PUSH2 0xC60 DUP1 PUSH2 0x1C PUSH0 CODECOPY PUSH0 RETURN INVALID PUSH1 0x80 PUSH1 0x40 MSTORE CALLVALUE DUP1 ISZERO PUSH2 0xF JUMPI PUSH0 DUP1 REVERT JUMPDEST POP PUSH1 0x4 CALLDATASIZE LT PUSH2 0x86 JUMPI PUSH0 CALLDATALOAD PUSH1 0xE0 SHR DUP1 PUSH4 0x80C9419E GT PUSH2 0x59 JUMPI DUP1 PUSH4 0x80C9419E EQ PUSH2 0xFA JUMPI DUP1 PUSH4 0x84FE49AD EQ PUSH2 0x12B JUMPI DUP1 PUSH4 0x9507D39A EQ PUSH2 0x15C JUMPI DUP1 PUSH4 0xB6A46B3B EQ PUSH2 0x18D JUMPI PUSH2 0x86 JUMP JUMPDEST DUP1 PUSH4 0x387008C2 EQ PUSH2 0x8A JUMPI DUP1 PUSH4 0x3EA2EA7A EQ PUSH2 0xA6 JUMPI DUP1 PUSH4 0x53E76F2C EQ PUSH2 0xC2 JUMPI DUP1 PUSH4 0x5DE79C8E EQ PUSH2 0xDE JUMPI JUMPDEST PUSH0 DUP1 REVERT JUMPDEST PUSH2 0xA4 PUSH1 0x4 DUP1 CALLDATASIZE SUB DUP2 ADD SWAP1 PUSH2 0x9F SWAP2 SWAP1 PUSH2 0x629 JUMP JUMPDEST PUSH2 0x1BD JUMP JUMPDEST STOP JUMPDEST PUSH2 0xC0 PUSH1 0x4 DUP1 CALLDATASIZE SUB DUP2 ADD SWAP1 PUSH2 0xBB SWAP2 SWAP1 PUSH2 0x667 JUMP JUMPDEST PUSH2 0x1FA JUMP JUMPDEST STOP JUMPDEST PUSH2 0xDC PUSH1 0x4 DUP1 CALLDATASIZE SUB DUP2 ADD SWAP1 PUSH2 0xD7 SWAP2 SWAP1 PUSH2 0x7CE JUMP JUMPDEST PUSH2 0x24C JUMP JUMPDEST STOP JUMPDEST PUSH2 0xF8 PUSH1 0x4 DUP1 CALLDATASIZE SUB DUP2 ADD SWAP1 PUSH2 0xF3 SWAP2 SWAP1 PUSH2 0x7CE JUMP JUMPDEST PUSH2 0x27F JUMP JUMPDEST STOP JUMPDEST PUSH2 0x114 PUSH1 0x4 DUP1 CALLDATASIZE SUB DUP2 ADD SWAP1 PUSH2 0x10F SWAP2 SWAP1 PUSH2 0x667 JUMP JUMPDEST PUSH2 0x2B7 JUMP JUMPDEST PUSH1 0x40 MLOAD PUSH2 0x122 SWAP3 SWAP2 SWAP1 PUSH2 0x897 JUMP JUMPDEST PUSH1 0x40 MLOAD DUP1 SWAP2 SUB SWAP1 RETURN JUMPDEST PUSH2 0x145 PUSH1 0x4 DUP1 CALLDATASIZE SUB DUP2 ADD SWAP1 PUSH2 0x140 SWAP2 SWAP1 PUSH2 0x667 JUMP JUMPDEST PUSH2 0x377 JUMP JUMPDEST PUSH1 0x40 MLOAD PUSH2 0x153 SWAP3 SWAP2 SWAP1 PUSH2 0x897 JUMP JUMPDEST PUSH1 0x40 MLOAD DUP1 SWAP2 SUB SWAP1 RETURN JUMPDEST PUSH2 0x176 PUSH1 0x4 DUP1 CALLDATASIZE SUB DUP2 ADD SWAP1 PUSH2 0x171 SWAP2 SWAP1 PUSH2 0x667 JUMP JUMPDEST PUSH2 0x444 JUMP JUMPDEST PUSH1 0x40 MLOAD PUSH2 0x184 SWAP3 SWAP2 SWAP1 PUSH2 0x897 JUMP JUMPDEST PUSH1 0x40 MLOAD DUP1 SWAP2 SUB SWAP1 RETURN JUMPDEST PUSH2 0x1A7 PUSH1 0x4 DUP1 CALLDATASIZE SUB DUP2 ADD SWAP1 PUSH2 0x1A2 SWAP2 SWAP1 PUSH2 0x8C5 JUMP JUMPDEST PUSH2 0x530 JUMP JUMPDEST PUSH1 0x40 MLOAD PUSH2 0x1B4 SWAP2 SWAP1 PUSH2 0x91B JUMP JUMPDEST PUSH1 0x40 MLOAD DUP1 SWAP2 SUB SWAP1 RETURN JUMPDEST DUP1 PUSH0 DUP4 DUP2 SLOAD DUP2 LT PUSH2 0x1D1 JUMPI PUSH2 0x1D0 PUSH2 0x934 JUMP JUMPDEST JUMPDEST SWAP1 PUSH0 MSTORE PUSH1 0x20 PUSH0 KECCAK256 SWAP1 PUSH1 0x2 MUL ADD PUSH1 0x1 ADD PUSH0 PUSH2 0x100 EXP DUP2 SLOAD DUP2 PUSH1 0xFF MUL NOT AND SWAP1 DUP4 ISZERO ISZERO MUL OR SWAP1 SSTORE POP POP POP JUMP JUMPDEST PUSH0 DUP1 DUP3 DUP2 SLOAD DUP2 LT PUSH2 0x20E JUMPI PUSH2 0x20D PUSH2 0x934 JUMP JUMPDEST JUMPDEST SWAP1 PUSH0 MSTORE PUSH1 0x20 PUSH0 KECCAK256 SWAP1 PUSH1 0x2 MUL ADD SWAP1 POP DUP1 PUSH1 0x1 ADD PUSH0 SWAP1 SLOAD SWAP1 PUSH2 0x100 EXP SWAP1 DIV PUSH1 0xFF AND ISZERO DUP2 PUSH1 0x1 ADD PUSH0 PUSH2 0x100 EXP DUP2 SLOAD DUP2 PUSH1 0xFF MUL NOT AND SWAP1 DUP4 ISZERO ISZERO MUL OR SWAP1 SSTORE POP POP POP JUMP JUMPDEST DUP1 PUSH0 DUP4 DUP2 SLOAD DUP2 LT PUSH2 0x260 JUMPI PUSH2 0x25F PUSH2 0x934 JUMP JUMPDEST JUMPDEST SWAP1 PUSH0 MSTORE PUSH1 0x20 PUSH0 KECCAK256 SWAP1 PUSH1 0x2 MUL ADD PUSH0 ADD SWAP1 DUP2 PUSH2 0x27A SWAP2 SWAP1 PUSH2 0xB5B JUMP JUMPDEST POP POP POP JUMP JUMPDEST PUSH0 DUP1 DUP4 DUP2 SLOAD DUP2 LT PUSH2 0x293 JUMPI PUSH2 0x292 PUSH2 0x934 JUMP JUMPDEST JUMPDEST SWAP1 PUSH0 MSTORE PUSH1 0x20 PUSH0 KECCAK256 SWAP1 PUSH1 0x2 MUL ADD SWAP1 POP DUP2 DUP2 PUSH0 ADD SWAP1 DUP2 PUSH2 0x2B1 SWAP2 SWAP1 PUSH2 0xB5B JUMP JUMPDEST POP POP POP POP JUMP JUMPDEST PUSH0 DUP2 DUP2 SLOAD DUP2 LT PUSH2 0x2C5 JUMPI PUSH0 DUP1 REVERT JUMPDEST SWAP1 PUSH0 MSTORE PUSH1 0x20 PUSH0 KECCAK256 SWAP1 PUSH1 0x2 MUL ADD PUSH0 SWAP2 POP SWAP1 POP DUP1 PUSH0 ADD DUP1 SLOAD PUSH2 0x2E4 SWAP1 PUSH2 0x98E JUMP JUMPDEST DUP1 PUSH1 0x1F ADD PUSH1 0x20 DUP1 SWAP2 DIV MUL PUSH1 0x20 ADD PUSH1 0x40 MLOAD SWAP1 DUP2 ADD PUSH1 0x40 MSTORE DUP1 SWAP3 SWAP2 SWAP1 DUP2 DUP2 MSTORE PUSH1 0x20 ADD DUP3 DUP1 SLOAD PUSH2 0x310 SWAP1 PUSH2 0x98E JUMP JUMPDEST DUP1 ISZERO PUSH2 0x35B JUMPI DUP1 PUSH1 0x1F LT PUSH2 0x332 JUMPI PUSH2 0x100 DUP1 DUP4 SLOAD DIV MUL DUP4 MSTORE SWAP2 PUSH1 0x20 ADD SWAP2 PUSH2 0x35B JUMP JUMPDEST DUP3 ADD SWAP2 SWAP1 PUSH0 MSTORE PUSH1 0x20 PUSH0 KECCAK256 SWAP1 JUMPDEST DUP2 SLOAD DUP2 MSTORE SWAP1 PUSH1 0x1 ADD SWAP1 PUSH1 0x20 ADD DUP1 DUP4 GT PUSH2 0x33E JUMPI DUP3 SWAP1 SUB PUSH1 0x1F AND DUP3 ADD SWAP2 JUMPDEST POP POP POP POP POP SWAP1 DUP1 PUSH1 0x1 ADD PUSH0 SWAP1 SLOAD SWAP1 PUSH2 0x100 EXP SWAP1 DIV PUSH1 0xFF AND SWAP1 POP DUP3 JUMP JUMPDEST PUSH1 0x60 PUSH0 DUP1 PUSH0 DUP5 DUP2 SLOAD DUP2 LT PUSH2 0x38E JUMPI PUSH2 0x38D PUSH2 0x934 JUMP JUMPDEST JUMPDEST SWAP1 PUSH0 MSTORE PUSH1 0x20 PUSH0 KECCAK256 SWAP1 PUSH1 0x2 MUL ADD SWAP1 POP DUP1 PUSH0 ADD DUP2 PUSH1 0x1 ADD PUSH0 SWAP1 SLOAD SWAP1 PUSH2 0x100 EXP SWAP1 DIV PUSH1 0xFF AND DUP2 DUP1 SLOAD PUSH2 0x3BC SWAP1 PUSH2 0x98E JUMP JUMPDEST DUP1 PUSH1 0x1F ADD PUSH1 0x20 DUP1 SWAP2 DIV MUL PUSH1 0x20 ADD PUSH1 0x40 MLOAD SWAP1 DUP2 ADD PUSH1 0x40 MSTORE DUP1 SWAP3 SWAP2 SWAP1 DUP2 DUP2 MSTORE PUSH1 0x20 ADD DUP3 DUP1 SLOAD PUSH2 0x3E8 SWAP1 PUSH2 0x98E JUMP JUMPDEST DUP1 ISZERO PUSH2 0x433 JUMPI DUP1 PUSH1 0x1F LT PUSH2 0x40A JUMPI PUSH2 0x100 DUP1 DUP4 SLOAD DIV MUL DUP4 MSTORE SWAP2 PUSH1 0x20 ADD SWAP2 PUSH2 0x433 JUMP JUMPDEST DUP3 ADD SWAP2 SWAP1 PUSH0 MSTORE PUSH1 0x20 PUSH0 KECCAK256 SWAP1 JUMPDEST DUP2 SLOAD DUP2 MSTORE SWAP1 PUSH1 0x1 ADD SWAP1 PUSH1 0x20 ADD DUP1 DUP4 GT PUSH2 0x416 JUMPI DUP3 SWAP1 SUB PUSH1 0x1F AND DUP3 ADD SWAP2 JUMPDEST POP POP POP POP POP SWAP2 POP SWAP3 POP SWAP3 POP POP SWAP2 POP SWAP2 JUMP JUMPDEST PUSH1 0x60 PUSH0 DUP1 PUSH0 DUP5 DUP2 SLOAD DUP2 LT PUSH2 0x45B JUMPI PUSH2 0x45A PUSH2 0x934 JUMP JUMPDEST JUMPDEST SWAP1 PUSH0 MSTORE PUSH1 0x20 PUSH0 KECCAK256 SWAP1 PUSH1 0x2 MUL ADD PUSH1 0x40 MLOAD DUP1 PUSH1 0x40 ADD PUSH1 0x40 MSTORE SWAP1 DUP2 PUSH0 DUP3 ADD DUP1 SLOAD PUSH2 0x481 SWAP1 PUSH2 0x98E JUMP JUMPDEST DUP1 PUSH1 0x1F ADD PUSH1 0x20 DUP1 SWAP2 DIV MUL PUSH1 0x20 ADD PUSH1 0x40 MLOAD SWAP1 DUP2 ADD PUSH1 0x40 MSTORE DUP1 SWAP3 SWAP2 SWAP1 DUP2 DUP2 MSTORE PUSH1 0x20 ADD DUP3 DUP1 SLOAD PUSH2 0x4AD SWAP1 PUSH2 0x98E JUMP JUMPDEST DUP1 ISZERO PUSH2 0x4F8 JUMPI DUP1 PUSH1 0x1F LT PUSH2 0x4CF JUMPI PUSH2 0x100 DUP1 DUP4 SLOAD DIV MUL DUP4 MSTORE SWAP2 PUSH1 0x20 ADD SWAP2 PUSH2 0x4F8 JUMP JUMPDEST DUP3 ADD SWAP2 SWAP1 PUSH0 MSTORE PUSH1 0x20 PUSH0 KECCAK256 SWAP1 JUMPDEST DUP2 SLOAD DUP2 MSTORE SWAP1 PUSH1 0x1 ADD SWAP1 PUSH1 0x20 ADD DUP1 DUP4 GT PUSH2 0x4DB JUMPI DUP3 SWAP1 SUB PUSH1 0x1F AND DUP3 ADD SWAP2 JUMPDEST POP POP POP POP POP DUP2 MSTORE PUSH1 0x20 ADD PUSH1 0x1 DUP3 ADD PUSH0 SWAP1 SLOAD SWAP1 PUSH2 0x100 EXP SWAP1 DIV PUSH1 0xFF AND ISZERO ISZERO ISZERO ISZERO DUP2 MSTORE POP POP SWAP1 POP DUP1 PUSH0 ADD MLOAD DUP2 PUSH1 0x20 ADD MLOAD SWAP3 POP SWAP3 POP POP SWAP2 POP SWAP2 JUMP JUMPDEST PUSH0 DUP1 PUSH1 0x40 MLOAD DUP1 PUSH1 0x40 ADD PUSH1 0x40 MSTORE DUP1 DUP5 DUP2 MSTORE PUSH1 0x20 ADD PUSH0 ISZERO ISZERO DUP2 MSTORE POP SWAP1 DUP1 PUSH1 0x1 DUP2 SLOAD ADD DUP1 DUP3 SSTORE DUP1 SWAP2 POP POP PUSH1 0x1 SWAP1 SUB SWAP1 PUSH0 MSTORE PUSH1 0x20 PUSH0 KECCAK256 SWAP1 PUSH1 0x2 MUL ADD PUSH0 SWAP1 SWAP2 SWAP1 SWAP2 SWAP1 SWAP2 POP PUSH0 DUP3 ADD MLOAD DUP2 PUSH0 ADD SWAP1 DUP2 PUSH2 0x582 SWAP2 SWAP1 PUSH2 0xB5B JUMP JUMPDEST POP PUSH1 0x20 DUP3 ADD MLOAD DUP2 PUSH1 0x1 ADD PUSH0 PUSH2 0x100 EXP DUP2 SLOAD DUP2 PUSH1 0xFF MUL NOT AND SWAP1 DUP4 ISZERO ISZERO MUL OR SWAP1 SSTORE POP POP POP PUSH0 DUP1 SLOAD SWAP1 POP SWAP1 POP SWAP2 SWAP1 POP JUMP JUMPDEST PUSH0 PUSH1 0x40 MLOAD SWAP1 POP SWAP1 JUMP JUMPDEST PUSH0 DUP1 REVERT JUMPDEST PUSH0 DUP1 REVERT JUMPDEST PUSH0 DUP2 SWAP1 POP SWAP2 SWAP1 POP JUMP JUMPDEST PUSH2 0x5D3 DUP2 PUSH2 0x5C1 JUMP JUMPDEST DUP2 EQ PUSH2 0x5DD JUMPI PUSH0 DUP1 REVERT JUMPDEST POP JUMP JUMPDEST PUSH0 DUP2 CALLDATALOAD SWAP1 POP PUSH2 0x5EE DUP2 PUSH2 0x5CA JUMP JUMPDEST SWAP3 SWAP2 POP POP JUMP JUMPDEST PUSH0 DUP2 ISZERO ISZERO SWAP1 POP SWAP2 SWAP1 POP JUMP JUMPDEST PUSH2 0x608 DUP2 PUSH2 0x5F4 JUMP JUMPDEST DUP2 EQ PUSH2 0x612 JUMPI PUSH0 DUP1 REVERT JUMPDEST POP JUMP JUMPDEST PUSH0 DUP2 CALLDATALOAD SWAP1 POP PUSH2 0x623 DUP2 PUSH2 0x5FF JUMP JUMPDEST SWAP3 SWAP2 POP POP JUMP JUMPDEST PUSH0 DUP1 PUSH1 0x40 DUP4 DUP6 SUB SLT ISZERO PUSH2 0x63F JUMPI PUSH2 0x63E PUSH2 0x5B9 JUMP JUMPDEST JUMPDEST PUSH0 PUSH2 0x64C DUP6 DUP3 DUP7 ADD PUSH2 0x5E0 JUMP JUMPDEST SWAP3 POP POP PUSH1 0x20 PUSH2 0x65D DUP6 DUP3 DUP7 ADD PUSH2 0x615 JUMP JUMPDEST SWAP2 POP POP SWAP3 POP SWAP3 SWAP1 POP JUMP JUMPDEST PUSH0 PUSH1 0x20 DUP3 DUP5 SUB SLT ISZERO PUSH2 0x67C JUMPI PUSH2 0x67B PUSH2 0x5B9 JUMP JUMPDEST JUMPDEST PUSH0 PUSH2 0x689 DUP5 DUP3 DUP6 ADD PUSH2 0x5E0 JUMP JUMPDEST SWAP2 POP POP SWAP3 SWAP2 POP POP JUMP JUMPDEST PUSH0 DUP1 REVERT JUMPDEST PUSH0 DUP1 REVERT JUMPDEST PUSH0 PUSH1 0x1F NOT PUSH1 0x1F DUP4 ADD AND SWAP1 POP SWAP2 SWAP1 POP JUMP JUMPDEST PUSH32 0x4E487B7100000000000000000000000000000000000000000000000000000000 PUSH0 MSTORE PUSH1 0x41 PUSH1 0x4 MSTORE PUSH1 0x24 PUSH0 REVERT JUMPDEST PUSH2 0x6E0 DUP3 PUSH2 0x69A JUMP JUMPDEST DUP2 ADD DUP2 DUP2 LT PUSH8 0xFFFFFFFFFFFFFFFF DUP3 GT OR ISZERO PUSH2 0x6FF JUMPI PUSH2 0x6FE PUSH2 0x6AA JUMP JUMPDEST JUMPDEST DUP1 PUSH1 0x40 MSTORE POP POP POP JUMP JUMPDEST PUSH0 PUSH2 0x711 PUSH2 0x5B0 JUMP JUMPDEST SWAP1 POP PUSH2 0x71D DUP3 DUP3 PUSH2 0x6D7 JUMP JUMPDEST SWAP2 SWAP1 POP JUMP JUMPDEST PUSH0 PUSH8 0xFFFFFFFFFFFFFFFF DUP3 GT ISZERO PUSH2 0x73C JUMPI PUSH2 0x73B PUSH2 0x6AA JUMP JUMPDEST JUMPDEST PUSH2 0x745 DUP3 PUSH2 0x69A JUMP JUMPDEST SWAP1 POP PUSH1 0x20 DUP2 ADD SWAP1 POP SWAP2 SWAP1 POP JUMP JUMPDEST DUP3 DUP2 DUP4 CALLDATACOPY PUSH0 DUP4 DUP4 ADD MSTORE POP POP POP JUMP JUMPDEST PUSH0 PUSH2 0x772 PUSH2 0x76D DUP5 PUSH2 0x722 JUMP JUMPDEST PUSH2 0x708 JUMP JUMPDEST SWAP1 POP DUP3 DUP2 MSTORE PUSH1 0x20 DUP2 ADD DUP5 DUP5 DUP5 ADD GT ISZERO PUSH2 0x78E JUMPI PUSH2 0x78D PUSH2 0x696 JUMP JUMPDEST JUMPDEST PUSH2 0x799 DUP5 DUP3 DUP6 PUSH2 0x752 JUMP JUMPDEST POP SWAP4 SWAP3 POP POP POP JUMP JUMPDEST PUSH0 DUP3 PUSH1 0x1F DUP4 ADD SLT PUSH2 0x7B5 JUMPI PUSH2 0x7B4 PUSH2 0x692 JUMP JUMPDEST JUMPDEST DUP2 CALLDATALOAD PUSH2 0x7C5 DUP5 DUP3 PUSH1 0x20 DUP7 ADD PUSH2 0x760 JUMP JUMPDEST SWAP2 POP POP SWAP3 SWAP2 POP POP JUMP JUMPDEST PUSH0 DUP1 PUSH1 0x40 DUP4 DUP6 SUB SLT ISZERO PUSH2 0x7E4 JUMPI PUSH2 0x7E3 PUSH2 0x5B9 JUMP JUMPDEST JUMPDEST PUSH0 PUSH2 0x7F1 DUP6 DUP3 DUP7 ADD PUSH2 0x5E0 JUMP JUMPDEST SWAP3 POP POP PUSH1 0x20 DUP4 ADD CALLDATALOAD PUSH8 0xFFFFFFFFFFFFFFFF DUP2 GT ISZERO PUSH2 0x812 JUMPI PUSH2 0x811 PUSH2 0x5BD JUMP JUMPDEST JUMPDEST PUSH2 0x81E DUP6 DUP3 DUP7 ADD PUSH2 0x7A1 JUMP JUMPDEST SWAP2 POP POP SWAP3 POP SWAP3 SWAP1 POP JUMP JUMPDEST PUSH0 DUP2 MLOAD SWAP1 POP SWAP2 SWAP1 POP JUMP JUMPDEST PUSH0 DUP3 DUP3 MSTORE PUSH1 0x20 DUP3 ADD SWAP1 POP SWAP3 SWAP2 POP POP JUMP JUMPDEST DUP3 DUP2 DUP4 MCOPY PUSH0 DUP4 DUP4 ADD MSTORE POP POP POP JUMP JUMPDEST PUSH0 PUSH2 0x85A DUP3 PUSH2 0x828 JUMP JUMPDEST PUSH2 0x864 DUP2 DUP6 PUSH2 0x832 JUMP JUMPDEST SWAP4 POP PUSH2 0x874 DUP2 DUP6 PUSH1 0x20 DUP7 ADD PUSH2 0x842 JUMP JUMPDEST PUSH2 0x87D DUP2 PUSH2 0x69A JUMP JUMPDEST DUP5 ADD SWAP2 POP POP SWAP3 SWAP2 POP POP JUMP JUMPDEST PUSH2 0x891 DUP2 PUSH2 0x5F4 JUMP JUMPDEST DUP3 MSTORE POP POP JUMP JUMPDEST PUSH0 PUSH1 0x40 DUP3 ADD SWAP1 POP DUP2 DUP2 SUB PUSH0 DUP4 ADD MSTORE PUSH2 0x8AF DUP2 DUP6 PUSH2 0x850 JUMP JUMPDEST SWAP1 POP PUSH2 0x8BE PUSH1 0x20 DUP4 ADD DUP5 PUSH2 0x888 JUMP JUMPDEST SWAP4 SWAP3 POP POP POP JUMP JUMPDEST PUSH0 PUSH1 0x20 DUP3 DUP5 SUB SLT ISZERO PUSH2 0x8DA JUMPI PUSH2 0x8D9 PUSH2 0x5B9 JUMP JUMPDEST JUMPDEST PUSH0 DUP3 ADD CALLDATALOAD PUSH8 0xFFFFFFFFFFFFFFFF DUP2 GT ISZERO PUSH2 0x8F7 JUMPI PUSH2 0x8F6 PUSH2 0x5BD JUMP JUMPDEST JUMPDEST PUSH2 0x903 DUP5 DUP3 DUP6 ADD PUSH2 0x7A1 JUMP JUMPDEST SWAP2 POP POP SWAP3 SWAP2 POP POP JUMP JUMPDEST PUSH2 0x915 DUP2 PUSH2 0x5C1 JUMP JUMPDEST DUP3 MSTORE POP POP JUMP JUMPDEST PUSH0 PUSH1 0x20 DUP3 ADD SWAP1 POP PUSH2 0x92E PUSH0 DUP4 ADD DUP5 PUSH2 0x90C JUMP JUMPDEST SWAP3 SWAP2 POP POP JUMP JUMPDEST PUSH32 0x4E487B7100000000000000000000000000000000000000000000000000000000 PUSH0 MSTORE PUSH1 0x32 PUSH1 0x4 MSTORE PUSH1 0x24 PUSH0 REVERT JUMPDEST PUSH32 0x4E487B7100000000000000000000000000000000000000000000000000000000 PUSH0 MSTORE PUSH1 0x22 PUSH1 0x4 MSTORE PUSH1 0x24 PUSH0 REVERT JUMPDEST PUSH0 PUSH1 0x2 DUP3 DIV SWAP1 POP PUSH1 0x1 DUP3 AND DUP1 PUSH2 0x9A5 JUMPI PUSH1 0x7F DUP3 AND SWAP2 POP JUMPDEST PUSH1 0x20 DUP3 LT DUP2 SUB PUSH2 0x9B8 JUMPI PUSH2 0x9B7 PUSH2 0x961 JUMP JUMPDEST JUMPDEST POP SWAP2 SWAP1 POP JUMP JUMPDEST PUSH0 DUP2 SWAP1 POP DUP2 PUSH0 MSTORE PUSH1 0x20 PUSH0 KECCAK256 SWAP1 POP SWAP2 SWAP1 POP JUMP JUMPDEST PUSH0 PUSH1 0x20 PUSH1 0x1F DUP4 ADD DIV SWAP1 POP SWAP2 SWAP1 POP JUMP JUMPDEST PUSH0 DUP3 DUP3 SHL SWAP1 POP SWAP3 SWAP2 POP POP JUMP JUMPDEST PUSH0 PUSH1 0x8 DUP4 MUL PUSH2 0xA1A PUSH32 0xFFFFFFFFFFFFFFFFFFFFFFFFFFFFFFFFFFFFFFFFFFFFFFFFFFFFFFFFFFFFFFFF DUP3 PUSH2 0x9DF JUMP JUMPDEST PUSH2 0xA24 DUP7 DUP4 PUSH2 0x9DF JUMP JUMPDEST SWAP6 POP DUP1 NOT DUP5 AND SWAP4 POP DUP1 DUP7 AND DUP5 OR SWAP3 POP POP POP SWAP4 SWAP3 POP POP POP JUMP JUMPDEST PUSH0 DUP2 SWAP1 POP SWAP2 SWAP1 POP JUMP JUMPDEST PUSH0 PUSH2 0xA5F PUSH2 0xA5A PUSH2 0xA55 DUP5 PUSH2 0x5C1 JUMP JUMPDEST PUSH2 0xA3C JUMP JUMPDEST PUSH2 0x5C1 JUMP JUMPDEST SWAP1 POP SWAP2 SWAP1 POP JUMP JUMPDEST PUSH0 DUP2 SWAP1 POP SWAP2 SWAP1 POP JUMP JUMPDEST PUSH2 0xA78 DUP4 PUSH2 0xA45 JUMP JUMPDEST PUSH2 0xA8C PUSH2 0xA84 DUP3 PUSH2 0xA66 JUMP JUMPDEST DUP5 DUP5 SLOAD PUSH2 0x9EB JUMP JUMPDEST DUP3 SSTORE POP POP POP POP JUMP JUMPDEST PUSH0 SWAP1 JUMP JUMPDEST PUSH2 0xAA0 PUSH2 0xA94 JUMP JUMPDEST PUSH2 0xAAB DUP2 DUP5 DUP5 PUSH2 0xA6F JUMP JUMPDEST POP POP POP JUMP JUMPDEST JUMPDEST DUP2 DUP2 LT ISZERO PUSH2 0xACE JUMPI PUSH2 0xAC3 PUSH0 DUP3 PUSH2 0xA98 JUMP JUMPDEST PUSH1 0x1 DUP2 ADD SWAP1 POP PUSH2 0xAB1 JUMP JUMPDEST POP POP JUMP JUMPDEST PUSH1 0x1F DUP3 GT ISZERO PUSH2 0xB13 JUMPI PUSH2 0xAE4 DUP2 PUSH2 0x9BE JUMP JUMPDEST PUSH2 0xAED DUP5 PUSH2 0x9D0 JUMP JUMPDEST DUP2 ADD PUSH1 0x20 DUP6 LT ISZERO PUSH2 0xAFC JUMPI DUP2 SWAP1 POP JUMPDEST PUSH2 0xB10 PUSH2 0xB08 DUP6 PUSH2 0x9D0 JUMP JUMPDEST DUP4 ADD DUP3 PUSH2 0xAB0 JUMP JUMPDEST POP POP JUMPDEST POP POP POP JUMP JUMPDEST PUSH0 DUP3 DUP3 SHR SWAP1 POP SWAP3 SWAP2 POP POP JUMP JUMPDEST PUSH0 PUSH2 0xB33 PUSH0 NOT DUP5 PUSH1 0x8 MUL PUSH2 0xB18 JUMP JUMPDEST NOT DUP1 DUP4 AND SWAP2 POP POP SWAP3 SWAP2 POP POP JUMP JUMPDEST PUSH0 PUSH2 0xB4B DUP4 DUP4 PUSH2 0xB24 JUMP JUMPDEST SWAP2 POP DUP3 PUSH1 0x2 MUL DUP3 OR SWAP1 POP SWAP3 SWAP2 POP POP JUMP JUMPDEST PUSH2 0xB64 DUP3 PUSH2 0x828 JUMP JUMPDEST PUSH8 0xFFFFFFFFFFFFFFFF DUP2 GT ISZERO PUSH2 0xB7D JUMPI PUSH2 0xB7C PUSH2 0x6AA JUMP JUMPDEST JUMPDEST PUSH2 0xB87 DUP3 SLOAD PUSH2 0x98E JUMP JUMPDEST PUSH2 0xB92 DUP3 DUP3 DUP6 PUSH2 0xAD2 JUMP JUMPDEST PUSH0 PUSH1 0x20 SWAP1 POP PUSH1 0x1F DUP4 GT PUSH1 0x1 DUP2 EQ PUSH2 0xBC3 JUMPI PUSH0 DUP5 ISZERO PUSH2 0xBB1 JUMPI DUP3 DUP8 ADD MLOAD SWAP1 POP JUMPDEST PUSH2 0xBBB DUP6 DUP3 PUSH2 0xB40 JUMP JUMPDEST DUP7 SSTORE POP PUSH2 0xC22 JUMP JUMPDEST PUSH1 0x1F NOT DUP5 AND PUSH2 0xBD1 DUP7 PUSH2 0x9BE JUMP JUMPDEST PUSH0 JUMPDEST DUP3 DUP2 LT ISZERO PUSH2 0xBF8 JUMPI DUP5 DUP10 ADD MLOAD DUP3 SSTORE PUSH1 0x1 DUP3 ADD SWAP2 POP PUSH1 0x20 DUP6 ADD SWAP5 POP PUSH1 0x20 DUP2 ADD SWAP1 POP PUSH2 0xBD3 JUMP JUMPDEST DUP7 DUP4 LT ISZERO PUSH2 0xC15 JUMPI DUP5 DUP10 ADD MLOAD PUSH2 0xC11 PUSH1 0x1F DUP10 AND DUP3 PUSH2 0xB24 JUMP JUMPDEST DUP4 SSTORE POP JUMPDEST PUSH1 0x1 PUSH1 0x2 DUP9 MUL ADD DUP9 SSTORE POP POP POP JUMPDEST POP POP POP POP POP POP JUMP INVALID LOG2 PUSH5 0x6970667358 0x22 SLT KECCAK256 0xD2 0xB2 PUSH12 0x13266621B4195CD4716BB88F PUSH16 0xA6EFC1F2285C47F7BB2D2EC95F7E58EA PUSH5 0x736F6C6343 STOP ADDMOD BYTE STOP CALLER "
				},
				"gasEstimates": {
					"creation": {
						"codeDepositCost": "633600",
						"executionCost": "662",
						"totalCost": "634262"
					},
					"external": {
						"create(string)": "infinite",
						"get(uint256)": "infinite",
						"getTwo(uint256)": "infinite",
						"list(uint256)": "infinite",
						"updateName(uint256,string)": "infinite",
						"updateNameTwo(uint256,string)": "infinite",
						"updateStatus(uint256,bool)": "27039",
						"updateStatusTwo(uint256)": "29041"
					}
				},
				"methodIdentifiers": {
					"create(string)": "b6a46b3b",
					"get(uint256)": "9507d39a",
					"getTwo(uint256)": "84fe49ad",
					"list(uint256)": "80c9419e",
					"updateName(uint256,string)": "53e76f2c",
					"updateNameTwo(uint256,string)": "5de79c8e",
					"updateStatus(uint256,bool)": "387008c2",
					"updateStatusTwo(uint256)": "3ea2ea7a"
				}
			},
			"storageLayout": {
				"storage": [
					{
						"astId": 10,
						"contract": "contracts/test/Demo.sol:Demo",
						"label": "list",
						"offset": 0,
						"slot": "0",
						"type": "t_array(t_struct(Todo)6_storage)dyn_storage"
					}
				],
				"types": {
					"t_array(t_struct(Todo)6_storage)dyn_storage": {
						"base": "t_struct(Todo)6_storage",
						"encoding": "dynamic_array",
						"label": "struct Demo.Todo[]",
						"numberOfBytes": "32"
					},
					"t_bool": {
						"encoding": "inplace",
						"label": "bool",
						"numberOfBytes": "1"
					},
					"t_string_storage": {
						"encoding": "bytes",
						"label": "string",
						"numberOfBytes": "32"
					},
					"t_struct(Todo)6_storage": {
						"encoding": "inplace",
						"label": "struct Demo.Todo",
						"members": [
							{
								"astId": 3,
								"contract": "contracts/test/Demo.sol:Demo",
								"label": "name",
								"offset": 0,
								"slot": "0",
								"type": "t_string_storage"
							},
							{
								"astId": 5,
								"contract": "contracts/test/Demo.sol:Demo",
								"label": "isCompleted",
								"offset": 0,
								"slot": "1",
								"type": "t_bool"
							}
						],
						"numberOfBytes": "64"
					}
				}
			},
			"userdoc": {
				"kind": "user",
				"methods": {},
				"version": 1
			}
		}
	}
}