{
	"contracts/controlTest.sol": {
		"controlTest": {
			"abi": [
				{
					"inputs": [],
					"name": "testFor",
					"outputs": [
						{
							"internalType": "uint256",
							"name": "",
							"type": "uint256"
						},
						{
							"internalType": "uint256",
							"name": "",
							"type": "uint256"
						}
					],
					"stateMutability": "pure",
					"type": "function"
				},
				{
					"inputs": [],
					"name": "testWhile",
					"outputs": [
						{
							"internalType": "uint256",
							"name": "",
							"type": "uint256"
						}
					],
					"stateMutability": "pure",
					"type": "function"
				},
				{
					"inputs": [
						{
							"internalType": "address",
							"name": "_contractAddress",
							"type": "address"
						}
					],
					"name": "tryCatchDemo",
					"outputs": [],
					"stateMutability": "nonpayable",
					"type": "function"
				}
			],
			"devdoc": {
				"kind": "dev",
				"methods": {},
				"version": 1
			},
			"evm": {
				"assembly": "    /* \"contracts/controlTest.sol\":58:872  contract controlTest {... */\n  mstore(0x40, 0x80)\n  callvalue\n  dup1\n  iszero\n  tag_1\n  jumpi\n  0x00\n  dup1\n  revert\ntag_1:\n  pop\n  dataSize(sub_0)\n  dup1\n  dataOffset(sub_0)\n  0x00\n  codecopy\n  0x00\n  return\nstop\n\nsub_0: assembly {\n        /* \"contracts/controlTest.sol\":58:872  contract controlTest {... */\n      mstore(0x40, 0x80)\n      callvalue\n      dup1\n      iszero\n      tag_1\n      jumpi\n      0x00\n      dup1\n      revert\n    tag_1:\n      pop\n      jumpi(tag_2, lt(calldatasize, 0x04))\n      shr(0xe0, calldataload(0x00))\n      dup1\n      0xbc189895\n      eq\n      tag_3\n      jumpi\n      dup1\n      0xd65d8b16\n      eq\n      tag_4\n      jumpi\n      dup1\n      0xf01ff72d\n      eq\n      tag_5\n      jumpi\n    tag_2:\n      0x00\n      dup1\n      revert\n        /* \"contracts/controlTest.sol\":648:870  function tryCatchDemo(address _contractAddress) public {... */\n    tag_3:\n      tag_6\n      0x04\n      dup1\n      calldatasize\n      sub\n      dup2\n      add\n      swap1\n      tag_7\n      swap2\n      swap1\n      tag_8\n      jump\t// in\n    tag_7:\n      tag_9\n      jump\t// in\n    tag_6:\n      stop\n        /* \"contracts/controlTest.sol\":358:645  function testFor() pure public returns (uint, uint) {... */\n    tag_4:\n      tag_10\n      tag_11\n      jump\t// in\n    tag_10:\n      mload(0x40)\n      tag_12\n      swap3\n      swap2\n      swap1\n      tag_13\n      jump\t// in\n    tag_12:\n      mload(0x40)\n      dup1\n      swap2\n      sub\n      swap1\n      return\n        /* \"contracts/controlTest.sol\":85:357  function testWhile() public pure returns (uint) {... */\n    tag_5:\n      tag_14\n      tag_15\n      jump\t// in\n    tag_14:\n      mload(0x40)\n      tag_16\n      swap2\n      swap1\n      tag_17\n      jump\t// in\n    tag_16:\n      mload(0x40)\n      dup1\n      swap2\n      sub\n      swap1\n      return\n        /* \"contracts/controlTest.sol\":648:870  function tryCatchDemo(address _contractAddress) public {... */\n    tag_9:\n        /* \"contracts/controlTest.sol\":763:779  _contractAddress */\n      dup1\n        /* \"contracts/controlTest.sol\":746:793  ExternalContract(_contractAddress).someFunction */\n      0xffffffffffffffffffffffffffffffffffffffff\n      and\n      0x35b09a6e\n        /* \"contracts/controlTest.sol\":746:795  ExternalContract(_contractAddress).someFunction() */\n      mload(0x40)\n      dup2\n      0xffffffff\n      and\n      0xe0\n      shl\n      dup2\n      mstore\n      0x04\n      add\n      0x20\n      mload(0x40)\n      dup1\n      dup4\n      sub\n      dup2\n      0x00\n      dup8\n      gas\n      call\n      swap3\n      pop\n      pop\n      pop\n      dup1\n      iszero\n      tag_19\n      jumpi\n      pop\n      mload(0x40)\n      returndatasize\n      not(0x1f)\n      0x1f\n      dup3\n      add\n      and\n      dup3\n      add\n      dup1\n      0x40\n      mstore\n      pop\n      dup2\n      add\n      swap1\n      tag_20\n      swap2\n      swap1\n      tag_21\n      jump\t// in\n    tag_20:\n      0x01\n    tag_19:\n        /* \"contracts/controlTest.sol\":742:868  try ExternalContract(_contractAddress).someFunction() returns (bool result) {... */\n      iszero\n      tag_26\n      jumpi\n        /* \"contracts/controlTest.sol\":796:842  returns (bool result) {... */\n      pop\n        /* \"contracts/controlTest.sol\":742:868  try ExternalContract(_contractAddress).someFunction() returns (bool result) {... */\n    tag_26:\n        /* \"contracts/controlTest.sol\":648:870  function tryCatchDemo(address _contractAddress) public {... */\n      pop\n      jump\t// out\n        /* \"contracts/controlTest.sol\":358:645  function testFor() pure public returns (uint, uint) {... */\n    tag_11:\n        /* \"contracts/controlTest.sol\":398:402  uint */\n      0x00\n        /* \"contracts/controlTest.sol\":404:408  uint */\n      dup1\n        /* \"contracts/controlTest.sol\":412:425  uint sumOfOdd */\n      0x00\n        /* \"contracts/controlTest.sol\":431:445  uint sumofEven */\n      dup1\n        /* \"contracts/controlTest.sol\":456:462  uint i */\n      0x00\n        /* \"contracts/controlTest.sol\":451:581  for (uint i = 0; i < 10; i++) {... */\n    tag_28:\n        /* \"contracts/controlTest.sol\":472:474  10 */\n      0x0a\n        /* \"contracts/controlTest.sol\":468:469  i */\n      dup2\n        /* \"contracts/controlTest.sol\":468:474  i < 10 */\n      lt\n        /* \"contracts/controlTest.sol\":451:581  for (uint i = 0; i < 10; i++) {... */\n      iszero\n      tag_29\n      jumpi\n        /* \"contracts/controlTest.sol\":496:497  0 */\n      0x00\n        /* \"contracts/controlTest.sol\":491:492  2 */\n      0x02\n        /* \"contracts/controlTest.sol\":487:488  i */\n      dup3\n        /* \"contracts/controlTest.sol\":487:492  i % 2 */\n      tag_31\n      swap2\n      swap1\n      tag_32\n      jump\t// in\n    tag_31:\n        /* \"contracts/controlTest.sol\":487:497  i % 2 == 0 */\n      sub\n        /* \"contracts/controlTest.sol\":483:579  if (i % 2 == 0) {... */\n      tag_33\n      jumpi\n        /* \"contracts/controlTest.sol\":514:515  i */\n      dup1\n        /* \"contracts/controlTest.sol\":501:515  sumofEven += i */\n      dup3\n      tag_34\n      swap2\n      swap1\n      tag_35\n      jump\t// in\n    tag_34:\n      swap2\n      pop\n        /* \"contracts/controlTest.sol\":483:579  if (i % 2 == 0) {... */\n      jump(tag_36)\n    tag_33:\n        /* \"contracts/controlTest.sol\":556:557  i */\n      dup1\n        /* \"contracts/controlTest.sol\":544:557  sumOfOdd += i */\n      dup4\n      tag_37\n      swap2\n      swap1\n      tag_35\n      jump\t// in\n    tag_37:\n      swap3\n      pop\n        /* \"contracts/controlTest.sol\":483:579  if (i % 2 == 0) {... */\n    tag_36:\n        /* \"contracts/controlTest.sol\":476:479  i++ */\n      dup1\n      dup1\n      tag_38\n      swap1\n      tag_39\n      jump\t// in\n    tag_38:\n      swap2\n      pop\n      pop\n        /* \"contracts/controlTest.sol\":451:581  for (uint i = 0; i < 10; i++) {... */\n      jump(tag_28)\n    tag_29:\n      pop\n        /* \"contracts/controlTest.sol\":590:598  sumOfOdd */\n      dup2\n        /* \"contracts/controlTest.sol\":600:609  sumofEven */\n      dup2\n        /* \"contracts/controlTest.sol\":582:610  return (sumOfOdd, sumofEven) */\n      swap4\n      pop\n      swap4\n      pop\n      pop\n      pop\n        /* \"contracts/controlTest.sol\":358:645  function testFor() pure public returns (uint, uint) {... */\n      swap1\n      swap2\n      jump\t// out\n        /* \"contracts/controlTest.sol\":85:357  function testWhile() public pure returns (uint) {... */\n    tag_15:\n        /* \"contracts/controlTest.sol\":127:131  uint */\n      0x00\n        /* \"contracts/controlTest.sol\":135:141  uint i */\n      dup1\n        /* \"contracts/controlTest.sol\":144:145  0 */\n      0x00\n        /* \"contracts/controlTest.sol\":135:145  uint i = 0 */\n      swap1\n      pop\n        /* \"contracts/controlTest.sol\":147:160  uint sumOfOdd */\n      0x00\n        /* \"contracts/controlTest.sol\":166:308  while (true) {... */\n    tag_41:\n        /* \"contracts/controlTest.sol\":173:177  true */\n      0x01\n        /* \"contracts/controlTest.sol\":166:308  while (true) {... */\n      iszero\n      tag_42\n      jumpi\n        /* \"contracts/controlTest.sol\":181:184  i++ */\n      dup2\n      dup1\n      tag_43\n      swap1\n      tag_39\n      jump\t// in\n    tag_43:\n      swap3\n      pop\n      pop\n        /* \"contracts/controlTest.sol\":199:200  0 */\n      0x00\n        /* \"contracts/controlTest.sol\":194:195  2 */\n      0x02\n        /* \"contracts/controlTest.sol\":190:191  i */\n      dup4\n        /* \"contracts/controlTest.sol\":190:195  i % 2 */\n      tag_44\n      swap2\n      swap1\n      tag_32\n      jump\t// in\n    tag_44:\n        /* \"contracts/controlTest.sol\":190:200  i % 2 == 0 */\n      sub\n        /* \"contracts/controlTest.sol\":186:240  if (i % 2 == 0) {... */\n      iszero\n        /* \"contracts/controlTest.sol\":204:212  continue */\n      tag_41\n        /* \"contracts/controlTest.sol\":186:240  if (i % 2 == 0) {... */\n      jumpi\n        /* \"contracts/controlTest.sol\":249:251  10 */\n      0x0a\n        /* \"contracts/controlTest.sol\":245:246  i */\n      dup3\n        /* \"contracts/controlTest.sol\":245:251  i > 10 */\n      gt\n        /* \"contracts/controlTest.sol\":255:260  break */\n      tag_42\n        /* \"contracts/controlTest.sol\":241:291  if (i > 10) {... */\n      jumpi\n        /* \"contracts/controlTest.sol\":304:305  i */\n      dup2\n        /* \"contracts/controlTest.sol\":292:305  sumOfOdd += i */\n      dup2\n      tag_47\n      swap2\n      swap1\n      tag_35\n      jump\t// in\n    tag_47:\n      swap1\n      pop\n        /* \"contracts/controlTest.sol\":166:308  while (true) {... */\n      jump(tag_41)\n    tag_42:\n        /* \"contracts/controlTest.sol\":316:324  sumOfOdd */\n      dup1\n        /* \"contracts/controlTest.sol\":309:324  return sumOfOdd */\n      swap3\n      pop\n      pop\n      pop\n        /* \"contracts/controlTest.sol\":85:357  function testWhile() public pure returns (uint) {... */\n      swap1\n      jump\t// out\n        /* \"#utility.yul\":88:205   */\n    tag_49:\n        /* \"#utility.yul\":197:198   */\n      0x00\n        /* \"#utility.yul\":194:195   */\n      dup1\n        /* \"#utility.yul\":187:199   */\n      revert\n        /* \"#utility.yul\":334:460   */\n    tag_51:\n        /* \"#utility.yul\":371:378   */\n      0x00\n        /* \"#utility.yul\":411:453   */\n      0xffffffffffffffffffffffffffffffffffffffff\n        /* \"#utility.yul\":404:409   */\n      dup3\n        /* \"#utility.yul\":400:454   */\n      and\n        /* \"#utility.yul\":389:454   */\n      swap1\n      pop\n        /* \"#utility.yul\":334:460   */\n      swap2\n      swap1\n      pop\n      jump\t// out\n        /* \"#utility.yul\":466:562   */\n    tag_52:\n        /* \"#utility.yul\":503:510   */\n      0x00\n        /* \"#utility.yul\":532:556   */\n      tag_68\n        /* \"#utility.yul\":550:555   */\n      dup3\n        /* \"#utility.yul\":532:556   */\n      tag_51\n      jump\t// in\n    tag_68:\n        /* \"#utility.yul\":521:556   */\n      swap1\n      pop\n        /* \"#utility.yul\":466:562   */\n      swap2\n      swap1\n      pop\n      jump\t// out\n        /* \"#utility.yul\":568:690   */\n    tag_53:\n        /* \"#utility.yul\":641:665   */\n      tag_70\n        /* \"#utility.yul\":659:664   */\n      dup2\n        /* \"#utility.yul\":641:665   */\n      tag_52\n      jump\t// in\n    tag_70:\n        /* \"#utility.yul\":634:639   */\n      dup2\n        /* \"#utility.yul\":631:666   */\n      eq\n        /* \"#utility.yul\":621:684   */\n      tag_71\n      jumpi\n        /* \"#utility.yul\":680:681   */\n      0x00\n        /* \"#utility.yul\":677:678   */\n      dup1\n        /* \"#utility.yul\":670:682   */\n      revert\n        /* \"#utility.yul\":621:684   */\n    tag_71:\n        /* \"#utility.yul\":568:690   */\n      pop\n      jump\t// out\n        /* \"#utility.yul\":696:835   */\n    tag_54:\n        /* \"#utility.yul\":742:747   */\n      0x00\n        /* \"#utility.yul\":780:786   */\n      dup2\n        /* \"#utility.yul\":767:787   */\n      calldataload\n        /* \"#utility.yul\":758:787   */\n      swap1\n      pop\n        /* \"#utility.yul\":796:829   */\n      tag_73\n        /* \"#utility.yul\":823:828   */\n      dup2\n        /* \"#utility.yul\":796:829   */\n      tag_53\n      jump\t// in\n    tag_73:\n        /* \"#utility.yul\":696:835   */\n      swap3\n      swap2\n      pop\n      pop\n      jump\t// out\n        /* \"#utility.yul\":841:1170   */\n    tag_8:\n        /* \"#utility.yul\":900:906   */\n      0x00\n        /* \"#utility.yul\":949:951   */\n      0x20\n        /* \"#utility.yul\":937:946   */\n      dup3\n        /* \"#utility.yul\":928:935   */\n      dup5\n        /* \"#utility.yul\":924:947   */\n      sub\n        /* \"#utility.yul\":920:952   */\n      slt\n        /* \"#utility.yul\":917:1036   */\n      iszero\n      tag_75\n      jumpi\n        /* \"#utility.yul\":955:1034   */\n      tag_76\n      tag_49\n      jump\t// in\n    tag_76:\n        /* \"#utility.yul\":917:1036   */\n    tag_75:\n        /* \"#utility.yul\":1075:1076   */\n      0x00\n        /* \"#utility.yul\":1100:1153   */\n      tag_77\n        /* \"#utility.yul\":1145:1152   */\n      dup5\n        /* \"#utility.yul\":1136:1142   */\n      dup3\n        /* \"#utility.yul\":1125:1134   */\n      dup6\n        /* \"#utility.yul\":1121:1143   */\n      add\n        /* \"#utility.yul\":1100:1153   */\n      tag_54\n      jump\t// in\n    tag_77:\n        /* \"#utility.yul\":1090:1153   */\n      swap2\n      pop\n        /* \"#utility.yul\":1046:1163   */\n      pop\n        /* \"#utility.yul\":841:1170   */\n      swap3\n      swap2\n      pop\n      pop\n      jump\t// out\n        /* \"#utility.yul\":1176:1253   */\n    tag_55:\n        /* \"#utility.yul\":1213:1220   */\n      0x00\n        /* \"#utility.yul\":1242:1247   */\n      dup2\n        /* \"#utility.yul\":1231:1247   */\n      swap1\n      pop\n        /* \"#utility.yul\":1176:1253   */\n      swap2\n      swap1\n      pop\n      jump\t// out\n        /* \"#utility.yul\":1259:1377   */\n    tag_56:\n        /* \"#utility.yul\":1346:1370   */\n      tag_80\n        /* \"#utility.yul\":1364:1369   */\n      dup2\n        /* \"#utility.yul\":1346:1370   */\n      tag_55\n      jump\t// in\n    tag_80:\n        /* \"#utility.yul\":1341:1344   */\n      dup3\n        /* \"#utility.yul\":1334:1371   */\n      mstore\n        /* \"#utility.yul\":1259:1377   */\n      pop\n      pop\n      jump\t// out\n        /* \"#utility.yul\":1383:1715   */\n    tag_13:\n        /* \"#utility.yul\":1504:1508   */\n      0x00\n        /* \"#utility.yul\":1542:1544   */\n      0x40\n        /* \"#utility.yul\":1531:1540   */\n      dup3\n        /* \"#utility.yul\":1527:1545   */\n      add\n        /* \"#utility.yul\":1519:1545   */\n      swap1\n      pop\n        /* \"#utility.yul\":1555:1626   */\n      tag_82\n        /* \"#utility.yul\":1623:1624   */\n      0x00\n        /* \"#utility.yul\":1612:1621   */\n      dup4\n        /* \"#utility.yul\":1608:1625   */\n      add\n        /* \"#utility.yul\":1599:1605   */\n      dup6\n        /* \"#utility.yul\":1555:1626   */\n      tag_56\n      jump\t// in\n    tag_82:\n        /* \"#utility.yul\":1636:1708   */\n      tag_83\n        /* \"#utility.yul\":1704:1706   */\n      0x20\n        /* \"#utility.yul\":1693:1702   */\n      dup4\n        /* \"#utility.yul\":1689:1707   */\n      add\n        /* \"#utility.yul\":1680:1686   */\n      dup5\n        /* \"#utility.yul\":1636:1708   */\n      tag_56\n      jump\t// in\n    tag_83:\n        /* \"#utility.yul\":1383:1715   */\n      swap4\n      swap3\n      pop\n      pop\n      pop\n      jump\t// out\n        /* \"#utility.yul\":1721:1943   */\n    tag_17:\n        /* \"#utility.yul\":1814:1818   */\n      0x00\n        /* \"#utility.yul\":1852:1854   */\n      0x20\n        /* \"#utility.yul\":1841:1850   */\n      dup3\n        /* \"#utility.yul\":1837:1855   */\n      add\n        /* \"#utility.yul\":1829:1855   */\n      swap1\n      pop\n        /* \"#utility.yul\":1865:1936   */\n      tag_85\n        /* \"#utility.yul\":1933:1934   */\n      0x00\n        /* \"#utility.yul\":1922:1931   */\n      dup4\n        /* \"#utility.yul\":1918:1935   */\n      add\n        /* \"#utility.yul\":1909:1915   */\n      dup5\n        /* \"#utility.yul\":1865:1936   */\n      tag_56\n      jump\t// in\n    tag_85:\n        /* \"#utility.yul\":1721:1943   */\n      swap3\n      swap2\n      pop\n      pop\n      jump\t// out\n        /* \"#utility.yul\":1949:2039   */\n    tag_57:\n        /* \"#utility.yul\":1983:1990   */\n      0x00\n        /* \"#utility.yul\":2026:2031   */\n      dup2\n        /* \"#utility.yul\":2019:2032   */\n      iszero\n        /* \"#utility.yul\":2012:2033   */\n      iszero\n        /* \"#utility.yul\":2001:2033   */\n      swap1\n      pop\n        /* \"#utility.yul\":1949:2039   */\n      swap2\n      swap1\n      pop\n      jump\t// out\n        /* \"#utility.yul\":2045:2161   */\n    tag_58:\n        /* \"#utility.yul\":2115:2136   */\n      tag_88\n        /* \"#utility.yul\":2130:2135   */\n      dup2\n        /* \"#utility.yul\":2115:2136   */\n      tag_57\n      jump\t// in\n    tag_88:\n        /* \"#utility.yul\":2108:2113   */\n      dup2\n        /* \"#utility.yul\":2105:2137   */\n      eq\n        /* \"#utility.yul\":2095:2155   */\n      tag_89\n      jumpi\n        /* \"#utility.yul\":2151:2152   */\n      0x00\n        /* \"#utility.yul\":2148:2149   */\n      dup1\n        /* \"#utility.yul\":2141:2153   */\n      revert\n        /* \"#utility.yul\":2095:2155   */\n    tag_89:\n        /* \"#utility.yul\":2045:2161   */\n      pop\n      jump\t// out\n        /* \"#utility.yul\":2167:2304   */\n    tag_59:\n        /* \"#utility.yul\":2221:2226   */\n      0x00\n        /* \"#utility.yul\":2252:2258   */\n      dup2\n        /* \"#utility.yul\":2246:2259   */\n      mload\n        /* \"#utility.yul\":2237:2259   */\n      swap1\n      pop\n        /* \"#utility.yul\":2268:2298   */\n      tag_91\n        /* \"#utility.yul\":2292:2297   */\n      dup2\n        /* \"#utility.yul\":2268:2298   */\n      tag_58\n      jump\t// in\n    tag_91:\n        /* \"#utility.yul\":2167:2304   */\n      swap3\n      swap2\n      pop\n      pop\n      jump\t// out\n        /* \"#utility.yul\":2310:2655   */\n    tag_21:\n        /* \"#utility.yul\":2377:2383   */\n      0x00\n        /* \"#utility.yul\":2426:2428   */\n      0x20\n        /* \"#utility.yul\":2414:2423   */\n      dup3\n        /* \"#utility.yul\":2405:2412   */\n      dup5\n        /* \"#utility.yul\":2401:2424   */\n      sub\n        /* \"#utility.yul\":2397:2429   */\n      slt\n        /* \"#utility.yul\":2394:2513   */\n      iszero\n      tag_93\n      jumpi\n        /* \"#utility.yul\":2432:2511   */\n      tag_94\n      tag_49\n      jump\t// in\n    tag_94:\n        /* \"#utility.yul\":2394:2513   */\n    tag_93:\n        /* \"#utility.yul\":2552:2553   */\n      0x00\n        /* \"#utility.yul\":2577:2638   */\n      tag_95\n        /* \"#utility.yul\":2630:2637   */\n      dup5\n        /* \"#utility.yul\":2621:2627   */\n      dup3\n        /* \"#utility.yul\":2610:2619   */\n      dup6\n        /* \"#utility.yul\":2606:2628   */\n      add\n        /* \"#utility.yul\":2577:2638   */\n      tag_59\n      jump\t// in\n    tag_95:\n        /* \"#utility.yul\":2567:2638   */\n      swap2\n      pop\n        /* \"#utility.yul\":2523:2648   */\n      pop\n        /* \"#utility.yul\":2310:2655   */\n      swap3\n      swap2\n      pop\n      pop\n      jump\t// out\n        /* \"#utility.yul\":2661:2841   */\n    tag_60:\n        /* \"#utility.yul\":2709:2786   */\n      0x4e487b7100000000000000000000000000000000000000000000000000000000\n        /* \"#utility.yul\":2706:2707   */\n      0x00\n        /* \"#utility.yul\":2699:2787   */\n      mstore\n        /* \"#utility.yul\":2806:2810   */\n      0x12\n        /* \"#utility.yul\":2803:2804   */\n      0x04\n        /* \"#utility.yul\":2796:2811   */\n      mstore\n        /* \"#utility.yul\":2830:2834   */\n      0x24\n        /* \"#utility.yul\":2827:2828   */\n      0x00\n        /* \"#utility.yul\":2820:2835   */\n      revert\n        /* \"#utility.yul\":2847:3023   */\n    tag_32:\n        /* \"#utility.yul\":2879:2880   */\n      0x00\n        /* \"#utility.yul\":2896:2916   */\n      tag_98\n        /* \"#utility.yul\":2914:2915   */\n      dup3\n        /* \"#utility.yul\":2896:2916   */\n      tag_55\n      jump\t// in\n    tag_98:\n        /* \"#utility.yul\":2891:2916   */\n      swap2\n      pop\n        /* \"#utility.yul\":2930:2950   */\n      tag_99\n        /* \"#utility.yul\":2948:2949   */\n      dup4\n        /* \"#utility.yul\":2930:2950   */\n      tag_55\n      jump\t// in\n    tag_99:\n        /* \"#utility.yul\":2925:2950   */\n      swap3\n      pop\n        /* \"#utility.yul\":2969:2970   */\n      dup3\n        /* \"#utility.yul\":2959:2994   */\n      tag_100\n      jumpi\n        /* \"#utility.yul\":2974:2992   */\n      tag_101\n      tag_60\n      jump\t// in\n    tag_101:\n        /* \"#utility.yul\":2959:2994   */\n    tag_100:\n        /* \"#utility.yul\":3015:3016   */\n      dup3\n        /* \"#utility.yul\":3012:3013   */\n      dup3\n        /* \"#utility.yul\":3008:3017   */\n      mod\n        /* \"#utility.yul\":3003:3017   */\n      swap1\n      pop\n        /* \"#utility.yul\":2847:3023   */\n      swap3\n      swap2\n      pop\n      pop\n      jump\t// out\n        /* \"#utility.yul\":3029:3209   */\n    tag_61:\n        /* \"#utility.yul\":3077:3154   */\n      0x4e487b7100000000000000000000000000000000000000000000000000000000\n        /* \"#utility.yul\":3074:3075   */\n      0x00\n        /* \"#utility.yul\":3067:3155   */\n      mstore\n        /* \"#utility.yul\":3174:3178   */\n      0x11\n        /* \"#utility.yul\":3171:3172   */\n      0x04\n        /* \"#utility.yul\":3164:3179   */\n      mstore\n        /* \"#utility.yul\":3198:3202   */\n      0x24\n        /* \"#utility.yul\":3195:3196   */\n      0x00\n        /* \"#utility.yul\":3188:3203   */\n      revert\n        /* \"#utility.yul\":3215:3406   */\n    tag_35:\n        /* \"#utility.yul\":3255:3258   */\n      0x00\n        /* \"#utility.yul\":3274:3294   */\n      tag_104\n        /* \"#utility.yul\":3292:3293   */\n      dup3\n        /* \"#utility.yul\":3274:3294   */\n      tag_55\n      jump\t// in\n    tag_104:\n        /* \"#utility.yul\":3269:3294   */\n      swap2\n      pop\n        /* \"#utility.yul\":3308:3328   */\n      tag_105\n        /* \"#utility.yul\":3326:3327   */\n      dup4\n        /* \"#utility.yul\":3308:3328   */\n      tag_55\n      jump\t// in\n    tag_105:\n        /* \"#utility.yul\":3303:3328   */\n      swap3\n      pop\n        /* \"#utility.yul\":3351:3352   */\n      dup3\n        /* \"#utility.yul\":3348:3349   */\n      dup3\n        /* \"#utility.yul\":3344:3353   */\n      add\n        /* \"#utility.yul\":3337:3353   */\n      swap1\n      pop\n        /* \"#utility.yul\":3372:3375   */\n      dup1\n        /* \"#utility.yul\":3369:3370   */\n      dup3\n        /* \"#utility.yul\":3366:3376   */\n      gt\n        /* \"#utility.yul\":3363:3399   */\n      iszero\n      tag_106\n      jumpi\n        /* \"#utility.yul\":3379:3397   */\n      tag_107\n      tag_61\n      jump\t// in\n    tag_107:\n        /* \"#utility.yul\":3363:3399   */\n    tag_106:\n        /* \"#utility.yul\":3215:3406   */\n      swap3\n      swap2\n      pop\n      pop\n      jump\t// out\n        /* \"#utility.yul\":3412:3645   */\n    tag_39:\n        /* \"#utility.yul\":3451:3454   */\n      0x00\n        /* \"#utility.yul\":3474:3498   */\n      tag_109\n        /* \"#utility.yul\":3492:3497   */\n      dup3\n        /* \"#utility.yul\":3474:3498   */\n      tag_55\n      jump\t// in\n    tag_109:\n        /* \"#utility.yul\":3465:3498   */\n      swap2\n      pop\n        /* \"#utility.yul\":3520:3586   */\n      0xffffffffffffffffffffffffffffffffffffffffffffffffffffffffffffffff\n        /* \"#utility.yul\":3513:3518   */\n      dup3\n        /* \"#utility.yul\":3510:3587   */\n      sub\n        /* \"#utility.yul\":3507:3610   */\n      tag_110\n      jumpi\n        /* \"#utility.yul\":3590:3608   */\n      tag_111\n      tag_61\n      jump\t// in\n    tag_111:\n        /* \"#utility.yul\":3507:3610   */\n    tag_110:\n        /* \"#utility.yul\":3637:3638   */\n      0x01\n        /* \"#utility.yul\":3630:3635   */\n      dup3\n        /* \"#utility.yul\":3626:3639   */\n      add\n        /* \"#utility.yul\":3619:3639   */\n      swap1\n      pop\n        /* \"#utility.yul\":3412:3645   */\n      swap2\n      swap1\n      pop\n      jump\t// out\n\n    auxdata: 0xa2646970667358221220ed67bcbb13b3333a36ef296cf13b7a07847919942ce5d267216e049aa70d45e764736f6c63430008140033\n}\n",
				"bytecode": {
					"linkReferences": {},
					"object": "608060405234801561000f575f80fd5b506104418061001d5f395ff3fe608060405234801561000f575f80fd5b506004361061003f575f3560e01c8063bc18989514610043578063d65d8b161461005f578063f01ff72d1461007e575b5f80fd5b61005d60048036038101906100589190610224565b61009c565b005b61006761010f565b604051610075929190610267565b60405180910390f35b610086610173565b604051610093919061028e565b60405180910390f35b8073ffffffffffffffffffffffffffffffffffffffff166335b09a6e6040518163ffffffff1660e01b81526004016020604051808303815f875af192505050801561010557506040513d601f19601f8201168201806040525081019061010291906102dc565b60015b1561010c57505b50565b5f805f805f5b600a811015610166575f60028261012c9190610334565b0361014457808261013d9190610391565b9150610153565b80836101509190610391565b92505b808061015e906103c4565b915050610115565b5081819350935050509091565b5f805f90505f5b6001156101be57818061018c906103c4565b9250505f60028361019d9190610334565b031561017a57600a82116101be5781816101b79190610391565b905061017a565b809250505090565b5f80fd5b5f73ffffffffffffffffffffffffffffffffffffffff82169050919050565b5f6101f3826101ca565b9050919050565b610203816101e9565b811461020d575f80fd5b50565b5f8135905061021e816101fa565b92915050565b5f60208284031215610239576102386101c6565b5b5f61024684828501610210565b91505092915050565b5f819050919050565b6102618161024f565b82525050565b5f60408201905061027a5f830185610258565b6102876020830184610258565b9392505050565b5f6020820190506102a15f830184610258565b92915050565b5f8115159050919050565b6102bb816102a7565b81146102c5575f80fd5b50565b5f815190506102d6816102b2565b92915050565b5f602082840312156102f1576102f06101c6565b5b5f6102fe848285016102c8565b91505092915050565b7f4e487b71000000000000000000000000000000000000000000000000000000005f52601260045260245ffd5b5f61033e8261024f565b91506103498361024f565b92508261035957610358610307565b5b828206905092915050565b7f4e487b71000000000000000000000000000000000000000000000000000000005f52601160045260245ffd5b5f61039b8261024f565b91506103a68361024f565b92508282019050808211156103be576103bd610364565b5b92915050565b5f6103ce8261024f565b91507fffffffffffffffffffffffffffffffffffffffffffffffffffffffffffffffff8203610400576103ff610364565b5b60018201905091905056fea2646970667358221220ed67bcbb13b3333a36ef296cf13b7a07847919942ce5d267216e049aa70d45e764736f6c63430008140033",
					"opcodes": "PUSH1 0x80 PUSH1 0x40 MSTORE CALLVALUE DUP1 ISZERO PUSH2 0xF JUMPI PUSH0 DUP1 REVERT JUMPDEST POP PUSH2 0x441 DUP1 PUSH2 0x1D PUSH0 CODECOPY PUSH0 RETURN INVALID PUSH1 0x80 PUSH1 0x40 MSTORE CALLVALUE DUP1 ISZERO PUSH2 0xF JUMPI PUSH0 DUP1 REVERT JUMPDEST POP PUSH1 0x4 CALLDATASIZE LT PUSH2 0x3F JUMPI PUSH0 CALLDATALOAD PUSH1 0xE0 SHR DUP1 PUSH4 0xBC189895 EQ PUSH2 0x43 JUMPI DUP1 PUSH4 0xD65D8B16 EQ PUSH2 0x5F JUMPI DUP1 PUSH4 0xF01FF72D EQ PUSH2 0x7E JUMPI JUMPDEST PUSH0 DUP1 REVERT JUMPDEST PUSH2 0x5D PUSH1 0x4 DUP1 CALLDATASIZE SUB DUP2 ADD SWAP1 PUSH2 0x58 SWAP2 SWAP1 PUSH2 0x224 JUMP JUMPDEST PUSH2 0x9C JUMP JUMPDEST STOP JUMPDEST PUSH2 0x67 PUSH2 0x10F JUMP JUMPDEST PUSH1 0x40 MLOAD PUSH2 0x75 SWAP3 SWAP2 SWAP1 PUSH2 0x267 JUMP JUMPDEST PUSH1 0x40 MLOAD DUP1 SWAP2 SUB SWAP1 RETURN JUMPDEST PUSH2 0x86 PUSH2 0x173 JUMP JUMPDEST PUSH1 0x40 MLOAD PUSH2 0x93 SWAP2 SWAP1 PUSH2 0x28E JUMP JUMPDEST PUSH1 0x40 MLOAD DUP1 SWAP2 SUB SWAP1 RETURN JUMPDEST DUP1 PUSH20 0xFFFFFFFFFFFFFFFFFFFFFFFFFFFFFFFFFFFFFFFF AND PUSH4 0x35B09A6E PUSH1 0x40 MLOAD DUP2 PUSH4 0xFFFFFFFF AND PUSH1 0xE0 SHL DUP2 MSTORE PUSH1 0x4 ADD PUSH1 0x20 PUSH1 0x40 MLOAD DUP1 DUP4 SUB DUP2 PUSH0 DUP8 GAS CALL SWAP3 POP POP POP DUP1 ISZERO PUSH2 0x105 JUMPI POP PUSH1 0x40 MLOAD RETURNDATASIZE PUSH1 0x1F NOT PUSH1 0x1F DUP3 ADD AND DUP3 ADD DUP1 PUSH1 0x40 MSTORE POP DUP2 ADD SWAP1 PUSH2 0x102 SWAP2 SWAP1 PUSH2 0x2DC JUMP JUMPDEST PUSH1 0x1 JUMPDEST ISZERO PUSH2 0x10C JUMPI POP JUMPDEST POP JUMP JUMPDEST PUSH0 DUP1 PUSH0 DUP1 PUSH0 JUMPDEST PUSH1 0xA DUP2 LT ISZERO PUSH2 0x166 JUMPI PUSH0 PUSH1 0x2 DUP3 PUSH2 0x12C SWAP2 SWAP1 PUSH2 0x334 JUMP JUMPDEST SUB PUSH2 0x144 JUMPI DUP1 DUP3 PUSH2 0x13D SWAP2 SWAP1 PUSH2 0x391 JUMP JUMPDEST SWAP2 POP PUSH2 0x153 JUMP JUMPDEST DUP1 DUP4 PUSH2 0x150 SWAP2 SWAP1 PUSH2 0x391 JUMP JUMPDEST SWAP3 POP JUMPDEST DUP1 DUP1 PUSH2 0x15E SWAP1 PUSH2 0x3C4 JUMP JUMPDEST SWAP2 POP POP PUSH2 0x115 JUMP JUMPDEST POP DUP2 DUP2 SWAP4 POP SWAP4 POP POP POP SWAP1 SWAP2 JUMP JUMPDEST PUSH0 DUP1 PUSH0 SWAP1 POP PUSH0 JUMPDEST PUSH1 0x1 ISZERO PUSH2 0x1BE JUMPI DUP2 DUP1 PUSH2 0x18C SWAP1 PUSH2 0x3C4 JUMP JUMPDEST SWAP3 POP POP PUSH0 PUSH1 0x2 DUP4 PUSH2 0x19D SWAP2 SWAP1 PUSH2 0x334 JUMP JUMPDEST SUB ISZERO PUSH2 0x17A JUMPI PUSH1 0xA DUP3 GT PUSH2 0x1BE JUMPI DUP2 DUP2 PUSH2 0x1B7 SWAP2 SWAP1 PUSH2 0x391 JUMP JUMPDEST SWAP1 POP PUSH2 0x17A JUMP JUMPDEST DUP1 SWAP3 POP POP POP SWAP1 JUMP JUMPDEST PUSH0 DUP1 REVERT JUMPDEST PUSH0 PUSH20 0xFFFFFFFFFFFFFFFFFFFFFFFFFFFFFFFFFFFFFFFF DUP3 AND SWAP1 POP SWAP2 SWAP1 POP JUMP JUMPDEST PUSH0 PUSH2 0x1F3 DUP3 PUSH2 0x1CA JUMP JUMPDEST SWAP1 POP SWAP2 SWAP1 POP JUMP JUMPDEST PUSH2 0x203 DUP2 PUSH2 0x1E9 JUMP JUMPDEST DUP2 EQ PUSH2 0x20D JUMPI PUSH0 DUP1 REVERT JUMPDEST POP JUMP JUMPDEST PUSH0 DUP2 CALLDATALOAD SWAP1 POP PUSH2 0x21E DUP2 PUSH2 0x1FA JUMP JUMPDEST SWAP3 SWAP2 POP POP JUMP JUMPDEST PUSH0 PUSH1 0x20 DUP3 DUP5 SUB SLT ISZERO PUSH2 0x239 JUMPI PUSH2 0x238 PUSH2 0x1C6 JUMP JUMPDEST JUMPDEST PUSH0 PUSH2 0x246 DUP5 DUP3 DUP6 ADD PUSH2 0x210 JUMP JUMPDEST SWAP2 POP POP SWAP3 SWAP2 POP POP JUMP JUMPDEST PUSH0 DUP2 SWAP1 POP SWAP2 SWAP1 POP JUMP JUMPDEST PUSH2 0x261 DUP2 PUSH2 0x24F JUMP JUMPDEST DUP3 MSTORE POP POP JUMP JUMPDEST PUSH0 PUSH1 0x40 DUP3 ADD SWAP1 POP PUSH2 0x27A PUSH0 DUP4 ADD DUP6 PUSH2 0x258 JUMP JUMPDEST PUSH2 0x287 PUSH1 0x20 DUP4 ADD DUP5 PUSH2 0x258 JUMP JUMPDEST SWAP4 SWAP3 POP POP POP JUMP JUMPDEST PUSH0 PUSH1 0x20 DUP3 ADD SWAP1 POP PUSH2 0x2A1 PUSH0 DUP4 ADD DUP5 PUSH2 0x258 JUMP JUMPDEST SWAP3 SWAP2 POP POP JUMP JUMPDEST PUSH0 DUP2 ISZERO ISZERO SWAP1 POP SWAP2 SWAP1 POP JUMP JUMPDEST PUSH2 0x2BB DUP2 PUSH2 0x2A7 JUMP JUMPDEST DUP2 EQ PUSH2 0x2C5 JUMPI PUSH0 DUP1 REVERT JUMPDEST POP JUMP JUMPDEST PUSH0 DUP2 MLOAD SWAP1 POP PUSH2 0x2D6 DUP2 PUSH2 0x2B2 JUMP JUMPDEST SWAP3 SWAP2 POP POP JUMP JUMPDEST PUSH0 PUSH1 0x20 DUP3 DUP5 SUB SLT ISZERO PUSH2 0x2F1 JUMPI PUSH2 0x2F0 PUSH2 0x1C6 JUMP JUMPDEST JUMPDEST PUSH0 PUSH2 0x2FE DUP5 DUP3 DUP6 ADD PUSH2 0x2C8 JUMP JUMPDEST SWAP2 POP POP SWAP3 SWAP2 POP POP JUMP JUMPDEST PUSH32 0x4E487B7100000000000000000000000000000000000000000000000000000000 PUSH0 MSTORE PUSH1 0x12 PUSH1 0x4 MSTORE PUSH1 0x24 PUSH0 REVERT JUMPDEST PUSH0 PUSH2 0x33E DUP3 PUSH2 0x24F JUMP JUMPDEST SWAP2 POP PUSH2 0x349 DUP4 PUSH2 0x24F JUMP JUMPDEST SWAP3 POP DUP3 PUSH2 0x359 JUMPI PUSH2 0x358 PUSH2 0x307 JUMP JUMPDEST JUMPDEST DUP3 DUP3 MOD SWAP1 POP SWAP3 SWAP2 POP POP JUMP JUMPDEST PUSH32 0x4E487B7100000000000000000000000000000000000000000000000000000000 PUSH0 MSTORE PUSH1 0x11 PUSH1 0x4 MSTORE PUSH1 0x24 PUSH0 REVERT JUMPDEST PUSH0 PUSH2 0x39B DUP3 PUSH2 0x24F JUMP JUMPDEST SWAP2 POP PUSH2 0x3A6 DUP4 PUSH2 0x24F JUMP JUMPDEST SWAP3 POP DUP3 DUP3 ADD SWAP1 POP DUP1 DUP3 GT ISZERO PUSH2 0x3BE JUMPI PUSH2 0x3BD PUSH2 0x364 JUMP JUMPDEST JUMPDEST SWAP3 SWAP2 POP POP JUMP JUMPDEST PUSH0 PUSH2 0x3CE DUP3 PUSH2 0x24F JUMP JUMPDEST SWAP2 POP PUSH32 0xFFFFFFFFFFFFFFFFFFFFFFFFFFFFFFFFFFFFFFFFFFFFFFFFFFFFFFFFFFFFFFFF DUP3 SUB PUSH2 0x400 JUMPI PUSH2 0x3FF PUSH2 0x364 JUMP JUMPDEST JUMPDEST PUSH1 0x1 DUP3 ADD SWAP1 POP SWAP2 SWAP1 POP JUMP INVALID LOG2 PUSH5 0x6970667358 0x22 SLT KECCAK256 0xED PUSH8 0xBCBB13B3333A36EF 0x29 PUSH13 0xF13B7A07847919942CE5D26721 PUSH15 0x49AA70D45E764736F6C6343000814 STOP CALLER "
				},
				"gasEstimates": {
					"creation": {
						"codeDepositCost": "217800",
						"executionCost": "261",
						"totalCost": "218061"
					},
					"external": {
						"testFor()": "infinite",
						"testWhile()": "infinite",
						"tryCatchDemo(address)": "infinite"
					}
				},
				"methodIdentifiers": {
					"testFor()": "d65d8b16",
					"testWhile()": "f01ff72d",
					"tryCatchDemo(address)": "bc189895"
				}
			},
			"storageLayout": {
				"storage": [],
				"types": null
			},
			"userdoc": {
				"kind": "user",
				"methods": {},
				"version": 1
			}
		}
	}
}