{
	"contracts/Day02.sol": {
		"ProfileStatus": {
			"abi": [
				{
					"inputs": [
						{
							"internalType": "string",
							"name": "_name",
							"type": "string"
						},
						{
							"internalType": "string",
							"name": "_message",
							"type": "string"
						}
					],
					"name": "createOrUpdateStatus",
					"outputs": [],
					"stateMutability": "nonpayable",
					"type": "function"
				},
				{
					"inputs": [],
					"name": "getStatus",
					"outputs": [
						{
							"internalType": "string",
							"name": "name",
							"type": "string"
						},
						{
							"internalType": "string",
							"name": "message",
							"type": "string"
						}
					],
					"stateMutability": "view",
					"type": "function"
				}
			],
			"devdoc": {
				"kind": "dev",
				"methods": {},
				"version": 1
			},
			"evm": {
				"assembly": "    /* \"contracts/Day02.sol\":59:579  contract ProfileStatus {... */\n  mstore(0x40, 0x80)\n  callvalue\n  dup1\n  iszero\n  tag_1\n  jumpi\n  0x00\n  dup1\n  revert\ntag_1:\n  pop\n  dataSize(sub_0)\n  dup1\n  dataOffset(sub_0)\n  0x00\n  codecopy\n  0x00\n  return\nstop\n\nsub_0: assembly {\n        /* \"contracts/Day02.sol\":59:579  contract ProfileStatus {... */\n      mstore(0x40, 0x80)\n      callvalue\n      dup1\n      iszero\n      tag_1\n      jumpi\n      0x00\n      dup1\n      revert\n    tag_1:\n      pop\n      jumpi(tag_2, lt(calldatasize, 0x04))\n      shr(0xe0, calldataload(0x00))\n      dup1\n      0x4cfd4c9a\n      eq\n      tag_3\n      jumpi\n      dup1\n      0x4e69d560\n      eq\n      tag_4\n      jumpi\n    tag_2:\n      0x00\n      dup1\n      revert\n        /* \"contracts/Day02.sol\":218:402  function createOrUpdateStatus(string memory _name,string memory _message) public {... */\n    tag_3:\n      tag_5\n      0x04\n      dup1\n      calldatasize\n      sub\n      dup2\n      add\n      swap1\n      tag_6\n      swap2\n      swap1\n      tag_7\n      jump\t// in\n    tag_6:\n      tag_8\n      jump\t// in\n    tag_5:\n      stop\n        /* \"contracts/Day02.sol\":408:576  function getStatus() public view  returns(string memory name,string memory message) {... */\n    tag_4:\n      tag_9\n      tag_10\n      jump\t// in\n    tag_9:\n      mload(0x40)\n      tag_11\n      swap3\n      swap2\n      swap1\n      tag_12\n      jump\t// in\n    tag_11:\n      mload(0x40)\n      dup1\n      swap2\n      sub\n      swap1\n      return\n        /* \"contracts/Day02.sol\":218:402  function createOrUpdateStatus(string memory _name,string memory _message) public {... */\n    tag_8:\n        /* \"contracts/Day02.sol\":339:344  _name */\n      dup2\n        /* \"contracts/Day02.sol\":309:319  userStatus */\n      0x00\n        /* \"contracts/Day02.sol\":309:331  userStatus[msg.sender] */\n      dup1\n        /* \"contracts/Day02.sol\":320:330  msg.sender */\n      caller\n        /* \"contracts/Day02.sol\":309:331  userStatus[msg.sender] */\n      0xffffffffffffffffffffffffffffffffffffffff\n      and\n      0xffffffffffffffffffffffffffffffffffffffff\n      and\n      dup2\n      mstore\n      0x20\n      add\n      swap1\n      dup2\n      mstore\n      0x20\n      add\n      0x00\n      keccak256\n        /* \"contracts/Day02.sol\":309:336  userStatus[msg.sender].name */\n      0x00\n      add\n        /* \"contracts/Day02.sol\":309:344  userStatus[msg.sender].name = _name */\n      swap1\n      dup2\n      tag_14\n      swap2\n      swap1\n      tag_15\n      jump\t// in\n    tag_14:\n      pop\n        /* \"contracts/Day02.sol\":387:395  _message */\n      dup1\n        /* \"contracts/Day02.sol\":354:364  userStatus */\n      0x00\n        /* \"contracts/Day02.sol\":354:376  userStatus[msg.sender] */\n      dup1\n        /* \"contracts/Day02.sol\":365:375  msg.sender */\n      caller\n        /* \"contracts/Day02.sol\":354:376  userStatus[msg.sender] */\n      0xffffffffffffffffffffffffffffffffffffffff\n      and\n      0xffffffffffffffffffffffffffffffffffffffff\n      and\n      dup2\n      mstore\n      0x20\n      add\n      swap1\n      dup2\n      mstore\n      0x20\n      add\n      0x00\n      keccak256\n        /* \"contracts/Day02.sol\":354:384  userStatus[msg.sender].message */\n      0x01\n      add\n        /* \"contracts/Day02.sol\":354:395  userStatus[msg.sender].message = _message */\n      swap1\n      dup2\n      tag_16\n      swap2\n      swap1\n      tag_15\n      jump\t// in\n    tag_16:\n      pop\n        /* \"contracts/Day02.sol\":218:402  function createOrUpdateStatus(string memory _name,string memory _message) public {... */\n      pop\n      pop\n      jump\t// out\n        /* \"contracts/Day02.sol\":408:576  function getStatus() public view  returns(string memory name,string memory message) {... */\n    tag_10:\n        /* \"contracts/Day02.sol\":450:468  string memory name */\n      0x60\n        /* \"contracts/Day02.sol\":469:490  string memory message */\n      dup1\n        /* \"contracts/Day02.sol\":510:520  userStatus */\n      0x00\n        /* \"contracts/Day02.sol\":510:532  userStatus[msg.sender] */\n      dup1\n        /* \"contracts/Day02.sol\":521:531  msg.sender */\n      caller\n        /* \"contracts/Day02.sol\":510:532  userStatus[msg.sender] */\n      0xffffffffffffffffffffffffffffffffffffffff\n      and\n      0xffffffffffffffffffffffffffffffffffffffff\n      and\n      dup2\n      mstore\n      0x20\n      add\n      swap1\n      dup2\n      mstore\n      0x20\n      add\n      0x00\n      keccak256\n        /* \"contracts/Day02.sol\":510:537  userStatus[msg.sender].name */\n      0x00\n      add\n        /* \"contracts/Day02.sol\":538:548  userStatus */\n      0x00\n        /* \"contracts/Day02.sol\":538:560  userStatus[msg.sender] */\n      dup1\n        /* \"contracts/Day02.sol\":549:559  msg.sender */\n      caller\n        /* \"contracts/Day02.sol\":538:560  userStatus[msg.sender] */\n      0xffffffffffffffffffffffffffffffffffffffff\n      and\n      0xffffffffffffffffffffffffffffffffffffffff\n      and\n      dup2\n      mstore\n      0x20\n      add\n      swap1\n      dup2\n      mstore\n      0x20\n      add\n      0x00\n      keccak256\n        /* \"contracts/Day02.sol\":538:568  userStatus[msg.sender].message */\n      0x01\n      add\n        /* \"contracts/Day02.sol\":502:569  return (userStatus[msg.sender].name,userStatus[msg.sender].message) */\n      dup2\n      dup1\n      sload\n      tag_18\n      swap1\n      tag_19\n      jump\t// in\n    tag_18:\n      dup1\n      0x1f\n      add\n      0x20\n      dup1\n      swap2\n      div\n      mul\n      0x20\n      add\n      mload(0x40)\n      swap1\n      dup2\n      add\n      0x40\n      mstore\n      dup1\n      swap3\n      swap2\n      swap1\n      dup2\n      dup2\n      mstore\n      0x20\n      add\n      dup3\n      dup1\n      sload\n      tag_20\n      swap1\n      tag_19\n      jump\t// in\n    tag_20:\n      dup1\n      iszero\n      tag_21\n      jumpi\n      dup1\n      0x1f\n      lt\n      tag_22\n      jumpi\n      0x0100\n      dup1\n      dup4\n      sload\n      div\n      mul\n      dup4\n      mstore\n      swap2\n      0x20\n      add\n      swap2\n      jump(tag_21)\n    tag_22:\n      dup3\n      add\n      swap2\n      swap1\n      0x00\n      mstore\n      keccak256(0x00, 0x20)\n      swap1\n    tag_23:\n      dup2\n      sload\n      dup2\n      mstore\n      swap1\n      0x01\n      add\n      swap1\n      0x20\n      add\n      dup1\n      dup4\n      gt\n      tag_23\n      jumpi\n      dup3\n      swap1\n      sub\n      0x1f\n      and\n      dup3\n      add\n      swap2\n    tag_21:\n      pop\n      pop\n      pop\n      pop\n      pop\n      swap2\n      pop\n      dup1\n      dup1\n      sload\n      tag_24\n      swap1\n      tag_19\n      jump\t// in\n    tag_24:\n      dup1\n      0x1f\n      add\n      0x20\n      dup1\n      swap2\n      div\n      mul\n      0x20\n      add\n      mload(0x40)\n      swap1\n      dup2\n      add\n      0x40\n      mstore\n      dup1\n      swap3\n      swap2\n      swap1\n      dup2\n      dup2\n      mstore\n      0x20\n      add\n      dup3\n      dup1\n      sload\n      tag_25\n      swap1\n      tag_19\n      jump\t// in\n    tag_25:\n      dup1\n      iszero\n      tag_26\n      jumpi\n      dup1\n      0x1f\n      lt\n      tag_27\n      jumpi\n      0x0100\n      dup1\n      dup4\n      sload\n      div\n      mul\n      dup4\n      mstore\n      swap2\n      0x20\n      add\n      swap2\n      jump(tag_26)\n    tag_27:\n      dup3\n      add\n      swap2\n      swap1\n      0x00\n      mstore\n      keccak256(0x00, 0x20)\n      swap1\n    tag_28:\n      dup2\n      sload\n      dup2\n      mstore\n      swap1\n      0x01\n      add\n      swap1\n      0x20\n      add\n      dup1\n      dup4\n      gt\n      tag_28\n      jumpi\n      dup3\n      swap1\n      sub\n      0x1f\n      and\n      dup3\n      add\n      swap2\n    tag_26:\n      pop\n      pop\n      pop\n      pop\n      pop\n      swap1\n      pop\n      swap2\n      pop\n      swap2\n      pop\n        /* \"contracts/Day02.sol\":408:576  function getStatus() public view  returns(string memory name,string memory message) {... */\n      swap1\n      swap2\n      jump\t// out\n        /* \"#utility.yul\":7:82   */\n    tag_29:\n        /* \"#utility.yul\":40:46   */\n      0x00\n        /* \"#utility.yul\":73:75   */\n      0x40\n        /* \"#utility.yul\":67:76   */\n      mload\n        /* \"#utility.yul\":57:76   */\n      swap1\n      pop\n        /* \"#utility.yul\":7:82   */\n      swap1\n      jump\t// out\n        /* \"#utility.yul\":88:205   */\n    tag_30:\n        /* \"#utility.yul\":197:198   */\n      0x00\n        /* \"#utility.yul\":194:195   */\n      dup1\n        /* \"#utility.yul\":187:199   */\n      revert\n        /* \"#utility.yul\":211:328   */\n    tag_31:\n        /* \"#utility.yul\":320:321   */\n      0x00\n        /* \"#utility.yul\":317:318   */\n      dup1\n        /* \"#utility.yul\":310:322   */\n      revert\n        /* \"#utility.yul\":334:451   */\n    tag_32:\n        /* \"#utility.yul\":443:444   */\n      0x00\n        /* \"#utility.yul\":440:441   */\n      dup1\n        /* \"#utility.yul\":433:445   */\n      revert\n        /* \"#utility.yul\":457:574   */\n    tag_33:\n        /* \"#utility.yul\":566:567   */\n      0x00\n        /* \"#utility.yul\":563:564   */\n      dup1\n        /* \"#utility.yul\":556:568   */\n      revert\n        /* \"#utility.yul\":580:682   */\n    tag_34:\n        /* \"#utility.yul\":621:627   */\n      0x00\n        /* \"#utility.yul\":672:674   */\n      0x1f\n        /* \"#utility.yul\":668:675   */\n      not\n        /* \"#utility.yul\":663:665   */\n      0x1f\n        /* \"#utility.yul\":656:661   */\n      dup4\n        /* \"#utility.yul\":652:666   */\n      add\n        /* \"#utility.yul\":648:676   */\n      and\n        /* \"#utility.yul\":638:676   */\n      swap1\n      pop\n        /* \"#utility.yul\":580:682   */\n      swap2\n      swap1\n      pop\n      jump\t// out\n        /* \"#utility.yul\":688:868   */\n    tag_35:\n        /* \"#utility.yul\":736:813   */\n      0x4e487b7100000000000000000000000000000000000000000000000000000000\n        /* \"#utility.yul\":733:734   */\n      0x00\n        /* \"#utility.yul\":726:814   */\n      mstore\n        /* \"#utility.yul\":833:837   */\n      0x41\n        /* \"#utility.yul\":830:831   */\n      0x04\n        /* \"#utility.yul\":823:838   */\n      mstore\n        /* \"#utility.yul\":857:861   */\n      0x24\n        /* \"#utility.yul\":854:855   */\n      0x00\n        /* \"#utility.yul\":847:862   */\n      revert\n        /* \"#utility.yul\":874:1155   */\n    tag_36:\n        /* \"#utility.yul\":957:984   */\n      tag_72\n        /* \"#utility.yul\":979:983   */\n      dup3\n        /* \"#utility.yul\":957:984   */\n      tag_34\n      jump\t// in\n    tag_72:\n        /* \"#utility.yul\":949:955   */\n      dup2\n        /* \"#utility.yul\":945:985   */\n      add\n        /* \"#utility.yul\":1087:1093   */\n      dup2\n        /* \"#utility.yul\":1075:1085   */\n      dup2\n        /* \"#utility.yul\":1072:1094   */\n      lt\n        /* \"#utility.yul\":1051:1069   */\n      0xffffffffffffffff\n        /* \"#utility.yul\":1039:1049   */\n      dup3\n        /* \"#utility.yul\":1036:1070   */\n      gt\n        /* \"#utility.yul\":1033:1095   */\n      or\n        /* \"#utility.yul\":1030:1118   */\n      iszero\n      tag_73\n      jumpi\n        /* \"#utility.yul\":1098:1116   */\n      tag_74\n      tag_35\n      jump\t// in\n    tag_74:\n        /* \"#utility.yul\":1030:1118   */\n    tag_73:\n        /* \"#utility.yul\":1138:1148   */\n      dup1\n        /* \"#utility.yul\":1134:1136   */\n      0x40\n        /* \"#utility.yul\":1127:1149   */\n      mstore\n        /* \"#utility.yul\":917:1155   */\n      pop\n        /* \"#utility.yul\":874:1155   */\n      pop\n      pop\n      jump\t// out\n        /* \"#utility.yul\":1161:1290   */\n    tag_37:\n        /* \"#utility.yul\":1195:1201   */\n      0x00\n        /* \"#utility.yul\":1222:1242   */\n      tag_76\n      tag_29\n      jump\t// in\n    tag_76:\n        /* \"#utility.yul\":1212:1242   */\n      swap1\n      pop\n        /* \"#utility.yul\":1251:1284   */\n      tag_77\n        /* \"#utility.yul\":1279:1283   */\n      dup3\n        /* \"#utility.yul\":1271:1277   */\n      dup3\n        /* \"#utility.yul\":1251:1284   */\n      tag_36\n      jump\t// in\n    tag_77:\n        /* \"#utility.yul\":1161:1290   */\n      swap2\n      swap1\n      pop\n      jump\t// out\n        /* \"#utility.yul\":1296:1604   */\n    tag_38:\n        /* \"#utility.yul\":1358:1362   */\n      0x00\n        /* \"#utility.yul\":1448:1466   */\n      0xffffffffffffffff\n        /* \"#utility.yul\":1440:1446   */\n      dup3\n        /* \"#utility.yul\":1437:1467   */\n      gt\n        /* \"#utility.yul\":1434:1490   */\n      iszero\n      tag_79\n      jumpi\n        /* \"#utility.yul\":1470:1488   */\n      tag_80\n      tag_35\n      jump\t// in\n    tag_80:\n        /* \"#utility.yul\":1434:1490   */\n    tag_79:\n        /* \"#utility.yul\":1508:1537   */\n      tag_81\n        /* \"#utility.yul\":1530:1536   */\n      dup3\n        /* \"#utility.yul\":1508:1537   */\n      tag_34\n      jump\t// in\n    tag_81:\n        /* \"#utility.yul\":1500:1537   */\n      swap1\n      pop\n        /* \"#utility.yul\":1592:1596   */\n      0x20\n        /* \"#utility.yul\":1586:1590   */\n      dup2\n        /* \"#utility.yul\":1582:1597   */\n      add\n        /* \"#utility.yul\":1574:1597   */\n      swap1\n      pop\n        /* \"#utility.yul\":1296:1604   */\n      swap2\n      swap1\n      pop\n      jump\t// out\n        /* \"#utility.yul\":1610:1758   */\n    tag_39:\n        /* \"#utility.yul\":1708:1714   */\n      dup3\n        /* \"#utility.yul\":1703:1706   */\n      dup2\n        /* \"#utility.yul\":1698:1701   */\n      dup4\n        /* \"#utility.yul\":1685:1715   */\n      calldatacopy\n        /* \"#utility.yul\":1749:1750   */\n      0x00\n        /* \"#utility.yul\":1740:1746   */\n      dup4\n        /* \"#utility.yul\":1735:1738   */\n      dup4\n        /* \"#utility.yul\":1731:1747   */\n      add\n        /* \"#utility.yul\":1724:1751   */\n      mstore\n        /* \"#utility.yul\":1610:1758   */\n      pop\n      pop\n      pop\n      jump\t// out\n        /* \"#utility.yul\":1764:2189   */\n    tag_40:\n        /* \"#utility.yul\":1842:1847   */\n      0x00\n        /* \"#utility.yul\":1867:1933   */\n      tag_84\n        /* \"#utility.yul\":1883:1932   */\n      tag_85\n        /* \"#utility.yul\":1925:1931   */\n      dup5\n        /* \"#utility.yul\":1883:1932   */\n      tag_38\n      jump\t// in\n    tag_85:\n        /* \"#utility.yul\":1867:1933   */\n      tag_37\n      jump\t// in\n    tag_84:\n        /* \"#utility.yul\":1858:1933   */\n      swap1\n      pop\n        /* \"#utility.yul\":1956:1962   */\n      dup3\n        /* \"#utility.yul\":1949:1954   */\n      dup2\n        /* \"#utility.yul\":1942:1963   */\n      mstore\n        /* \"#utility.yul\":1994:1998   */\n      0x20\n        /* \"#utility.yul\":1987:1992   */\n      dup2\n        /* \"#utility.yul\":1983:1999   */\n      add\n        /* \"#utility.yul\":2032:2035   */\n      dup5\n        /* \"#utility.yul\":2023:2029   */\n      dup5\n        /* \"#utility.yul\":2018:2021   */\n      dup5\n        /* \"#utility.yul\":2014:2030   */\n      add\n        /* \"#utility.yul\":2011:2036   */\n      gt\n        /* \"#utility.yul\":2008:2120   */\n      iszero\n      tag_86\n      jumpi\n        /* \"#utility.yul\":2039:2118   */\n      tag_87\n      tag_33\n      jump\t// in\n    tag_87:\n        /* \"#utility.yul\":2008:2120   */\n    tag_86:\n        /* \"#utility.yul\":2129:2183   */\n      tag_88\n        /* \"#utility.yul\":2176:2182   */\n      dup5\n        /* \"#utility.yul\":2171:2174   */\n      dup3\n        /* \"#utility.yul\":2166:2169   */\n      dup6\n        /* \"#utility.yul\":2129:2183   */\n      tag_39\n      jump\t// in\n    tag_88:\n        /* \"#utility.yul\":1848:2189   */\n      pop\n        /* \"#utility.yul\":1764:2189   */\n      swap4\n      swap3\n      pop\n      pop\n      pop\n      jump\t// out\n        /* \"#utility.yul\":2209:2549   */\n    tag_41:\n        /* \"#utility.yul\":2265:2270   */\n      0x00\n        /* \"#utility.yul\":2314:2317   */\n      dup3\n        /* \"#utility.yul\":2307:2311   */\n      0x1f\n        /* \"#utility.yul\":2299:2305   */\n      dup4\n        /* \"#utility.yul\":2295:2312   */\n      add\n        /* \"#utility.yul\":2291:2318   */\n      slt\n        /* \"#utility.yul\":2281:2403   */\n      tag_90\n      jumpi\n        /* \"#utility.yul\":2322:2401   */\n      tag_91\n      tag_32\n      jump\t// in\n    tag_91:\n        /* \"#utility.yul\":2281:2403   */\n    tag_90:\n        /* \"#utility.yul\":2439:2445   */\n      dup2\n        /* \"#utility.yul\":2426:2446   */\n      calldataload\n        /* \"#utility.yul\":2464:2543   */\n      tag_92\n        /* \"#utility.yul\":2539:2542   */\n      dup5\n        /* \"#utility.yul\":2531:2537   */\n      dup3\n        /* \"#utility.yul\":2524:2528   */\n      0x20\n        /* \"#utility.yul\":2516:2522   */\n      dup7\n        /* \"#utility.yul\":2512:2529   */\n      add\n        /* \"#utility.yul\":2464:2543   */\n      tag_40\n      jump\t// in\n    tag_92:\n        /* \"#utility.yul\":2455:2543   */\n      swap2\n      pop\n        /* \"#utility.yul\":2271:2549   */\n      pop\n        /* \"#utility.yul\":2209:2549   */\n      swap3\n      swap2\n      pop\n      pop\n      jump\t// out\n        /* \"#utility.yul\":2555:3389   */\n    tag_7:\n        /* \"#utility.yul\":2643:2649   */\n      0x00\n        /* \"#utility.yul\":2651:2657   */\n      dup1\n        /* \"#utility.yul\":2700:2702   */\n      0x40\n        /* \"#utility.yul\":2688:2697   */\n      dup4\n        /* \"#utility.yul\":2679:2686   */\n      dup6\n        /* \"#utility.yul\":2675:2698   */\n      sub\n        /* \"#utility.yul\":2671:2703   */\n      slt\n        /* \"#utility.yul\":2668:2787   */\n      iszero\n      tag_94\n      jumpi\n        /* \"#utility.yul\":2706:2785   */\n      tag_95\n      tag_30\n      jump\t// in\n    tag_95:\n        /* \"#utility.yul\":2668:2787   */\n    tag_94:\n        /* \"#utility.yul\":2854:2855   */\n      0x00\n        /* \"#utility.yul\":2843:2852   */\n      dup4\n        /* \"#utility.yul\":2839:2856   */\n      add\n        /* \"#utility.yul\":2826:2857   */\n      calldataload\n        /* \"#utility.yul\":2884:2902   */\n      0xffffffffffffffff\n        /* \"#utility.yul\":2876:2882   */\n      dup2\n        /* \"#utility.yul\":2873:2903   */\n      gt\n        /* \"#utility.yul\":2870:2987   */\n      iszero\n      tag_96\n      jumpi\n        /* \"#utility.yul\":2906:2985   */\n      tag_97\n      tag_31\n      jump\t// in\n    tag_97:\n        /* \"#utility.yul\":2870:2987   */\n    tag_96:\n        /* \"#utility.yul\":3011:3074   */\n      tag_98\n        /* \"#utility.yul\":3066:3073   */\n      dup6\n        /* \"#utility.yul\":3057:3063   */\n      dup3\n        /* \"#utility.yul\":3046:3055   */\n      dup7\n        /* \"#utility.yul\":3042:3064   */\n      add\n        /* \"#utility.yul\":3011:3074   */\n      tag_41\n      jump\t// in\n    tag_98:\n        /* \"#utility.yul\":3001:3074   */\n      swap3\n      pop\n        /* \"#utility.yul\":2797:3084   */\n      pop\n        /* \"#utility.yul\":3151:3153   */\n      0x20\n        /* \"#utility.yul\":3140:3149   */\n      dup4\n        /* \"#utility.yul\":3136:3154   */\n      add\n        /* \"#utility.yul\":3123:3155   */\n      calldataload\n        /* \"#utility.yul\":3182:3200   */\n      0xffffffffffffffff\n        /* \"#utility.yul\":3174:3180   */\n      dup2\n        /* \"#utility.yul\":3171:3201   */\n      gt\n        /* \"#utility.yul\":3168:3285   */\n      iszero\n      tag_99\n      jumpi\n        /* \"#utility.yul\":3204:3283   */\n      tag_100\n      tag_31\n      jump\t// in\n    tag_100:\n        /* \"#utility.yul\":3168:3285   */\n    tag_99:\n        /* \"#utility.yul\":3309:3372   */\n      tag_101\n        /* \"#utility.yul\":3364:3371   */\n      dup6\n        /* \"#utility.yul\":3355:3361   */\n      dup3\n        /* \"#utility.yul\":3344:3353   */\n      dup7\n        /* \"#utility.yul\":3340:3362   */\n      add\n        /* \"#utility.yul\":3309:3372   */\n      tag_41\n      jump\t// in\n    tag_101:\n        /* \"#utility.yul\":3299:3372   */\n      swap2\n      pop\n        /* \"#utility.yul\":3094:3382   */\n      pop\n        /* \"#utility.yul\":2555:3389   */\n      swap3\n      pop\n      swap3\n      swap1\n      pop\n      jump\t// out\n        /* \"#utility.yul\":3395:3494   */\n    tag_42:\n        /* \"#utility.yul\":3447:3453   */\n      0x00\n        /* \"#utility.yul\":3481:3486   */\n      dup2\n        /* \"#utility.yul\":3475:3487   */\n      mload\n        /* \"#utility.yul\":3465:3487   */\n      swap1\n      pop\n        /* \"#utility.yul\":3395:3494   */\n      swap2\n      swap1\n      pop\n      jump\t// out\n        /* \"#utility.yul\":3500:3669   */\n    tag_43:\n        /* \"#utility.yul\":3584:3595   */\n      0x00\n        /* \"#utility.yul\":3618:3624   */\n      dup3\n        /* \"#utility.yul\":3613:3616   */\n      dup3\n        /* \"#utility.yul\":3606:3625   */\n      mstore\n        /* \"#utility.yul\":3658:3662   */\n      0x20\n        /* \"#utility.yul\":3653:3656   */\n      dup3\n        /* \"#utility.yul\":3649:3663   */\n      add\n        /* \"#utility.yul\":3634:3663   */\n      swap1\n      pop\n        /* \"#utility.yul\":3500:3669   */\n      swap3\n      swap2\n      pop\n      pop\n      jump\t// out\n        /* \"#utility.yul\":3675:3814   */\n    tag_44:\n        /* \"#utility.yul\":3764:3770   */\n      dup3\n        /* \"#utility.yul\":3759:3762   */\n      dup2\n        /* \"#utility.yul\":3754:3757   */\n      dup4\n        /* \"#utility.yul\":3748:3771   */\n      mcopy\n        /* \"#utility.yul\":3805:3806   */\n      0x00\n        /* \"#utility.yul\":3796:3802   */\n      dup4\n        /* \"#utility.yul\":3791:3794   */\n      dup4\n        /* \"#utility.yul\":3787:3803   */\n      add\n        /* \"#utility.yul\":3780:3807   */\n      mstore\n        /* \"#utility.yul\":3675:3814   */\n      pop\n      pop\n      pop\n      jump\t// out\n        /* \"#utility.yul\":3820:4197   */\n    tag_45:\n        /* \"#utility.yul\":3908:3911   */\n      0x00\n        /* \"#utility.yul\":3936:3975   */\n      tag_106\n        /* \"#utility.yul\":3969:3974   */\n      dup3\n        /* \"#utility.yul\":3936:3975   */\n      tag_42\n      jump\t// in\n    tag_106:\n        /* \"#utility.yul\":3991:4062   */\n      tag_107\n        /* \"#utility.yul\":4055:4061   */\n      dup2\n        /* \"#utility.yul\":4050:4053   */\n      dup6\n        /* \"#utility.yul\":3991:4062   */\n      tag_43\n      jump\t// in\n    tag_107:\n        /* \"#utility.yul\":3984:4062   */\n      swap4\n      pop\n        /* \"#utility.yul\":4071:4136   */\n      tag_108\n        /* \"#utility.yul\":4129:4135   */\n      dup2\n        /* \"#utility.yul\":4124:4127   */\n      dup6\n        /* \"#utility.yul\":4117:4121   */\n      0x20\n        /* \"#utility.yul\":4110:4115   */\n      dup7\n        /* \"#utility.yul\":4106:4122   */\n      add\n        /* \"#utility.yul\":4071:4136   */\n      tag_44\n      jump\t// in\n    tag_108:\n        /* \"#utility.yul\":4161:4190   */\n      tag_109\n        /* \"#utility.yul\":4183:4189   */\n      dup2\n        /* \"#utility.yul\":4161:4190   */\n      tag_34\n      jump\t// in\n    tag_109:\n        /* \"#utility.yul\":4156:4159   */\n      dup5\n        /* \"#utility.yul\":4152:4191   */\n      add\n        /* \"#utility.yul\":4145:4191   */\n      swap2\n      pop\n        /* \"#utility.yul\":3912:4197   */\n      pop\n        /* \"#utility.yul\":3820:4197   */\n      swap3\n      swap2\n      pop\n      pop\n      jump\t// out\n        /* \"#utility.yul\":4203:4717   */\n    tag_12:\n        /* \"#utility.yul\":4364:4368   */\n      0x00\n        /* \"#utility.yul\":4402:4404   */\n      0x40\n        /* \"#utility.yul\":4391:4400   */\n      dup3\n        /* \"#utility.yul\":4387:4405   */\n      add\n        /* \"#utility.yul\":4379:4405   */\n      swap1\n      pop\n        /* \"#utility.yul\":4451:4460   */\n      dup2\n        /* \"#utility.yul\":4445:4449   */\n      dup2\n        /* \"#utility.yul\":4441:4461   */\n      sub\n        /* \"#utility.yul\":4437:4438   */\n      0x00\n        /* \"#utility.yul\":4426:4435   */\n      dup4\n        /* \"#utility.yul\":4422:4439   */\n      add\n        /* \"#utility.yul\":4415:4462   */\n      mstore\n        /* \"#utility.yul\":4479:4557   */\n      tag_111\n        /* \"#utility.yul\":4552:4556   */\n      dup2\n        /* \"#utility.yul\":4543:4549   */\n      dup6\n        /* \"#utility.yul\":4479:4557   */\n      tag_45\n      jump\t// in\n    tag_111:\n        /* \"#utility.yul\":4471:4557   */\n      swap1\n      pop\n        /* \"#utility.yul\":4604:4613   */\n      dup2\n        /* \"#utility.yul\":4598:4602   */\n      dup2\n        /* \"#utility.yul\":4594:4614   */\n      sub\n        /* \"#utility.yul\":4589:4591   */\n      0x20\n        /* \"#utility.yul\":4578:4587   */\n      dup4\n        /* \"#utility.yul\":4574:4592   */\n      add\n        /* \"#utility.yul\":4567:4615   */\n      mstore\n        /* \"#utility.yul\":4632:4710   */\n      tag_112\n        /* \"#utility.yul\":4705:4709   */\n      dup2\n        /* \"#utility.yul\":4696:4702   */\n      dup5\n        /* \"#utility.yul\":4632:4710   */\n      tag_45\n      jump\t// in\n    tag_112:\n        /* \"#utility.yul\":4624:4710   */\n      swap1\n      pop\n        /* \"#utility.yul\":4203:4717   */\n      swap4\n      swap3\n      pop\n      pop\n      pop\n      jump\t// out\n        /* \"#utility.yul\":4723:4903   */\n    tag_46:\n        /* \"#utility.yul\":4771:4848   */\n      0x4e487b7100000000000000000000000000000000000000000000000000000000\n        /* \"#utility.yul\":4768:4769   */\n      0x00\n        /* \"#utility.yul\":4761:4849   */\n      mstore\n        /* \"#utility.yul\":4868:4872   */\n      0x22\n        /* \"#utility.yul\":4865:4866   */\n      0x04\n        /* \"#utility.yul\":4858:4873   */\n      mstore\n        /* \"#utility.yul\":4892:4896   */\n      0x24\n        /* \"#utility.yul\":4889:4890   */\n      0x00\n        /* \"#utility.yul\":4882:4897   */\n      revert\n        /* \"#utility.yul\":4909:5229   */\n    tag_19:\n        /* \"#utility.yul\":4953:4959   */\n      0x00\n        /* \"#utility.yul\":4990:4991   */\n      0x02\n        /* \"#utility.yul\":4984:4988   */\n      dup3\n        /* \"#utility.yul\":4980:4992   */\n      div\n        /* \"#utility.yul\":4970:4992   */\n      swap1\n      pop\n        /* \"#utility.yul\":5037:5038   */\n      0x01\n        /* \"#utility.yul\":5031:5035   */\n      dup3\n        /* \"#utility.yul\":5027:5039   */\n      and\n        /* \"#utility.yul\":5058:5076   */\n      dup1\n        /* \"#utility.yul\":5048:5129   */\n      tag_115\n      jumpi\n        /* \"#utility.yul\":5114:5118   */\n      0x7f\n        /* \"#utility.yul\":5106:5112   */\n      dup3\n        /* \"#utility.yul\":5102:5119   */\n      and\n        /* \"#utility.yul\":5092:5119   */\n      swap2\n      pop\n        /* \"#utility.yul\":5048:5129   */\n    tag_115:\n        /* \"#utility.yul\":5176:5178   */\n      0x20\n        /* \"#utility.yul\":5168:5174   */\n      dup3\n        /* \"#utility.yul\":5165:5179   */\n      lt\n        /* \"#utility.yul\":5145:5163   */\n      dup2\n        /* \"#utility.yul\":5142:5180   */\n      sub\n        /* \"#utility.yul\":5139:5223   */\n      tag_116\n      jumpi\n        /* \"#utility.yul\":5195:5213   */\n      tag_117\n      tag_46\n      jump\t// in\n    tag_117:\n        /* \"#utility.yul\":5139:5223   */\n    tag_116:\n        /* \"#utility.yul\":4960:5229   */\n      pop\n        /* \"#utility.yul\":4909:5229   */\n      swap2\n      swap1\n      pop\n      jump\t// out\n        /* \"#utility.yul\":5235:5376   */\n    tag_47:\n        /* \"#utility.yul\":5284:5288   */\n      0x00\n        /* \"#utility.yul\":5307:5310   */\n      dup2\n        /* \"#utility.yul\":5299:5310   */\n      swap1\n      pop\n        /* \"#utility.yul\":5330:5333   */\n      dup2\n        /* \"#utility.yul\":5327:5328   */\n      0x00\n        /* \"#utility.yul\":5320:5334   */\n      mstore\n        /* \"#utility.yul\":5364:5368   */\n      0x20\n        /* \"#utility.yul\":5361:5362   */\n      0x00\n        /* \"#utility.yul\":5351:5369   */\n      keccak256\n        /* \"#utility.yul\":5343:5369   */\n      swap1\n      pop\n        /* \"#utility.yul\":5235:5376   */\n      swap2\n      swap1\n      pop\n      jump\t// out\n        /* \"#utility.yul\":5382:5475   */\n    tag_48:\n        /* \"#utility.yul\":5419:5425   */\n      0x00\n        /* \"#utility.yul\":5466:5468   */\n      0x20\n        /* \"#utility.yul\":5461:5463   */\n      0x1f\n        /* \"#utility.yul\":5454:5459   */\n      dup4\n        /* \"#utility.yul\":5450:5464   */\n      add\n        /* \"#utility.yul\":5446:5469   */\n      div\n        /* \"#utility.yul\":5436:5469   */\n      swap1\n      pop\n        /* \"#utility.yul\":5382:5475   */\n      swap2\n      swap1\n      pop\n      jump\t// out\n        /* \"#utility.yul\":5481:5588   */\n    tag_49:\n        /* \"#utility.yul\":5525:5533   */\n      0x00\n        /* \"#utility.yul\":5575:5580   */\n      dup3\n        /* \"#utility.yul\":5569:5573   */\n      dup3\n        /* \"#utility.yul\":5565:5581   */\n      shl\n        /* \"#utility.yul\":5544:5581   */\n      swap1\n      pop\n        /* \"#utility.yul\":5481:5588   */\n      swap3\n      swap2\n      pop\n      pop\n      jump\t// out\n        /* \"#utility.yul\":5594:5987   */\n    tag_50:\n        /* \"#utility.yul\":5663:5669   */\n      0x00\n        /* \"#utility.yul\":5713:5714   */\n      0x08\n        /* \"#utility.yul\":5701:5711   */\n      dup4\n        /* \"#utility.yul\":5697:5715   */\n      mul\n        /* \"#utility.yul\":5736:5833   */\n      tag_122\n        /* \"#utility.yul\":5766:5832   */\n      0xffffffffffffffffffffffffffffffffffffffffffffffffffffffffffffffff\n        /* \"#utility.yul\":5755:5764   */\n      dup3\n        /* \"#utility.yul\":5736:5833   */\n      tag_49\n      jump\t// in\n    tag_122:\n        /* \"#utility.yul\":5854:5893   */\n      tag_123\n        /* \"#utility.yul\":5884:5892   */\n      dup7\n        /* \"#utility.yul\":5873:5882   */\n      dup4\n        /* \"#utility.yul\":5854:5893   */\n      tag_49\n      jump\t// in\n    tag_123:\n        /* \"#utility.yul\":5842:5893   */\n      swap6\n      pop\n        /* \"#utility.yul\":5926:5930   */\n      dup1\n        /* \"#utility.yul\":5922:5931   */\n      not\n        /* \"#utility.yul\":5915:5920   */\n      dup5\n        /* \"#utility.yul\":5911:5932   */\n      and\n        /* \"#utility.yul\":5902:5932   */\n      swap4\n      pop\n        /* \"#utility.yul\":5975:5979   */\n      dup1\n        /* \"#utility.yul\":5965:5973   */\n      dup7\n        /* \"#utility.yul\":5961:5980   */\n      and\n        /* \"#utility.yul\":5954:5959   */\n      dup5\n        /* \"#utility.yul\":5951:5981   */\n      or\n        /* \"#utility.yul\":5941:5981   */\n      swap3\n      pop\n        /* \"#utility.yul\":5670:5987   */\n      pop\n      pop\n        /* \"#utility.yul\":5594:5987   */\n      swap4\n      swap3\n      pop\n      pop\n      pop\n      jump\t// out\n        /* \"#utility.yul\":5993:6070   */\n    tag_51:\n        /* \"#utility.yul\":6030:6037   */\n      0x00\n        /* \"#utility.yul\":6059:6064   */\n      dup2\n        /* \"#utility.yul\":6048:6064   */\n      swap1\n      pop\n        /* \"#utility.yul\":5993:6070   */\n      swap2\n      swap1\n      pop\n      jump\t// out\n        /* \"#utility.yul\":6076:6136   */\n    tag_52:\n        /* \"#utility.yul\":6104:6107   */\n      0x00\n        /* \"#utility.yul\":6125:6130   */\n      dup2\n        /* \"#utility.yul\":6118:6130   */\n      swap1\n      pop\n        /* \"#utility.yul\":6076:6136   */\n      swap2\n      swap1\n      pop\n      jump\t// out\n        /* \"#utility.yul\":6142:6284   */\n    tag_53:\n        /* \"#utility.yul\":6192:6201   */\n      0x00\n        /* \"#utility.yul\":6225:6278   */\n      tag_127\n        /* \"#utility.yul\":6243:6277   */\n      tag_128\n        /* \"#utility.yul\":6252:6276   */\n      tag_129\n        /* \"#utility.yul\":6270:6275   */\n      dup5\n        /* \"#utility.yul\":6252:6276   */\n      tag_51\n      jump\t// in\n    tag_129:\n        /* \"#utility.yul\":6243:6277   */\n      tag_52\n      jump\t// in\n    tag_128:\n        /* \"#utility.yul\":6225:6278   */\n      tag_51\n      jump\t// in\n    tag_127:\n        /* \"#utility.yul\":6212:6278   */\n      swap1\n      pop\n        /* \"#utility.yul\":6142:6284   */\n      swap2\n      swap1\n      pop\n      jump\t// out\n        /* \"#utility.yul\":6290:6365   */\n    tag_54:\n        /* \"#utility.yul\":6333:6336   */\n      0x00\n        /* \"#utility.yul\":6354:6359   */\n      dup2\n        /* \"#utility.yul\":6347:6359   */\n      swap1\n      pop\n        /* \"#utility.yul\":6290:6365   */\n      swap2\n      swap1\n      pop\n      jump\t// out\n        /* \"#utility.yul\":6371:6640   */\n    tag_55:\n        /* \"#utility.yul\":6481:6520   */\n      tag_132\n        /* \"#utility.yul\":6512:6519   */\n      dup4\n        /* \"#utility.yul\":6481:6520   */\n      tag_53\n      jump\t// in\n    tag_132:\n        /* \"#utility.yul\":6542:6633   */\n      tag_133\n        /* \"#utility.yul\":6591:6632   */\n      tag_134\n        /* \"#utility.yul\":6615:6631   */\n      dup3\n        /* \"#utility.yul\":6591:6632   */\n      tag_54\n      jump\t// in\n    tag_134:\n        /* \"#utility.yul\":6583:6589   */\n      dup5\n        /* \"#utility.yul\":6576:6580   */\n      dup5\n        /* \"#utility.yul\":6570:6581   */\n      sload\n        /* \"#utility.yul\":6542:6633   */\n      tag_50\n      jump\t// in\n    tag_133:\n        /* \"#utility.yul\":6536:6540   */\n      dup3\n        /* \"#utility.yul\":6529:6634   */\n      sstore\n        /* \"#utility.yul\":6447:6640   */\n      pop\n        /* \"#utility.yul\":6371:6640   */\n      pop\n      pop\n      pop\n      jump\t// out\n        /* \"#utility.yul\":6646:6719   */\n    tag_56:\n        /* \"#utility.yul\":6691:6694   */\n      0x00\n        /* \"#utility.yul\":6646:6719   */\n      swap1\n      jump\t// out\n        /* \"#utility.yul\":6725:6914   */\n    tag_57:\n        /* \"#utility.yul\":6802:6834   */\n      tag_137\n      tag_56\n      jump\t// in\n    tag_137:\n        /* \"#utility.yul\":6843:6908   */\n      tag_138\n        /* \"#utility.yul\":6901:6907   */\n      dup2\n        /* \"#utility.yul\":6893:6899   */\n      dup5\n        /* \"#utility.yul\":6887:6891   */\n      dup5\n        /* \"#utility.yul\":6843:6908   */\n      tag_55\n      jump\t// in\n    tag_138:\n        /* \"#utility.yul\":6778:6914   */\n      pop\n        /* \"#utility.yul\":6725:6914   */\n      pop\n      pop\n      jump\t// out\n        /* \"#utility.yul\":6920:7106   */\n    tag_58:\n        /* \"#utility.yul\":6980:7100   */\n    tag_140:\n        /* \"#utility.yul\":6997:7000   */\n      dup2\n        /* \"#utility.yul\":6990:6995   */\n      dup2\n        /* \"#utility.yul\":6987:7001   */\n      lt\n        /* \"#utility.yul\":6980:7100   */\n      iszero\n      tag_142\n      jumpi\n        /* \"#utility.yul\":7051:7090   */\n      tag_143\n        /* \"#utility.yul\":7088:7089   */\n      0x00\n        /* \"#utility.yul\":7081:7086   */\n      dup3\n        /* \"#utility.yul\":7051:7090   */\n      tag_57\n      jump\t// in\n    tag_143:\n        /* \"#utility.yul\":7024:7025   */\n      0x01\n        /* \"#utility.yul\":7017:7022   */\n      dup2\n        /* \"#utility.yul\":7013:7026   */\n      add\n        /* \"#utility.yul\":7004:7026   */\n      swap1\n      pop\n        /* \"#utility.yul\":6980:7100   */\n      jump(tag_140)\n    tag_142:\n        /* \"#utility.yul\":6920:7106   */\n      pop\n      pop\n      jump\t// out\n        /* \"#utility.yul\":7112:7655   */\n    tag_59:\n        /* \"#utility.yul\":7213:7215   */\n      0x1f\n        /* \"#utility.yul\":7208:7211   */\n      dup3\n        /* \"#utility.yul\":7205:7216   */\n      gt\n        /* \"#utility.yul\":7202:7648   */\n      iszero\n      tag_145\n      jumpi\n        /* \"#utility.yul\":7247:7285   */\n      tag_146\n        /* \"#utility.yul\":7279:7284   */\n      dup2\n        /* \"#utility.yul\":7247:7285   */\n      tag_47\n      jump\t// in\n    tag_146:\n        /* \"#utility.yul\":7331:7360   */\n      tag_147\n        /* \"#utility.yul\":7349:7359   */\n      dup5\n        /* \"#utility.yul\":7331:7360   */\n      tag_48\n      jump\t// in\n    tag_147:\n        /* \"#utility.yul\":7321:7329   */\n      dup2\n        /* \"#utility.yul\":7317:7361   */\n      add\n        /* \"#utility.yul\":7514:7516   */\n      0x20\n        /* \"#utility.yul\":7502:7512   */\n      dup6\n        /* \"#utility.yul\":7499:7517   */\n      lt\n        /* \"#utility.yul\":7496:7545   */\n      iszero\n      tag_148\n      jumpi\n        /* \"#utility.yul\":7535:7543   */\n      dup2\n        /* \"#utility.yul\":7520:7543   */\n      swap1\n      pop\n        /* \"#utility.yul\":7496:7545   */\n    tag_148:\n        /* \"#utility.yul\":7558:7638   */\n      tag_149\n        /* \"#utility.yul\":7614:7636   */\n      tag_150\n        /* \"#utility.yul\":7632:7635   */\n      dup6\n        /* \"#utility.yul\":7614:7636   */\n      tag_48\n      jump\t// in\n    tag_150:\n        /* \"#utility.yul\":7604:7612   */\n      dup4\n        /* \"#utility.yul\":7600:7637   */\n      add\n        /* \"#utility.yul\":7587:7598   */\n      dup3\n        /* \"#utility.yul\":7558:7638   */\n      tag_58\n      jump\t// in\n    tag_149:\n        /* \"#utility.yul\":7217:7648   */\n      pop\n      pop\n        /* \"#utility.yul\":7202:7648   */\n    tag_145:\n        /* \"#utility.yul\":7112:7655   */\n      pop\n      pop\n      pop\n      jump\t// out\n        /* \"#utility.yul\":7661:7778   */\n    tag_60:\n        /* \"#utility.yul\":7715:7723   */\n      0x00\n        /* \"#utility.yul\":7765:7770   */\n      dup3\n        /* \"#utility.yul\":7759:7763   */\n      dup3\n        /* \"#utility.yul\":7755:7771   */\n      shr\n        /* \"#utility.yul\":7734:7771   */\n      swap1\n      pop\n        /* \"#utility.yul\":7661:7778   */\n      swap3\n      swap2\n      pop\n      pop\n      jump\t// out\n        /* \"#utility.yul\":7784:7953   */\n    tag_61:\n        /* \"#utility.yul\":7828:7834   */\n      0x00\n        /* \"#utility.yul\":7861:7912   */\n      tag_153\n        /* \"#utility.yul\":7909:7910   */\n      0x00\n        /* \"#utility.yul\":7905:7911   */\n      not\n        /* \"#utility.yul\":7897:7902   */\n      dup5\n        /* \"#utility.yul\":7894:7895   */\n      0x08\n        /* \"#utility.yul\":7890:7903   */\n      mul\n        /* \"#utility.yul\":7861:7912   */\n      tag_60\n      jump\t// in\n    tag_153:\n        /* \"#utility.yul\":7857:7913   */\n      not\n        /* \"#utility.yul\":7942:7946   */\n      dup1\n        /* \"#utility.yul\":7936:7940   */\n      dup4\n        /* \"#utility.yul\":7932:7947   */\n      and\n        /* \"#utility.yul\":7922:7947   */\n      swap2\n      pop\n        /* \"#utility.yul\":7835:7953   */\n      pop\n        /* \"#utility.yul\":7784:7953   */\n      swap3\n      swap2\n      pop\n      pop\n      jump\t// out\n        /* \"#utility.yul\":7958:8253   */\n    tag_62:\n        /* \"#utility.yul\":8034:8038   */\n      0x00\n        /* \"#utility.yul\":8180:8209   */\n      tag_155\n        /* \"#utility.yul\":8205:8208   */\n      dup4\n        /* \"#utility.yul\":8199:8203   */\n      dup4\n        /* \"#utility.yul\":8180:8209   */\n      tag_61\n      jump\t// in\n    tag_155:\n        /* \"#utility.yul\":8172:8209   */\n      swap2\n      pop\n        /* \"#utility.yul\":8242:8245   */\n      dup3\n        /* \"#utility.yul\":8239:8240   */\n      0x02\n        /* \"#utility.yul\":8235:8246   */\n      mul\n        /* \"#utility.yul\":8229:8233   */\n      dup3\n        /* \"#utility.yul\":8226:8247   */\n      or\n        /* \"#utility.yul\":8218:8247   */\n      swap1\n      pop\n        /* \"#utility.yul\":7958:8253   */\n      swap3\n      swap2\n      pop\n      pop\n      jump\t// out\n        /* \"#utility.yul\":8258:9653   */\n    tag_15:\n        /* \"#utility.yul\":8375:8412   */\n      tag_157\n        /* \"#utility.yul\":8408:8411   */\n      dup3\n        /* \"#utility.yul\":8375:8412   */\n      tag_42\n      jump\t// in\n    tag_157:\n        /* \"#utility.yul\":8477:8495   */\n      0xffffffffffffffff\n        /* \"#utility.yul\":8469:8475   */\n      dup2\n        /* \"#utility.yul\":8466:8496   */\n      gt\n        /* \"#utility.yul\":8463:8519   */\n      iszero\n      tag_158\n      jumpi\n        /* \"#utility.yul\":8499:8517   */\n      tag_159\n      tag_35\n      jump\t// in\n    tag_159:\n        /* \"#utility.yul\":8463:8519   */\n    tag_158:\n        /* \"#utility.yul\":8543:8581   */\n      tag_160\n        /* \"#utility.yul\":8575:8579   */\n      dup3\n        /* \"#utility.yul\":8569:8580   */\n      sload\n        /* \"#utility.yul\":8543:8581   */\n      tag_19\n      jump\t// in\n    tag_160:\n        /* \"#utility.yul\":8628:8695   */\n      tag_161\n        /* \"#utility.yul\":8688:8694   */\n      dup3\n        /* \"#utility.yul\":8680:8686   */\n      dup3\n        /* \"#utility.yul\":8674:8678   */\n      dup6\n        /* \"#utility.yul\":8628:8695   */\n      tag_59\n      jump\t// in\n    tag_161:\n        /* \"#utility.yul\":8722:8723   */\n      0x00\n        /* \"#utility.yul\":8746:8750   */\n      0x20\n        /* \"#utility.yul\":8733:8750   */\n      swap1\n      pop\n        /* \"#utility.yul\":8778:8780   */\n      0x1f\n        /* \"#utility.yul\":8770:8776   */\n      dup4\n        /* \"#utility.yul\":8767:8781   */\n      gt\n        /* \"#utility.yul\":8795:8796   */\n      0x01\n        /* \"#utility.yul\":8790:9408   */\n      dup2\n      eq\n      tag_163\n      jumpi\n        /* \"#utility.yul\":9452:9453   */\n      0x00\n        /* \"#utility.yul\":9469:9475   */\n      dup5\n        /* \"#utility.yul\":9466:9543   */\n      iszero\n      tag_164\n      jumpi\n        /* \"#utility.yul\":9518:9527   */\n      dup3\n        /* \"#utility.yul\":9513:9516   */\n      dup8\n        /* \"#utility.yul\":9509:9528   */\n      add\n        /* \"#utility.yul\":9503:9529   */\n      mload\n        /* \"#utility.yul\":9494:9529   */\n      swap1\n      pop\n        /* \"#utility.yul\":9466:9543   */\n    tag_164:\n        /* \"#utility.yul\":9569:9636   */\n      tag_165\n        /* \"#utility.yul\":9629:9635   */\n      dup6\n        /* \"#utility.yul\":9622:9627   */\n      dup3\n        /* \"#utility.yul\":9569:9636   */\n      tag_62\n      jump\t// in\n    tag_165:\n        /* \"#utility.yul\":9563:9567   */\n      dup7\n        /* \"#utility.yul\":9556:9637   */\n      sstore\n        /* \"#utility.yul\":9425:9647   */\n      pop\n        /* \"#utility.yul\":8760:9647   */\n      jump(tag_162)\n        /* \"#utility.yul\":8790:9408   */\n    tag_163:\n        /* \"#utility.yul\":8842:8846   */\n      0x1f\n        /* \"#utility.yul\":8838:8847   */\n      not\n        /* \"#utility.yul\":8830:8836   */\n      dup5\n        /* \"#utility.yul\":8826:8848   */\n      and\n        /* \"#utility.yul\":8876:8913   */\n      tag_166\n        /* \"#utility.yul\":8908:8912   */\n      dup7\n        /* \"#utility.yul\":8876:8913   */\n      tag_47\n      jump\t// in\n    tag_166:\n        /* \"#utility.yul\":8935:8936   */\n      0x00\n        /* \"#utility.yul\":8949:9157   */\n    tag_167:\n        /* \"#utility.yul\":8963:8970   */\n      dup3\n        /* \"#utility.yul\":8960:8961   */\n      dup2\n        /* \"#utility.yul\":8957:8971   */\n      lt\n        /* \"#utility.yul\":8949:9157   */\n      iszero\n      tag_169\n      jumpi\n        /* \"#utility.yul\":9042:9051   */\n      dup5\n        /* \"#utility.yul\":9037:9040   */\n      dup10\n        /* \"#utility.yul\":9033:9052   */\n      add\n        /* \"#utility.yul\":9027:9053   */\n      mload\n        /* \"#utility.yul\":9019:9025   */\n      dup3\n        /* \"#utility.yul\":9012:9054   */\n      sstore\n        /* \"#utility.yul\":9093:9094   */\n      0x01\n        /* \"#utility.yul\":9085:9091   */\n      dup3\n        /* \"#utility.yul\":9081:9095   */\n      add\n        /* \"#utility.yul\":9071:9095   */\n      swap2\n      pop\n        /* \"#utility.yul\":9140:9142   */\n      0x20\n        /* \"#utility.yul\":9129:9138   */\n      dup6\n        /* \"#utility.yul\":9125:9143   */\n      add\n        /* \"#utility.yul\":9112:9143   */\n      swap5\n      pop\n        /* \"#utility.yul\":8986:8990   */\n      0x20\n        /* \"#utility.yul\":8983:8984   */\n      dup2\n        /* \"#utility.yul\":8979:8991   */\n      add\n        /* \"#utility.yul\":8974:8991   */\n      swap1\n      pop\n        /* \"#utility.yul\":8949:9157   */\n      jump(tag_167)\n    tag_169:\n        /* \"#utility.yul\":9185:9191   */\n      dup7\n        /* \"#utility.yul\":9176:9183   */\n      dup4\n        /* \"#utility.yul\":9173:9192   */\n      lt\n        /* \"#utility.yul\":9170:9349   */\n      iszero\n      tag_170\n      jumpi\n        /* \"#utility.yul\":9243:9252   */\n      dup5\n        /* \"#utility.yul\":9238:9241   */\n      dup10\n        /* \"#utility.yul\":9234:9253   */\n      add\n        /* \"#utility.yul\":9228:9254   */\n      mload\n        /* \"#utility.yul\":9286:9334   */\n      tag_171\n        /* \"#utility.yul\":9328:9332   */\n      0x1f\n        /* \"#utility.yul\":9320:9326   */\n      dup10\n        /* \"#utility.yul\":9316:9333   */\n      and\n        /* \"#utility.yul\":9305:9314   */\n      dup3\n        /* \"#utility.yul\":9286:9334   */\n      tag_61\n      jump\t// in\n    tag_171:\n        /* \"#utility.yul\":9278:9284   */\n      dup4\n        /* \"#utility.yul\":9271:9335   */\n      sstore\n        /* \"#utility.yul\":9193:9349   */\n      pop\n        /* \"#utility.yul\":9170:9349   */\n    tag_170:\n        /* \"#utility.yul\":9395:9396   */\n      0x01\n        /* \"#utility.yul\":9391:9392   */\n      0x02\n        /* \"#utility.yul\":9383:9389   */\n      dup9\n        /* \"#utility.yul\":9379:9393   */\n      mul\n        /* \"#utility.yul\":9375:9397   */\n      add\n        /* \"#utility.yul\":9369:9373   */\n      dup9\n        /* \"#utility.yul\":9362:9398   */\n      sstore\n        /* \"#utility.yul\":8797:9408   */\n      pop\n      pop\n      pop\n        /* \"#utility.yul\":8760:9647   */\n    tag_162:\n      pop\n        /* \"#utility.yul\":8350:9653   */\n      pop\n      pop\n      pop\n        /* \"#utility.yul\":8258:9653   */\n      pop\n      pop\n      jump\t// out\n\n    auxdata: 0xa2646970667358221220d3cfb1a9e9ab8b220010bae93ffd710d5ed2e2b30684059556ec34d510409e4c64736f6c634300081a0033\n}\n",
				"bytecode": {
					"linkReferences": {},
					"object": "6080604052348015600e575f80fd5b5061080c8061001c5f395ff3fe608060405234801561000f575f80fd5b5060043610610034575f3560e01c80634cfd4c9a146100385780634e69d56014610054575b5f80fd5b610052600480360381019061004d91906103f9565b610073565b005b61005c610110565b60405161006a9291906104cf565b60405180910390f35b815f803373ffffffffffffffffffffffffffffffffffffffff1673ffffffffffffffffffffffffffffffffffffffff1681526020019081526020015f205f0190816100be9190610707565b50805f803373ffffffffffffffffffffffffffffffffffffffff1673ffffffffffffffffffffffffffffffffffffffff1681526020019081526020015f20600101908161010b9190610707565b505050565b6060805f803373ffffffffffffffffffffffffffffffffffffffff1673ffffffffffffffffffffffffffffffffffffffff1681526020019081526020015f205f015f803373ffffffffffffffffffffffffffffffffffffffff1673ffffffffffffffffffffffffffffffffffffffff1681526020019081526020015f2060010181805461019c90610531565b80601f01602080910402602001604051908101604052809291908181526020018280546101c890610531565b80156102135780601f106101ea57610100808354040283529160200191610213565b820191905f5260205f20905b8154815290600101906020018083116101f657829003601f168201915b5050505050915080805461022690610531565b80601f016020809104026020016040519081016040528092919081815260200182805461025290610531565b801561029d5780601f106102745761010080835404028352916020019161029d565b820191905f5260205f20905b81548152906001019060200180831161028057829003601f168201915b50505050509050915091509091565b5f604051905090565b5f80fd5b5f80fd5b5f80fd5b5f80fd5b5f601f19601f8301169050919050565b7f4e487b71000000000000000000000000000000000000000000000000000000005f52604160045260245ffd5b61030b826102c5565b810181811067ffffffffffffffff8211171561032a576103296102d5565b5b80604052505050565b5f61033c6102ac565b90506103488282610302565b919050565b5f67ffffffffffffffff821115610367576103666102d5565b5b610370826102c5565b9050602081019050919050565b828183375f83830152505050565b5f61039d6103988461034d565b610333565b9050828152602081018484840111156103b9576103b86102c1565b5b6103c484828561037d565b509392505050565b5f82601f8301126103e0576103df6102bd565b5b81356103f084826020860161038b565b91505092915050565b5f806040838503121561040f5761040e6102b5565b5b5f83013567ffffffffffffffff81111561042c5761042b6102b9565b5b610438858286016103cc565b925050602083013567ffffffffffffffff811115610459576104586102b9565b5b610465858286016103cc565b9150509250929050565b5f81519050919050565b5f82825260208201905092915050565b8281835e5f83830152505050565b5f6104a18261046f565b6104ab8185610479565b93506104bb818560208601610489565b6104c4816102c5565b840191505092915050565b5f6040820190508181035f8301526104e78185610497565b905081810360208301526104fb8184610497565b90509392505050565b7f4e487b71000000000000000000000000000000000000000000000000000000005f52602260045260245ffd5b5f600282049050600182168061054857607f821691505b60208210810361055b5761055a610504565b5b50919050565b5f819050815f5260205f209050919050565b5f6020601f8301049050919050565b5f82821b905092915050565b5f600883026105bd7fffffffffffffffffffffffffffffffffffffffffffffffffffffffffffffffff82610582565b6105c78683610582565b95508019841693508086168417925050509392505050565b5f819050919050565b5f819050919050565b5f61060b610606610601846105df565b6105e8565b6105df565b9050919050565b5f819050919050565b610624836105f1565b61063861063082610612565b84845461058e565b825550505050565b5f90565b61064c610640565b61065781848461061b565b505050565b5b8181101561067a5761066f5f82610644565b60018101905061065d565b5050565b601f8211156106bf5761069081610561565b61069984610573565b810160208510156106a8578190505b6106bc6106b485610573565b83018261065c565b50505b505050565b5f82821c905092915050565b5f6106df5f19846008026106c4565b1980831691505092915050565b5f6106f783836106d0565b9150826002028217905092915050565b6107108261046f565b67ffffffffffffffff811115610729576107286102d5565b5b6107338254610531565b61073e82828561067e565b5f60209050601f83116001811461076f575f841561075d578287015190505b61076785826106ec565b8655506107ce565b601f19841661077d86610561565b5f5b828110156107a45784890151825560018201915060208501945060208101905061077f565b868310156107c157848901516107bd601f8916826106d0565b8355505b6001600288020188555050505b50505050505056fea2646970667358221220d3cfb1a9e9ab8b220010bae93ffd710d5ed2e2b30684059556ec34d510409e4c64736f6c634300081a0033",
					"opcodes": "PUSH1 0x80 PUSH1 0x40 MSTORE CALLVALUE DUP1 ISZERO PUSH1 0xE JUMPI PUSH0 DUP1 REVERT JUMPDEST POP PUSH2 0x80C DUP1 PUSH2 0x1C PUSH0 CODECOPY PUSH0 RETURN INVALID PUSH1 0x80 PUSH1 0x40 MSTORE CALLVALUE DUP1 ISZERO PUSH2 0xF JUMPI PUSH0 DUP1 REVERT JUMPDEST POP PUSH1 0x4 CALLDATASIZE LT PUSH2 0x34 JUMPI PUSH0 CALLDATALOAD PUSH1 0xE0 SHR DUP1 PUSH4 0x4CFD4C9A EQ PUSH2 0x38 JUMPI DUP1 PUSH4 0x4E69D560 EQ PUSH2 0x54 JUMPI JUMPDEST PUSH0 DUP1 REVERT JUMPDEST PUSH2 0x52 PUSH1 0x4 DUP1 CALLDATASIZE SUB DUP2 ADD SWAP1 PUSH2 0x4D SWAP2 SWAP1 PUSH2 0x3F9 JUMP JUMPDEST PUSH2 0x73 JUMP JUMPDEST STOP JUMPDEST PUSH2 0x5C PUSH2 0x110 JUMP JUMPDEST PUSH1 0x40 MLOAD PUSH2 0x6A SWAP3 SWAP2 SWAP1 PUSH2 0x4CF JUMP JUMPDEST PUSH1 0x40 MLOAD DUP1 SWAP2 SUB SWAP1 RETURN JUMPDEST DUP2 PUSH0 DUP1 CALLER PUSH20 0xFFFFFFFFFFFFFFFFFFFFFFFFFFFFFFFFFFFFFFFF AND PUSH20 0xFFFFFFFFFFFFFFFFFFFFFFFFFFFFFFFFFFFFFFFF AND DUP2 MSTORE PUSH1 0x20 ADD SWAP1 DUP2 MSTORE PUSH1 0x20 ADD PUSH0 KECCAK256 PUSH0 ADD SWAP1 DUP2 PUSH2 0xBE SWAP2 SWAP1 PUSH2 0x707 JUMP JUMPDEST POP DUP1 PUSH0 DUP1 CALLER PUSH20 0xFFFFFFFFFFFFFFFFFFFFFFFFFFFFFFFFFFFFFFFF AND PUSH20 0xFFFFFFFFFFFFFFFFFFFFFFFFFFFFFFFFFFFFFFFF AND DUP2 MSTORE PUSH1 0x20 ADD SWAP1 DUP2 MSTORE PUSH1 0x20 ADD PUSH0 KECCAK256 PUSH1 0x1 ADD SWAP1 DUP2 PUSH2 0x10B SWAP2 SWAP1 PUSH2 0x707 JUMP JUMPDEST POP POP POP JUMP JUMPDEST PUSH1 0x60 DUP1 PUSH0 DUP1 CALLER PUSH20 0xFFFFFFFFFFFFFFFFFFFFFFFFFFFFFFFFFFFFFFFF AND PUSH20 0xFFFFFFFFFFFFFFFFFFFFFFFFFFFFFFFFFFFFFFFF AND DUP2 MSTORE PUSH1 0x20 ADD SWAP1 DUP2 MSTORE PUSH1 0x20 ADD PUSH0 KECCAK256 PUSH0 ADD PUSH0 DUP1 CALLER PUSH20 0xFFFFFFFFFFFFFFFFFFFFFFFFFFFFFFFFFFFFFFFF AND PUSH20 0xFFFFFFFFFFFFFFFFFFFFFFFFFFFFFFFFFFFFFFFF AND DUP2 MSTORE PUSH1 0x20 ADD SWAP1 DUP2 MSTORE PUSH1 0x20 ADD PUSH0 KECCAK256 PUSH1 0x1 ADD DUP2 DUP1 SLOAD PUSH2 0x19C SWAP1 PUSH2 0x531 JUMP JUMPDEST DUP1 PUSH1 0x1F ADD PUSH1 0x20 DUP1 SWAP2 DIV MUL PUSH1 0x20 ADD PUSH1 0x40 MLOAD SWAP1 DUP2 ADD PUSH1 0x40 MSTORE DUP1 SWAP3 SWAP2 SWAP1 DUP2 DUP2 MSTORE PUSH1 0x20 ADD DUP3 DUP1 SLOAD PUSH2 0x1C8 SWAP1 PUSH2 0x531 JUMP JUMPDEST DUP1 ISZERO PUSH2 0x213 JUMPI DUP1 PUSH1 0x1F LT PUSH2 0x1EA JUMPI PUSH2 0x100 DUP1 DUP4 SLOAD DIV MUL DUP4 MSTORE SWAP2 PUSH1 0x20 ADD SWAP2 PUSH2 0x213 JUMP JUMPDEST DUP3 ADD SWAP2 SWAP1 PUSH0 MSTORE PUSH1 0x20 PUSH0 KECCAK256 SWAP1 JUMPDEST DUP2 SLOAD DUP2 MSTORE SWAP1 PUSH1 0x1 ADD SWAP1 PUSH1 0x20 ADD DUP1 DUP4 GT PUSH2 0x1F6 JUMPI DUP3 SWAP1 SUB PUSH1 0x1F AND DUP3 ADD SWAP2 JUMPDEST POP POP POP POP POP SWAP2 POP DUP1 DUP1 SLOAD PUSH2 0x226 SWAP1 PUSH2 0x531 JUMP JUMPDEST DUP1 PUSH1 0x1F ADD PUSH1 0x20 DUP1 SWAP2 DIV MUL PUSH1 0x20 ADD PUSH1 0x40 MLOAD SWAP1 DUP2 ADD PUSH1 0x40 MSTORE DUP1 SWAP3 SWAP2 SWAP1 DUP2 DUP2 MSTORE PUSH1 0x20 ADD DUP3 DUP1 SLOAD PUSH2 0x252 SWAP1 PUSH2 0x531 JUMP JUMPDEST DUP1 ISZERO PUSH2 0x29D JUMPI DUP1 PUSH1 0x1F LT PUSH2 0x274 JUMPI PUSH2 0x100 DUP1 DUP4 SLOAD DIV MUL DUP4 MSTORE SWAP2 PUSH1 0x20 ADD SWAP2 PUSH2 0x29D JUMP JUMPDEST DUP3 ADD SWAP2 SWAP1 PUSH0 MSTORE PUSH1 0x20 PUSH0 KECCAK256 SWAP1 JUMPDEST DUP2 SLOAD DUP2 MSTORE SWAP1 PUSH1 0x1 ADD SWAP1 PUSH1 0x20 ADD DUP1 DUP4 GT PUSH2 0x280 JUMPI DUP3 SWAP1 SUB PUSH1 0x1F AND DUP3 ADD SWAP2 JUMPDEST POP POP POP POP POP SWAP1 POP SWAP2 POP SWAP2 POP SWAP1 SWAP2 JUMP JUMPDEST PUSH0 PUSH1 0x40 MLOAD SWAP1 POP SWAP1 JUMP JUMPDEST PUSH0 DUP1 REVERT JUMPDEST PUSH0 DUP1 REVERT JUMPDEST PUSH0 DUP1 REVERT JUMPDEST PUSH0 DUP1 REVERT JUMPDEST PUSH0 PUSH1 0x1F NOT PUSH1 0x1F DUP4 ADD AND SWAP1 POP SWAP2 SWAP1 POP JUMP JUMPDEST PUSH32 0x4E487B7100000000000000000000000000000000000000000000000000000000 PUSH0 MSTORE PUSH1 0x41 PUSH1 0x4 MSTORE PUSH1 0x24 PUSH0 REVERT JUMPDEST PUSH2 0x30B DUP3 PUSH2 0x2C5 JUMP JUMPDEST DUP2 ADD DUP2 DUP2 LT PUSH8 0xFFFFFFFFFFFFFFFF DUP3 GT OR ISZERO PUSH2 0x32A JUMPI PUSH2 0x329 PUSH2 0x2D5 JUMP JUMPDEST JUMPDEST DUP1 PUSH1 0x40 MSTORE POP POP POP JUMP JUMPDEST PUSH0 PUSH2 0x33C PUSH2 0x2AC JUMP JUMPDEST SWAP1 POP PUSH2 0x348 DUP3 DUP3 PUSH2 0x302 JUMP JUMPDEST SWAP2 SWAP1 POP JUMP JUMPDEST PUSH0 PUSH8 0xFFFFFFFFFFFFFFFF DUP3 GT ISZERO PUSH2 0x367 JUMPI PUSH2 0x366 PUSH2 0x2D5 JUMP JUMPDEST JUMPDEST PUSH2 0x370 DUP3 PUSH2 0x2C5 JUMP JUMPDEST SWAP1 POP PUSH1 0x20 DUP2 ADD SWAP1 POP SWAP2 SWAP1 POP JUMP JUMPDEST DUP3 DUP2 DUP4 CALLDATACOPY PUSH0 DUP4 DUP4 ADD MSTORE POP POP POP JUMP JUMPDEST PUSH0 PUSH2 0x39D PUSH2 0x398 DUP5 PUSH2 0x34D JUMP JUMPDEST PUSH2 0x333 JUMP JUMPDEST SWAP1 POP DUP3 DUP2 MSTORE PUSH1 0x20 DUP2 ADD DUP5 DUP5 DUP5 ADD GT ISZERO PUSH2 0x3B9 JUMPI PUSH2 0x3B8 PUSH2 0x2C1 JUMP JUMPDEST JUMPDEST PUSH2 0x3C4 DUP5 DUP3 DUP6 PUSH2 0x37D JUMP JUMPDEST POP SWAP4 SWAP3 POP POP POP JUMP JUMPDEST PUSH0 DUP3 PUSH1 0x1F DUP4 ADD SLT PUSH2 0x3E0 JUMPI PUSH2 0x3DF PUSH2 0x2BD JUMP JUMPDEST JUMPDEST DUP2 CALLDATALOAD PUSH2 0x3F0 DUP5 DUP3 PUSH1 0x20 DUP7 ADD PUSH2 0x38B JUMP JUMPDEST SWAP2 POP POP SWAP3 SWAP2 POP POP JUMP JUMPDEST PUSH0 DUP1 PUSH1 0x40 DUP4 DUP6 SUB SLT ISZERO PUSH2 0x40F JUMPI PUSH2 0x40E PUSH2 0x2B5 JUMP JUMPDEST JUMPDEST PUSH0 DUP4 ADD CALLDATALOAD PUSH8 0xFFFFFFFFFFFFFFFF DUP2 GT ISZERO PUSH2 0x42C JUMPI PUSH2 0x42B PUSH2 0x2B9 JUMP JUMPDEST JUMPDEST PUSH2 0x438 DUP6 DUP3 DUP7 ADD PUSH2 0x3CC JUMP JUMPDEST SWAP3 POP POP PUSH1 0x20 DUP4 ADD CALLDATALOAD PUSH8 0xFFFFFFFFFFFFFFFF DUP2 GT ISZERO PUSH2 0x459 JUMPI PUSH2 0x458 PUSH2 0x2B9 JUMP JUMPDEST JUMPDEST PUSH2 0x465 DUP6 DUP3 DUP7 ADD PUSH2 0x3CC JUMP JUMPDEST SWAP2 POP POP SWAP3 POP SWAP3 SWAP1 POP JUMP JUMPDEST PUSH0 DUP2 MLOAD SWAP1 POP SWAP2 SWAP1 POP JUMP JUMPDEST PUSH0 DUP3 DUP3 MSTORE PUSH1 0x20 DUP3 ADD SWAP1 POP SWAP3 SWAP2 POP POP JUMP JUMPDEST DUP3 DUP2 DUP4 MCOPY PUSH0 DUP4 DUP4 ADD MSTORE POP POP POP JUMP JUMPDEST PUSH0 PUSH2 0x4A1 DUP3 PUSH2 0x46F JUMP JUMPDEST PUSH2 0x4AB DUP2 DUP6 PUSH2 0x479 JUMP JUMPDEST SWAP4 POP PUSH2 0x4BB DUP2 DUP6 PUSH1 0x20 DUP7 ADD PUSH2 0x489 JUMP JUMPDEST PUSH2 0x4C4 DUP2 PUSH2 0x2C5 JUMP JUMPDEST DUP5 ADD SWAP2 POP POP SWAP3 SWAP2 POP POP JUMP JUMPDEST PUSH0 PUSH1 0x40 DUP3 ADD SWAP1 POP DUP2 DUP2 SUB PUSH0 DUP4 ADD MSTORE PUSH2 0x4E7 DUP2 DUP6 PUSH2 0x497 JUMP JUMPDEST SWAP1 POP DUP2 DUP2 SUB PUSH1 0x20 DUP4 ADD MSTORE PUSH2 0x4FB DUP2 DUP5 PUSH2 0x497 JUMP JUMPDEST SWAP1 POP SWAP4 SWAP3 POP POP POP JUMP JUMPDEST PUSH32 0x4E487B7100000000000000000000000000000000000000000000000000000000 PUSH0 MSTORE PUSH1 0x22 PUSH1 0x4 MSTORE PUSH1 0x24 PUSH0 REVERT JUMPDEST PUSH0 PUSH1 0x2 DUP3 DIV SWAP1 POP PUSH1 0x1 DUP3 AND DUP1 PUSH2 0x548 JUMPI PUSH1 0x7F DUP3 AND SWAP2 POP JUMPDEST PUSH1 0x20 DUP3 LT DUP2 SUB PUSH2 0x55B JUMPI PUSH2 0x55A PUSH2 0x504 JUMP JUMPDEST JUMPDEST POP SWAP2 SWAP1 POP JUMP JUMPDEST PUSH0 DUP2 SWAP1 POP DUP2 PUSH0 MSTORE PUSH1 0x20 PUSH0 KECCAK256 SWAP1 POP SWAP2 SWAP1 POP JUMP JUMPDEST PUSH0 PUSH1 0x20 PUSH1 0x1F DUP4 ADD DIV SWAP1 POP SWAP2 SWAP1 POP JUMP JUMPDEST PUSH0 DUP3 DUP3 SHL SWAP1 POP SWAP3 SWAP2 POP POP JUMP JUMPDEST PUSH0 PUSH1 0x8 DUP4 MUL PUSH2 0x5BD PUSH32 0xFFFFFFFFFFFFFFFFFFFFFFFFFFFFFFFFFFFFFFFFFFFFFFFFFFFFFFFFFFFFFFFF DUP3 PUSH2 0x582 JUMP JUMPDEST PUSH2 0x5C7 DUP7 DUP4 PUSH2 0x582 JUMP JUMPDEST SWAP6 POP DUP1 NOT DUP5 AND SWAP4 POP DUP1 DUP7 AND DUP5 OR SWAP3 POP POP POP SWAP4 SWAP3 POP POP POP JUMP JUMPDEST PUSH0 DUP2 SWAP1 POP SWAP2 SWAP1 POP JUMP JUMPDEST PUSH0 DUP2 SWAP1 POP SWAP2 SWAP1 POP JUMP JUMPDEST PUSH0 PUSH2 0x60B PUSH2 0x606 PUSH2 0x601 DUP5 PUSH2 0x5DF JUMP JUMPDEST PUSH2 0x5E8 JUMP JUMPDEST PUSH2 0x5DF JUMP JUMPDEST SWAP1 POP SWAP2 SWAP1 POP JUMP JUMPDEST PUSH0 DUP2 SWAP1 POP SWAP2 SWAP1 POP JUMP JUMPDEST PUSH2 0x624 DUP4 PUSH2 0x5F1 JUMP JUMPDEST PUSH2 0x638 PUSH2 0x630 DUP3 PUSH2 0x612 JUMP JUMPDEST DUP5 DUP5 SLOAD PUSH2 0x58E JUMP JUMPDEST DUP3 SSTORE POP POP POP POP JUMP JUMPDEST PUSH0 SWAP1 JUMP JUMPDEST PUSH2 0x64C PUSH2 0x640 JUMP JUMPDEST PUSH2 0x657 DUP2 DUP5 DUP5 PUSH2 0x61B JUMP JUMPDEST POP POP POP JUMP JUMPDEST JUMPDEST DUP2 DUP2 LT ISZERO PUSH2 0x67A JUMPI PUSH2 0x66F PUSH0 DUP3 PUSH2 0x644 JUMP JUMPDEST PUSH1 0x1 DUP2 ADD SWAP1 POP PUSH2 0x65D JUMP JUMPDEST POP POP JUMP JUMPDEST PUSH1 0x1F DUP3 GT ISZERO PUSH2 0x6BF JUMPI PUSH2 0x690 DUP2 PUSH2 0x561 JUMP JUMPDEST PUSH2 0x699 DUP5 PUSH2 0x573 JUMP JUMPDEST DUP2 ADD PUSH1 0x20 DUP6 LT ISZERO PUSH2 0x6A8 JUMPI DUP2 SWAP1 POP JUMPDEST PUSH2 0x6BC PUSH2 0x6B4 DUP6 PUSH2 0x573 JUMP JUMPDEST DUP4 ADD DUP3 PUSH2 0x65C JUMP JUMPDEST POP POP JUMPDEST POP POP POP JUMP JUMPDEST PUSH0 DUP3 DUP3 SHR SWAP1 POP SWAP3 SWAP2 POP POP JUMP JUMPDEST PUSH0 PUSH2 0x6DF PUSH0 NOT DUP5 PUSH1 0x8 MUL PUSH2 0x6C4 JUMP JUMPDEST NOT DUP1 DUP4 AND SWAP2 POP POP SWAP3 SWAP2 POP POP JUMP JUMPDEST PUSH0 PUSH2 0x6F7 DUP4 DUP4 PUSH2 0x6D0 JUMP JUMPDEST SWAP2 POP DUP3 PUSH1 0x2 MUL DUP3 OR SWAP1 POP SWAP3 SWAP2 POP POP JUMP JUMPDEST PUSH2 0x710 DUP3 PUSH2 0x46F JUMP JUMPDEST PUSH8 0xFFFFFFFFFFFFFFFF DUP2 GT ISZERO PUSH2 0x729 JUMPI PUSH2 0x728 PUSH2 0x2D5 JUMP JUMPDEST JUMPDEST PUSH2 0x733 DUP3 SLOAD PUSH2 0x531 JUMP JUMPDEST PUSH2 0x73E DUP3 DUP3 DUP6 PUSH2 0x67E JUMP JUMPDEST PUSH0 PUSH1 0x20 SWAP1 POP PUSH1 0x1F DUP4 GT PUSH1 0x1 DUP2 EQ PUSH2 0x76F JUMPI PUSH0 DUP5 ISZERO PUSH2 0x75D JUMPI DUP3 DUP8 ADD MLOAD SWAP1 POP JUMPDEST PUSH2 0x767 DUP6 DUP3 PUSH2 0x6EC JUMP JUMPDEST DUP7 SSTORE POP PUSH2 0x7CE JUMP JUMPDEST PUSH1 0x1F NOT DUP5 AND PUSH2 0x77D DUP7 PUSH2 0x561 JUMP JUMPDEST PUSH0 JUMPDEST DUP3 DUP2 LT ISZERO PUSH2 0x7A4 JUMPI DUP5 DUP10 ADD MLOAD DUP3 SSTORE PUSH1 0x1 DUP3 ADD SWAP2 POP PUSH1 0x20 DUP6 ADD SWAP5 POP PUSH1 0x20 DUP2 ADD SWAP1 POP PUSH2 0x77F JUMP JUMPDEST DUP7 DUP4 LT ISZERO PUSH2 0x7C1 JUMPI DUP5 DUP10 ADD MLOAD PUSH2 0x7BD PUSH1 0x1F DUP10 AND DUP3 PUSH2 0x6D0 JUMP JUMPDEST DUP4 SSTORE POP JUMPDEST PUSH1 0x1 PUSH1 0x2 DUP9 MUL ADD DUP9 SSTORE POP POP POP JUMPDEST POP POP POP POP POP POP JUMP INVALID LOG2 PUSH5 0x6970667358 0x22 SLT KECCAK256 0xD3 0xCF 0xB1 0xA9 0xE9 0xAB DUP12 0x22 STOP LT 0xBA 0xE9 EXTCODEHASH REVERT PUSH18 0xD5ED2E2B30684059556EC34D510409E4C64 PUSH20 0x6F6C634300081A00330000000000000000000000 "
				},
				"gasEstimates": {
					"creation": {
						"codeDepositCost": "412000",
						"executionCost": "447",
						"totalCost": "412447"
					},
					"external": {
						"createOrUpdateStatus(string,string)": "infinite",
						"getStatus()": "infinite"
					}
				},
				"methodIdentifiers": {
					"createOrUpdateStatus(string,string)": "4cfd4c9a",
					"getStatus()": "4e69d560"
				}
			},
			"storageLayout": {
				"storage": [
					{
						"astId": 11,
						"contract": "contracts/Day02.sol:ProfileStatus",
						"label": "userStatus",
						"offset": 0,
						"slot": "0",
						"type": "t_mapping(t_address,t_struct(Status)6_storage)"
					}
				],
				"types": {
					"t_address": {
						"encoding": "inplace",
						"label": "address",
						"numberOfBytes": "20"
					},
					"t_mapping(t_address,t_struct(Status)6_storage)": {
						"encoding": "mapping",
						"key": "t_address",
						"label": "mapping(address => struct ProfileStatus.Status)",
						"numberOfBytes": "32",
						"value": "t_struct(Status)6_storage"
					},
					"t_string_storage": {
						"encoding": "bytes",
						"label": "string",
						"numberOfBytes": "32"
					},
					"t_struct(Status)6_storage": {
						"encoding": "inplace",
						"label": "struct ProfileStatus.Status",
						"members": [
							{
								"astId": 3,
								"contract": "contracts/Day02.sol:ProfileStatus",
								"label": "name",
								"offset": 0,
								"slot": "0",
								"type": "t_string_storage"
							},
							{
								"astId": 5,
								"contract": "contracts/Day02.sol:ProfileStatus",
								"label": "message",
								"offset": 0,
								"slot": "1",
								"type": "t_string_storage"
							}
						],
						"numberOfBytes": "64"
					}
				}
			},
			"userdoc": {
				"kind": "user",
				"methods": {},
				"version": 1
			}
		}
	}
}