{
	"contracts/Counter.sol": {
		"Counter": {
			"abi": [
				{
					"inputs": [],
					"stateMutability": "nonpayable",
					"type": "constructor"
				},
				{
					"inputs": [
						{
							"internalType": "uint256",
							"name": "a",
							"type": "uint256"
						}
					],
					"name": "count",
					"outputs": [],
					"stateMutability": "nonpayable",
					"type": "function"
				},
				{
					"inputs": [
						{
							"internalType": "uint256",
							"name": "a",
							"type": "uint256"
						}
					],
					"name": "get",
					"outputs": [
						{
							"internalType": "uint256",
							"name": "",
							"type": "uint256"
						}
					],
					"stateMutability": "view",
					"type": "function"
				},
				{
					"inputs": [],
					"name": "getSelectorCount",
					"outputs": [
						{
							"internalType": "bytes4",
							"name": "",
							"type": "bytes4"
						}
					],
					"stateMutability": "pure",
					"type": "function"
				},
				{
					"inputs": [],
					"name": "getSelectorGet",
					"outputs": [
						{
							"internalType": "bytes4",
							"name": "",
							"type": "bytes4"
						}
					],
					"stateMutability": "pure",
					"type": "function"
				}
			],
			"devdoc": {
				"kind": "dev",
				"methods": {},
				"version": 1
			},
			"evm": {
				"assembly": "    /* \"contracts/Counter.sol\":59:534  contract Counter {... */\n  mstore(0x40, 0x80)\n    /* \"contracts/Counter.sol\":100:141  constructor() {... */\n  callvalue\n  dup1\n  iszero\n  tag_1\n  jumpi\n  0x00\n  dup1\n  revert\ntag_1:\n  pop\n    /* \"contracts/Counter.sol\":133:134  0 */\n  0x00\n    /* \"contracts/Counter.sol\":124:130  conter */\n  dup1\n    /* \"contracts/Counter.sol\":124:134  conter = 0 */\n  dup2\n  swap1\n  sstore\n  pop\n    /* \"contracts/Counter.sol\":59:534  contract Counter {... */\n  dataSize(sub_0)\n  dup1\n  dataOffset(sub_0)\n  0x00\n  codecopy\n  0x00\n  return\nstop\n\nsub_0: assembly {\n        /* \"contracts/Counter.sol\":59:534  contract Counter {... */\n      mstore(0x40, 0x80)\n      callvalue\n      dup1\n      iszero\n      tag_1\n      jumpi\n      0x00\n      dup1\n      revert\n    tag_1:\n      pop\n      jumpi(tag_2, lt(calldatasize, 0x04))\n      shr(0xe0, calldataload(0x00))\n      dup1\n      0x3b3546c8\n      eq\n      tag_3\n      jumpi\n      dup1\n      0x81f745b8\n      eq\n      tag_4\n      jumpi\n      dup1\n      0x9507d39a\n      eq\n      tag_5\n      jumpi\n      dup1\n      0xb3101fb4\n      eq\n      tag_6\n      jumpi\n    tag_2:\n      0x00\n      dup1\n      revert\n        /* \"contracts/Counter.sol\":146:205  function count(uint a) public  {... */\n    tag_3:\n      tag_7\n      0x04\n      dup1\n      calldatasize\n      sub\n      dup2\n      add\n      swap1\n      tag_8\n      swap2\n      swap1\n      tag_9\n      jump\t// in\n    tag_8:\n      tag_10\n      jump\t// in\n    tag_7:\n      stop\n        /* \"contracts/Counter.sol\":298:408  function getSelectorGet() external pure returns(bytes4) {... */\n    tag_4:\n      tag_11\n      tag_12\n      jump\t// in\n    tag_11:\n      mload(0x40)\n      tag_13\n      swap2\n      swap1\n      tag_14\n      jump\t// in\n    tag_13:\n      mload(0x40)\n      dup1\n      swap2\n      sub\n      swap1\n      return\n        /* \"contracts/Counter.sol\":211:291  function get(uint a) public view returns (uint) { ... */\n    tag_5:\n      tag_15\n      0x04\n      dup1\n      calldatasize\n      sub\n      dup2\n      add\n      swap1\n      tag_16\n      swap2\n      swap1\n      tag_9\n      jump\t// in\n    tag_16:\n      tag_17\n      jump\t// in\n    tag_15:\n      mload(0x40)\n      tag_18\n      swap2\n      swap1\n      tag_19\n      jump\t// in\n    tag_18:\n      mload(0x40)\n      dup1\n      swap2\n      sub\n      swap1\n      return\n        /* \"contracts/Counter.sol\":418:532  function getSelectorCount() external pure returns(bytes4) {... */\n    tag_6:\n      tag_20\n      tag_21\n      jump\t// in\n    tag_20:\n      mload(0x40)\n      tag_22\n      swap2\n      swap1\n      tag_14\n      jump\t// in\n    tag_22:\n      mload(0x40)\n      dup1\n      swap2\n      sub\n      swap1\n      return\n        /* \"contracts/Counter.sol\":146:205  function count(uint a) public  {... */\n    tag_10:\n        /* \"contracts/Counter.sol\":197:198  a */\n      dup1\n        /* \"contracts/Counter.sol\":187:193  conter */\n      0x00\n      dup1\n        /* \"contracts/Counter.sol\":187:198  conter += a */\n      dup3\n      dup3\n      sload\n      tag_24\n      swap2\n      swap1\n      tag_25\n      jump\t// in\n    tag_24:\n      swap3\n      pop\n      pop\n      dup2\n      swap1\n      sstore\n      pop\n        /* \"contracts/Counter.sol\":146:205  function count(uint a) public  {... */\n      pop\n      jump\t// out\n        /* \"contracts/Counter.sol\":298:408  function getSelectorGet() external pure returns(bytes4) {... */\n    tag_12:\n        /* \"contracts/Counter.sol\":346:352  bytes4 */\n      0x00\n        /* \"contracts/Counter.sol\":378:400  keccak256(\"get(uint)\") */\n      0x64f1bd63e06b081b8820f0d31e39476d387987bc3f038acb052d7be05ebcc8ad\n        /* \"contracts/Counter.sol\":364:401  return bytes4(keccak256(\"get(uint)\")) */\n      swap1\n      pop\n        /* \"contracts/Counter.sol\":298:408  function getSelectorGet() external pure returns(bytes4) {... */\n      swap1\n      jump\t// out\n        /* \"contracts/Counter.sol\":211:291  function get(uint a) public view returns (uint) { ... */\n    tag_17:\n        /* \"contracts/Counter.sol\":253:257  uint */\n      0x00\n        /* \"contracts/Counter.sol\":282:283  a */\n      dup2\n        /* \"contracts/Counter.sol\":275:281  conter */\n      sload(0x00)\n        /* \"contracts/Counter.sol\":275:283  conter+a */\n      tag_28\n      swap2\n      swap1\n      tag_25\n      jump\t// in\n    tag_28:\n        /* \"contracts/Counter.sol\":268:283  return conter+a */\n      swap1\n      pop\n        /* \"contracts/Counter.sol\":211:291  function get(uint a) public view returns (uint) { ... */\n      swap2\n      swap1\n      pop\n      jump\t// out\n        /* \"contracts/Counter.sol\":418:532  function getSelectorCount() external pure returns(bytes4) {... */\n    tag_21:\n        /* \"contracts/Counter.sol\":468:474  bytes4 */\n      0x00\n        /* \"contracts/Counter.sol\":500:524  keccak256(\"count(uint)\") */\n      0x7162f111594d34ab28fb2f5d91b37c0358899878688dea644ebe251fd3e8cf27\n        /* \"contracts/Counter.sol\":486:525  return bytes4(keccak256(\"count(uint)\")) */\n      swap1\n      pop\n        /* \"contracts/Counter.sol\":418:532  function getSelectorCount() external pure returns(bytes4) {... */\n      swap1\n      jump\t// out\n        /* \"#utility.yul\":88:205   */\n    tag_31:\n        /* \"#utility.yul\":197:198   */\n      0x00\n        /* \"#utility.yul\":194:195   */\n      dup1\n        /* \"#utility.yul\":187:199   */\n      revert\n        /* \"#utility.yul\":334:411   */\n    tag_33:\n        /* \"#utility.yul\":371:378   */\n      0x00\n        /* \"#utility.yul\":400:405   */\n      dup2\n        /* \"#utility.yul\":389:405   */\n      swap1\n      pop\n        /* \"#utility.yul\":334:411   */\n      swap2\n      swap1\n      pop\n      jump\t// out\n        /* \"#utility.yul\":417:539   */\n    tag_34:\n        /* \"#utility.yul\":490:514   */\n      tag_46\n        /* \"#utility.yul\":508:513   */\n      dup2\n        /* \"#utility.yul\":490:514   */\n      tag_33\n      jump\t// in\n    tag_46:\n        /* \"#utility.yul\":483:488   */\n      dup2\n        /* \"#utility.yul\":480:515   */\n      eq\n        /* \"#utility.yul\":470:533   */\n      tag_47\n      jumpi\n        /* \"#utility.yul\":529:530   */\n      0x00\n        /* \"#utility.yul\":526:527   */\n      dup1\n        /* \"#utility.yul\":519:531   */\n      revert\n        /* \"#utility.yul\":470:533   */\n    tag_47:\n        /* \"#utility.yul\":417:539   */\n      pop\n      jump\t// out\n        /* \"#utility.yul\":545:684   */\n    tag_35:\n        /* \"#utility.yul\":591:596   */\n      0x00\n        /* \"#utility.yul\":629:635   */\n      dup2\n        /* \"#utility.yul\":616:636   */\n      calldataload\n        /* \"#utility.yul\":607:636   */\n      swap1\n      pop\n        /* \"#utility.yul\":645:678   */\n      tag_49\n        /* \"#utility.yul\":672:677   */\n      dup2\n        /* \"#utility.yul\":645:678   */\n      tag_34\n      jump\t// in\n    tag_49:\n        /* \"#utility.yul\":545:684   */\n      swap3\n      swap2\n      pop\n      pop\n      jump\t// out\n        /* \"#utility.yul\":690:1019   */\n    tag_9:\n        /* \"#utility.yul\":749:755   */\n      0x00\n        /* \"#utility.yul\":798:800   */\n      0x20\n        /* \"#utility.yul\":786:795   */\n      dup3\n        /* \"#utility.yul\":777:784   */\n      dup5\n        /* \"#utility.yul\":773:796   */\n      sub\n        /* \"#utility.yul\":769:801   */\n      slt\n        /* \"#utility.yul\":766:885   */\n      iszero\n      tag_51\n      jumpi\n        /* \"#utility.yul\":804:883   */\n      tag_52\n      tag_31\n      jump\t// in\n    tag_52:\n        /* \"#utility.yul\":766:885   */\n    tag_51:\n        /* \"#utility.yul\":924:925   */\n      0x00\n        /* \"#utility.yul\":949:1002   */\n      tag_53\n        /* \"#utility.yul\":994:1001   */\n      dup5\n        /* \"#utility.yul\":985:991   */\n      dup3\n        /* \"#utility.yul\":974:983   */\n      dup6\n        /* \"#utility.yul\":970:992   */\n      add\n        /* \"#utility.yul\":949:1002   */\n      tag_35\n      jump\t// in\n    tag_53:\n        /* \"#utility.yul\":939:1002   */\n      swap2\n      pop\n        /* \"#utility.yul\":895:1012   */\n      pop\n        /* \"#utility.yul\":690:1019   */\n      swap3\n      swap2\n      pop\n      pop\n      jump\t// out\n        /* \"#utility.yul\":1025:1174   */\n    tag_36:\n        /* \"#utility.yul\":1061:1068   */\n      0x00\n        /* \"#utility.yul\":1101:1167   */\n      0xffffffff00000000000000000000000000000000000000000000000000000000\n        /* \"#utility.yul\":1094:1099   */\n      dup3\n        /* \"#utility.yul\":1090:1168   */\n      and\n        /* \"#utility.yul\":1079:1168   */\n      swap1\n      pop\n        /* \"#utility.yul\":1025:1174   */\n      swap2\n      swap1\n      pop\n      jump\t// out\n        /* \"#utility.yul\":1180:1295   */\n    tag_37:\n        /* \"#utility.yul\":1265:1288   */\n      tag_56\n        /* \"#utility.yul\":1282:1287   */\n      dup2\n        /* \"#utility.yul\":1265:1288   */\n      tag_36\n      jump\t// in\n    tag_56:\n        /* \"#utility.yul\":1260:1263   */\n      dup3\n        /* \"#utility.yul\":1253:1289   */\n      mstore\n        /* \"#utility.yul\":1180:1295   */\n      pop\n      pop\n      jump\t// out\n        /* \"#utility.yul\":1301:1519   */\n    tag_14:\n        /* \"#utility.yul\":1392:1396   */\n      0x00\n        /* \"#utility.yul\":1430:1432   */\n      0x20\n        /* \"#utility.yul\":1419:1428   */\n      dup3\n        /* \"#utility.yul\":1415:1433   */\n      add\n        /* \"#utility.yul\":1407:1433   */\n      swap1\n      pop\n        /* \"#utility.yul\":1443:1512   */\n      tag_58\n        /* \"#utility.yul\":1509:1510   */\n      0x00\n        /* \"#utility.yul\":1498:1507   */\n      dup4\n        /* \"#utility.yul\":1494:1511   */\n      add\n        /* \"#utility.yul\":1485:1491   */\n      dup5\n        /* \"#utility.yul\":1443:1512   */\n      tag_37\n      jump\t// in\n    tag_58:\n        /* \"#utility.yul\":1301:1519   */\n      swap3\n      swap2\n      pop\n      pop\n      jump\t// out\n        /* \"#utility.yul\":1525:1643   */\n    tag_38:\n        /* \"#utility.yul\":1612:1636   */\n      tag_60\n        /* \"#utility.yul\":1630:1635   */\n      dup2\n        /* \"#utility.yul\":1612:1636   */\n      tag_33\n      jump\t// in\n    tag_60:\n        /* \"#utility.yul\":1607:1610   */\n      dup3\n        /* \"#utility.yul\":1600:1637   */\n      mstore\n        /* \"#utility.yul\":1525:1643   */\n      pop\n      pop\n      jump\t// out\n        /* \"#utility.yul\":1649:1871   */\n    tag_19:\n        /* \"#utility.yul\":1742:1746   */\n      0x00\n        /* \"#utility.yul\":1780:1782   */\n      0x20\n        /* \"#utility.yul\":1769:1778   */\n      dup3\n        /* \"#utility.yul\":1765:1783   */\n      add\n        /* \"#utility.yul\":1757:1783   */\n      swap1\n      pop\n        /* \"#utility.yul\":1793:1864   */\n      tag_62\n        /* \"#utility.yul\":1861:1862   */\n      0x00\n        /* \"#utility.yul\":1850:1859   */\n      dup4\n        /* \"#utility.yul\":1846:1863   */\n      add\n        /* \"#utility.yul\":1837:1843   */\n      dup5\n        /* \"#utility.yul\":1793:1864   */\n      tag_38\n      jump\t// in\n    tag_62:\n        /* \"#utility.yul\":1649:1871   */\n      swap3\n      swap2\n      pop\n      pop\n      jump\t// out\n        /* \"#utility.yul\":1877:2057   */\n    tag_39:\n        /* \"#utility.yul\":1925:2002   */\n      0x4e487b7100000000000000000000000000000000000000000000000000000000\n        /* \"#utility.yul\":1922:1923   */\n      0x00\n        /* \"#utility.yul\":1915:2003   */\n      mstore\n        /* \"#utility.yul\":2022:2026   */\n      0x11\n        /* \"#utility.yul\":2019:2020   */\n      0x04\n        /* \"#utility.yul\":2012:2027   */\n      mstore\n        /* \"#utility.yul\":2046:2050   */\n      0x24\n        /* \"#utility.yul\":2043:2044   */\n      0x00\n        /* \"#utility.yul\":2036:2051   */\n      revert\n        /* \"#utility.yul\":2063:2254   */\n    tag_25:\n        /* \"#utility.yul\":2103:2106   */\n      0x00\n        /* \"#utility.yul\":2122:2142   */\n      tag_65\n        /* \"#utility.yul\":2140:2141   */\n      dup3\n        /* \"#utility.yul\":2122:2142   */\n      tag_33\n      jump\t// in\n    tag_65:\n        /* \"#utility.yul\":2117:2142   */\n      swap2\n      pop\n        /* \"#utility.yul\":2156:2176   */\n      tag_66\n        /* \"#utility.yul\":2174:2175   */\n      dup4\n        /* \"#utility.yul\":2156:2176   */\n      tag_33\n      jump\t// in\n    tag_66:\n        /* \"#utility.yul\":2151:2176   */\n      swap3\n      pop\n        /* \"#utility.yul\":2199:2200   */\n      dup3\n        /* \"#utility.yul\":2196:2197   */\n      dup3\n        /* \"#utility.yul\":2192:2201   */\n      add\n        /* \"#utility.yul\":2185:2201   */\n      swap1\n      pop\n        /* \"#utility.yul\":2220:2223   */\n      dup1\n        /* \"#utility.yul\":2217:2218   */\n      dup3\n        /* \"#utility.yul\":2214:2224   */\n      gt\n        /* \"#utility.yul\":2211:2247   */\n      iszero\n      tag_67\n      jumpi\n        /* \"#utility.yul\":2227:2245   */\n      tag_68\n      tag_39\n      jump\t// in\n    tag_68:\n        /* \"#utility.yul\":2211:2247   */\n    tag_67:\n        /* \"#utility.yul\":2063:2254   */\n      swap3\n      swap2\n      pop\n      pop\n      jump\t// out\n\n    auxdata: 0xa2646970667358221220b1ede07f99c6e15aae583ddbbf4ef5d9406e34ae5ba2f8761323cba43d4b871464736f6c63430008140033\n}\n",
				"bytecode": {
					"linkReferences": {},
					"object": "608060405234801561000f575f80fd5b505f80819055506102c6806100235f395ff3fe608060405234801561000f575f80fd5b506004361061004a575f3560e01c80633b3546c81461004e57806381f745b81461006a5780639507d39a14610088578063b3101fb4146100b8575b5f80fd5b6100686004803603810190610063919061018a565b6100d6565b005b6100726100f0565b60405161007f91906101ef565b60405180910390f35b6100a2600480360381019061009d919061018a565b610117565b6040516100af9190610217565b60405180910390f35b6100c061012c565b6040516100cd91906101ef565b60405180910390f35b805f808282546100e6919061025d565b9250508190555050565b5f7f64f1bd63e06b081b8820f0d31e39476d387987bc3f038acb052d7be05ebcc8ad905090565b5f815f54610125919061025d565b9050919050565b5f7f7162f111594d34ab28fb2f5d91b37c0358899878688dea644ebe251fd3e8cf27905090565b5f80fd5b5f819050919050565b61016981610157565b8114610173575f80fd5b50565b5f8135905061018481610160565b92915050565b5f6020828403121561019f5761019e610153565b5b5f6101ac84828501610176565b91505092915050565b5f7fffffffff0000000000000000000000000000000000000000000000000000000082169050919050565b6101e9816101b5565b82525050565b5f6020820190506102025f8301846101e0565b92915050565b61021181610157565b82525050565b5f60208201905061022a5f830184610208565b92915050565b7f4e487b71000000000000000000000000000000000000000000000000000000005f52601160045260245ffd5b5f61026782610157565b915061027283610157565b925082820190508082111561028a57610289610230565b5b9291505056fea2646970667358221220b1ede07f99c6e15aae583ddbbf4ef5d9406e34ae5ba2f8761323cba43d4b871464736f6c63430008140033",
					"opcodes": "PUSH1 0x80 PUSH1 0x40 MSTORE CALLVALUE DUP1 ISZERO PUSH2 0xF JUMPI PUSH0 DUP1 REVERT JUMPDEST POP PUSH0 DUP1 DUP2 SWAP1 SSTORE POP PUSH2 0x2C6 DUP1 PUSH2 0x23 PUSH0 CODECOPY PUSH0 RETURN INVALID PUSH1 0x80 PUSH1 0x40 MSTORE CALLVALUE DUP1 ISZERO PUSH2 0xF JUMPI PUSH0 DUP1 REVERT JUMPDEST POP PUSH1 0x4 CALLDATASIZE LT PUSH2 0x4A JUMPI PUSH0 CALLDATALOAD PUSH1 0xE0 SHR DUP1 PUSH4 0x3B3546C8 EQ PUSH2 0x4E JUMPI DUP1 PUSH4 0x81F745B8 EQ PUSH2 0x6A JUMPI DUP1 PUSH4 0x9507D39A EQ PUSH2 0x88 JUMPI DUP1 PUSH4 0xB3101FB4 EQ PUSH2 0xB8 JUMPI JUMPDEST PUSH0 DUP1 REVERT JUMPDEST PUSH2 0x68 PUSH1 0x4 DUP1 CALLDATASIZE SUB DUP2 ADD SWAP1 PUSH2 0x63 SWAP2 SWAP1 PUSH2 0x18A JUMP JUMPDEST PUSH2 0xD6 JUMP JUMPDEST STOP JUMPDEST PUSH2 0x72 PUSH2 0xF0 JUMP JUMPDEST PUSH1 0x40 MLOAD PUSH2 0x7F SWAP2 SWAP1 PUSH2 0x1EF JUMP JUMPDEST PUSH1 0x40 MLOAD DUP1 SWAP2 SUB SWAP1 RETURN JUMPDEST PUSH2 0xA2 PUSH1 0x4 DUP1 CALLDATASIZE SUB DUP2 ADD SWAP1 PUSH2 0x9D SWAP2 SWAP1 PUSH2 0x18A JUMP JUMPDEST PUSH2 0x117 JUMP JUMPDEST PUSH1 0x40 MLOAD PUSH2 0xAF SWAP2 SWAP1 PUSH2 0x217 JUMP JUMPDEST PUSH1 0x40 MLOAD DUP1 SWAP2 SUB SWAP1 RETURN JUMPDEST PUSH2 0xC0 PUSH2 0x12C JUMP JUMPDEST PUSH1 0x40 MLOAD PUSH2 0xCD SWAP2 SWAP1 PUSH2 0x1EF JUMP JUMPDEST PUSH1 0x40 MLOAD DUP1 SWAP2 SUB SWAP1 RETURN JUMPDEST DUP1 PUSH0 DUP1 DUP3 DUP3 SLOAD PUSH2 0xE6 SWAP2 SWAP1 PUSH2 0x25D JUMP JUMPDEST SWAP3 POP POP DUP2 SWAP1 SSTORE POP POP JUMP JUMPDEST PUSH0 PUSH32 0x64F1BD63E06B081B8820F0D31E39476D387987BC3F038ACB052D7BE05EBCC8AD SWAP1 POP SWAP1 JUMP JUMPDEST PUSH0 DUP2 PUSH0 SLOAD PUSH2 0x125 SWAP2 SWAP1 PUSH2 0x25D JUMP JUMPDEST SWAP1 POP SWAP2 SWAP1 POP JUMP JUMPDEST PUSH0 PUSH32 0x7162F111594D34AB28FB2F5D91B37C0358899878688DEA644EBE251FD3E8CF27 SWAP1 POP SWAP1 JUMP JUMPDEST PUSH0 DUP1 REVERT JUMPDEST PUSH0 DUP2 SWAP1 POP SWAP2 SWAP1 POP JUMP JUMPDEST PUSH2 0x169 DUP2 PUSH2 0x157 JUMP JUMPDEST DUP2 EQ PUSH2 0x173 JUMPI PUSH0 DUP1 REVERT JUMPDEST POP JUMP JUMPDEST PUSH0 DUP2 CALLDATALOAD SWAP1 POP PUSH2 0x184 DUP2 PUSH2 0x160 JUMP JUMPDEST SWAP3 SWAP2 POP POP JUMP JUMPDEST PUSH0 PUSH1 0x20 DUP3 DUP5 SUB SLT ISZERO PUSH2 0x19F JUMPI PUSH2 0x19E PUSH2 0x153 JUMP JUMPDEST JUMPDEST PUSH0 PUSH2 0x1AC DUP5 DUP3 DUP6 ADD PUSH2 0x176 JUMP JUMPDEST SWAP2 POP POP SWAP3 SWAP2 POP POP JUMP JUMPDEST PUSH0 PUSH32 0xFFFFFFFF00000000000000000000000000000000000000000000000000000000 DUP3 AND SWAP1 POP SWAP2 SWAP1 POP JUMP JUMPDEST PUSH2 0x1E9 DUP2 PUSH2 0x1B5 JUMP JUMPDEST DUP3 MSTORE POP POP JUMP JUMPDEST PUSH0 PUSH1 0x20 DUP3 ADD SWAP1 POP PUSH2 0x202 PUSH0 DUP4 ADD DUP5 PUSH2 0x1E0 JUMP JUMPDEST SWAP3 SWAP2 POP POP JUMP JUMPDEST PUSH2 0x211 DUP2 PUSH2 0x157 JUMP JUMPDEST DUP3 MSTORE POP POP JUMP JUMPDEST PUSH0 PUSH1 0x20 DUP3 ADD SWAP1 POP PUSH2 0x22A PUSH0 DUP4 ADD DUP5 PUSH2 0x208 JUMP JUMPDEST SWAP3 SWAP2 POP POP JUMP JUMPDEST PUSH32 0x4E487B7100000000000000000000000000000000000000000000000000000000 PUSH0 MSTORE PUSH1 0x11 PUSH1 0x4 MSTORE PUSH1 0x24 PUSH0 REVERT JUMPDEST PUSH0 PUSH2 0x267 DUP3 PUSH2 0x157 JUMP JUMPDEST SWAP2 POP PUSH2 0x272 DUP4 PUSH2 0x157 JUMP JUMPDEST SWAP3 POP DUP3 DUP3 ADD SWAP1 POP DUP1 DUP3 GT ISZERO PUSH2 0x28A JUMPI PUSH2 0x289 PUSH2 0x230 JUMP JUMPDEST JUMPDEST SWAP3 SWAP2 POP POP JUMP INVALID LOG2 PUSH5 0x6970667358 0x22 SLT KECCAK256 0xB1 0xED 0xE0 PUSH32 0x99C6E15AAE583DDBBF4EF5D9406E34AE5BA2F8761323CBA43D4B871464736F6C PUSH4 0x43000814 STOP CALLER "
				},
				"gasEstimates": {
					"creation": {
						"codeDepositCost": "142000",
						"executionCost": "5201",
						"totalCost": "147201"
					},
					"external": {
						"count(uint256)": "infinite",
						"get(uint256)": "infinite",
						"getSelectorCount()": "382",
						"getSelectorGet()": "338"
					}
				},
				"methodIdentifiers": {
					"count(uint256)": "3b3546c8",
					"get(uint256)": "9507d39a",
					"getSelectorCount()": "b3101fb4",
					"getSelectorGet()": "81f745b8"
				}
			},
			"storageLayout": {
				"storage": [
					{
						"astId": 3,
						"contract": "contracts/Counter.sol:Counter",
						"label": "conter",
						"offset": 0,
						"slot": "0",
						"type": "t_uint256"
					}
				],
				"types": {
					"t_uint256": {
						"encoding": "inplace",
						"label": "uint256",
						"numberOfBytes": "32"
					}
				}
			},
			"userdoc": {
				"kind": "user",
				"methods": {},
				"version": 1
			}
		}
	}
}