{
	"contracts/Award.sol": {
		"addTest2": {
			"abi": [
				{
					"inputs": [
						{
							"internalType": "uint256",
							"name": "x",
							"type": "uint256"
						},
						{
							"internalType": "uint256",
							"name": "y",
							"type": "uint256"
						}
					],
					"name": "add",
					"outputs": [
						{
							"internalType": "uint256",
							"name": "",
							"type": "uint256"
						}
					],
					"stateMutability": "pure",
					"type": "function"
				},
				{
					"inputs": [
						{
							"internalType": "uint256",
							"name": "value",
							"type": "uint256"
						}
					],
					"name": "push",
					"outputs": [],
					"stateMutability": "nonpayable",
					"type": "function"
				},
				{
					"inputs": [
						{
							"internalType": "uint256",
							"name": "_old",
							"type": "uint256"
						},
						{
							"internalType": "uint256",
							"name": "_new",
							"type": "uint256"
						}
					],
					"name": "replace",
					"outputs": [],
					"stateMutability": "nonpayable",
					"type": "function"
				}
			],
			"devdoc": {
				"kind": "dev",
				"methods": {},
				"version": 1
			},
			"evm": {
				"assembly": "    /* \"contracts/Award.sol\":108:593  contract addTest2 {... */\n  mstore(0x40, 0x80)\n  callvalue\n  dup1\n  iszero\n  tag_1\n  jumpi\n  0x00\n  dup1\n  revert\ntag_1:\n  pop\n  dataSize(sub_0)\n  dup1\n  dataOffset(sub_0)\n  0x00\n  codecopy\n  0x00\n  return\nstop\n\nsub_0: assembly {\n        /* \"contracts/Award.sol\":108:593  contract addTest2 {... */\n      mstore(0x40, 0x80)\n      callvalue\n      dup1\n      iszero\n      tag_1\n      jumpi\n      0x00\n      dup1\n      revert\n    tag_1:\n      pop\n      jumpi(tag_2, lt(calldatasize, 0x04))\n      shr(0xe0, calldataload(0x00))\n      dup1\n      0x771602f7\n      eq\n      tag_3\n      jumpi\n      dup1\n      0x959ac484\n      eq\n      tag_4\n      jumpi\n      dup1\n      0xe81cf24c\n      eq\n      tag_5\n      jumpi\n    tag_2:\n      0x00\n      dup1\n      revert\n        /* \"contracts/Award.sol\":502:591  function add(uint x,uint y) public pure returns(uint) {... */\n    tag_3:\n      tag_6\n      0x04\n      dup1\n      calldatasize\n      sub\n      dup2\n      add\n      swap1\n      tag_7\n      swap2\n      swap1\n      tag_8\n      jump\t// in\n    tag_7:\n      tag_9\n      jump\t// in\n    tag_6:\n      mload(0x40)\n      tag_10\n      swap2\n      swap1\n      tag_11\n      jump\t// in\n    tag_10:\n      mload(0x40)\n      dup1\n      swap2\n      sub\n      swap1\n      return\n        /* \"contracts/Award.sol\":210:277  function push(uint value) public  {... */\n    tag_4:\n      tag_12\n      0x04\n      dup1\n      calldatasize\n      sub\n      dup2\n      add\n      swap1\n      tag_13\n      swap2\n      swap1\n      tag_14\n      jump\t// in\n    tag_13:\n      tag_15\n      jump\t// in\n    tag_12:\n      stop\n        /* \"contracts/Award.sol\":283:496  function replace(uint _old,uint _new) public  {... */\n    tag_5:\n      tag_16\n      0x04\n      dup1\n      calldatasize\n      sub\n      dup2\n      add\n      swap1\n      tag_17\n      swap2\n      swap1\n      tag_8\n      jump\t// in\n    tag_17:\n      tag_18\n      jump\t// in\n    tag_16:\n      stop\n        /* \"contracts/Award.sol\":502:591  function add(uint x,uint y) public pure returns(uint) {... */\n    tag_9:\n        /* \"contracts/Award.sol\":550:554  uint */\n      0x00\n        /* \"contracts/Award.sol\":573:584  x.addmod(y) */\n      tag_20\n        /* \"contracts/Award.sol\":582:583  y */\n      dup3\n        /* \"contracts/Award.sol\":573:574  x */\n      dup5\n        /* \"contracts/Award.sol\":573:581  x.addmod */\n      tag_21\n      swap1\n        /* \"contracts/Award.sol\":573:584  x.addmod(y) */\n      swap2\n      swap1\n      0xffffffff\n      and\n      jump\t// in\n    tag_20:\n        /* \"contracts/Award.sol\":566:584  return x.addmod(y) */\n      swap1\n      pop\n        /* \"contracts/Award.sol\":502:591  function add(uint x,uint y) public pure returns(uint) {... */\n      swap3\n      swap2\n      pop\n      pop\n      jump\t// out\n        /* \"contracts/Award.sol\":210:277  function push(uint value) public  {... */\n    tag_15:\n        /* \"contracts/Award.sol\":254:258  data */\n      0x00\n        /* \"contracts/Award.sol\":264:269  value */\n      dup2\n        /* \"contracts/Award.sol\":254:270  data.push(value) */\n      swap1\n      dup1\n      0x01\n      dup2\n      sload\n      add\n      dup1\n      dup3\n      sstore\n      dup1\n      swap2\n      pop\n      pop\n      0x01\n      swap1\n      sub\n      swap1\n      0x00\n      mstore\n      keccak256(0x00, 0x20)\n      add\n      0x00\n      swap1\n      swap2\n      swap1\n      swap2\n      swap1\n      swap2\n      pop\n      sstore\n        /* \"contracts/Award.sol\":210:277  function push(uint value) public  {... */\n      pop\n      jump\t// out\n        /* \"contracts/Award.sol\":283:496  function replace(uint _old,uint _new) public  {... */\n    tag_18:\n        /* \"contracts/Award.sol\":339:349  uint index */\n      0x00\n        /* \"contracts/Award.sol\":352:356  data */\n      dup1\n        /* \"contracts/Award.sol\":352:364  data.indexOf */\n      linkerSymbol(\"cc06415bea5d3c3468a7c7f3fa8324705ec969438a14241f79f09b6f12372b0f\")\n      0x24fef5c8\n      swap1\n      swap2\n        /* \"contracts/Award.sol\":365:369  _old */\n      dup6\n        /* \"contracts/Award.sol\":352:370  data.indexOf(_old) */\n      mload(0x40)\n      dup4\n      0xffffffff\n      and\n      0xe0\n      shl\n      dup2\n      mstore\n      0x04\n      add\n      tag_25\n      swap3\n      swap2\n      swap1\n      tag_26\n      jump\t// in\n    tag_25:\n      0x20\n      mload(0x40)\n      dup1\n      dup4\n      sub\n      dup2\n      dup7\n      gas\n      delegatecall\n      iszero\n      dup1\n      iszero\n      tag_28\n      jumpi\n      returndatasize\n      0x00\n      dup1\n      returndatacopy\n      revert(0x00, returndatasize)\n    tag_28:\n      pop\n      pop\n      pop\n      pop\n      mload(0x40)\n      returndatasize\n      not(0x1f)\n      0x1f\n      dup3\n      add\n      and\n      dup3\n      add\n      dup1\n      0x40\n      mstore\n      pop\n      dup2\n      add\n      swap1\n      tag_29\n      swap2\n      swap1\n      tag_30\n      jump\t// in\n    tag_29:\n        /* \"contracts/Award.sol\":339:370  uint index = data.indexOf(_old) */\n      swap1\n      pop\n        /* \"contracts/Award.sol\":397:400  500 */\n      0x01f4\n        /* \"contracts/Award.sol\":383:388  index */\n      dup2\n        /* \"contracts/Award.sol\":383:401  index == uint(500) */\n      sub\n        /* \"contracts/Award.sol\":380:490  if(index == uint(500)){... */\n      tag_31\n      jumpi\n        /* \"contracts/Award.sol\":416:420  data */\n      0x00\n        /* \"contracts/Award.sol\":426:430  _new */\n      dup3\n        /* \"contracts/Award.sol\":416:431  data.push(_new) */\n      swap1\n      dup1\n      0x01\n      dup2\n      sload\n      add\n      dup1\n      dup3\n      sstore\n      dup1\n      swap2\n      pop\n      pop\n      0x01\n      swap1\n      sub\n      swap1\n      0x00\n      mstore\n      keccak256(0x00, 0x20)\n      add\n      0x00\n      swap1\n      swap2\n      swap1\n      swap2\n      swap1\n      swap2\n      pop\n      sstore\n        /* \"contracts/Award.sol\":380:490  if(index == uint(500)){... */\n      jump(tag_33)\n    tag_31:\n        /* \"contracts/Award.sol\":475:479  _new */\n      dup2\n        /* \"contracts/Award.sol\":461:465  data */\n      0x00\n        /* \"contracts/Award.sol\":466:471  index */\n      dup3\n        /* \"contracts/Award.sol\":461:472  data[index] */\n      dup2\n      sload\n      dup2\n      lt\n      tag_34\n      jumpi\n      tag_35\n      tag_36\n      jump\t// in\n    tag_35:\n    tag_34:\n      swap1\n      0x00\n      mstore\n      keccak256(0x00, 0x20)\n      add\n        /* \"contracts/Award.sol\":461:479  data[index] = _new */\n      dup2\n      swap1\n      sstore\n      pop\n        /* \"contracts/Award.sol\":380:490  if(index == uint(500)){... */\n    tag_33:\n        /* \"contracts/Award.sol\":329:496  {... */\n      pop\n        /* \"contracts/Award.sol\":283:496  function replace(uint _old,uint _new) public  {... */\n      pop\n      pop\n      jump\t// out\n        /* \"contracts/SafeMath.sol\":87:251  function addmod(uint x, uint y)internal pure returns(uint) {... */\n    tag_21:\n        /* \"contracts/SafeMath.sol\":140:144  uint */\n      0x00\n        /* \"contracts/SafeMath.sol\":156:162  uint c */\n      dup1\n        /* \"contracts/SafeMath.sol\":169:170  y */\n      dup3\n        /* \"contracts/SafeMath.sol\":165:166  x */\n      dup5\n        /* \"contracts/SafeMath.sol\":165:170  x + y */\n      tag_39\n      swap2\n      swap1\n      tag_40\n      jump\t// in\n    tag_39:\n        /* \"contracts/SafeMath.sol\":156:170  uint c = x + y */\n      swap1\n      pop\n        /* \"contracts/SafeMath.sol\":193:194  x */\n      dup4\n        /* \"contracts/SafeMath.sol\":188:189  c */\n      dup2\n        /* \"contracts/SafeMath.sol\":188:194  c >= x */\n      lt\n      iszero\n        /* \"contracts/SafeMath.sol\":180:226  require(c >= x, \"SafeMath: addition overflow\") */\n      tag_41\n      jumpi\n      mload(0x40)\n      0x08c379a000000000000000000000000000000000000000000000000000000000\n      dup2\n      mstore\n      0x04\n      add\n      tag_42\n      swap1\n      tag_43\n      jump\t// in\n    tag_42:\n      mload(0x40)\n      dup1\n      swap2\n      sub\n      swap1\n      revert\n    tag_41:\n        /* \"contracts/SafeMath.sol\":243:244  c */\n      dup1\n        /* \"contracts/SafeMath.sol\":236:244  return c */\n      swap2\n      pop\n      pop\n        /* \"contracts/SafeMath.sol\":87:251  function addmod(uint x, uint y)internal pure returns(uint) {... */\n      swap3\n      swap2\n      pop\n      pop\n      jump\t// out\n        /* \"#utility.yul\":88:205   */\n    tag_45:\n        /* \"#utility.yul\":197:198   */\n      0x00\n        /* \"#utility.yul\":194:195   */\n      dup1\n        /* \"#utility.yul\":187:199   */\n      revert\n        /* \"#utility.yul\":334:411   */\n    tag_47:\n        /* \"#utility.yul\":371:378   */\n      0x00\n        /* \"#utility.yul\":400:405   */\n      dup2\n        /* \"#utility.yul\":389:405   */\n      swap1\n      pop\n        /* \"#utility.yul\":334:411   */\n      swap2\n      swap1\n      pop\n      jump\t// out\n        /* \"#utility.yul\":417:539   */\n    tag_48:\n        /* \"#utility.yul\":490:514   */\n      tag_64\n        /* \"#utility.yul\":508:513   */\n      dup2\n        /* \"#utility.yul\":490:514   */\n      tag_47\n      jump\t// in\n    tag_64:\n        /* \"#utility.yul\":483:488   */\n      dup2\n        /* \"#utility.yul\":480:515   */\n      eq\n        /* \"#utility.yul\":470:533   */\n      tag_65\n      jumpi\n        /* \"#utility.yul\":529:530   */\n      0x00\n        /* \"#utility.yul\":526:527   */\n      dup1\n        /* \"#utility.yul\":519:531   */\n      revert\n        /* \"#utility.yul\":470:533   */\n    tag_65:\n        /* \"#utility.yul\":417:539   */\n      pop\n      jump\t// out\n        /* \"#utility.yul\":545:684   */\n    tag_49:\n        /* \"#utility.yul\":591:596   */\n      0x00\n        /* \"#utility.yul\":629:635   */\n      dup2\n        /* \"#utility.yul\":616:636   */\n      calldataload\n        /* \"#utility.yul\":607:636   */\n      swap1\n      pop\n        /* \"#utility.yul\":645:678   */\n      tag_67\n        /* \"#utility.yul\":672:677   */\n      dup2\n        /* \"#utility.yul\":645:678   */\n      tag_48\n      jump\t// in\n    tag_67:\n        /* \"#utility.yul\":545:684   */\n      swap3\n      swap2\n      pop\n      pop\n      jump\t// out\n        /* \"#utility.yul\":690:1164   */\n    tag_8:\n        /* \"#utility.yul\":758:764   */\n      0x00\n        /* \"#utility.yul\":766:772   */\n      dup1\n        /* \"#utility.yul\":815:817   */\n      0x40\n        /* \"#utility.yul\":803:812   */\n      dup4\n        /* \"#utility.yul\":794:801   */\n      dup6\n        /* \"#utility.yul\":790:813   */\n      sub\n        /* \"#utility.yul\":786:818   */\n      slt\n        /* \"#utility.yul\":783:902   */\n      iszero\n      tag_69\n      jumpi\n        /* \"#utility.yul\":821:900   */\n      tag_70\n      tag_45\n      jump\t// in\n    tag_70:\n        /* \"#utility.yul\":783:902   */\n    tag_69:\n        /* \"#utility.yul\":941:942   */\n      0x00\n        /* \"#utility.yul\":966:1019   */\n      tag_71\n        /* \"#utility.yul\":1011:1018   */\n      dup6\n        /* \"#utility.yul\":1002:1008   */\n      dup3\n        /* \"#utility.yul\":991:1000   */\n      dup7\n        /* \"#utility.yul\":987:1009   */\n      add\n        /* \"#utility.yul\":966:1019   */\n      tag_49\n      jump\t// in\n    tag_71:\n        /* \"#utility.yul\":956:1019   */\n      swap3\n      pop\n        /* \"#utility.yul\":912:1029   */\n      pop\n        /* \"#utility.yul\":1068:1070   */\n      0x20\n        /* \"#utility.yul\":1094:1147   */\n      tag_72\n        /* \"#utility.yul\":1139:1146   */\n      dup6\n        /* \"#utility.yul\":1130:1136   */\n      dup3\n        /* \"#utility.yul\":1119:1128   */\n      dup7\n        /* \"#utility.yul\":1115:1137   */\n      add\n        /* \"#utility.yul\":1094:1147   */\n      tag_49\n      jump\t// in\n    tag_72:\n        /* \"#utility.yul\":1084:1147   */\n      swap2\n      pop\n        /* \"#utility.yul\":1039:1157   */\n      pop\n        /* \"#utility.yul\":690:1164   */\n      swap3\n      pop\n      swap3\n      swap1\n      pop\n      jump\t// out\n        /* \"#utility.yul\":1170:1288   */\n    tag_50:\n        /* \"#utility.yul\":1257:1281   */\n      tag_74\n        /* \"#utility.yul\":1275:1280   */\n      dup2\n        /* \"#utility.yul\":1257:1281   */\n      tag_47\n      jump\t// in\n    tag_74:\n        /* \"#utility.yul\":1252:1255   */\n      dup3\n        /* \"#utility.yul\":1245:1282   */\n      mstore\n        /* \"#utility.yul\":1170:1288   */\n      pop\n      pop\n      jump\t// out\n        /* \"#utility.yul\":1294:1516   */\n    tag_11:\n        /* \"#utility.yul\":1387:1391   */\n      0x00\n        /* \"#utility.yul\":1425:1427   */\n      0x20\n        /* \"#utility.yul\":1414:1423   */\n      dup3\n        /* \"#utility.yul\":1410:1428   */\n      add\n        /* \"#utility.yul\":1402:1428   */\n      swap1\n      pop\n        /* \"#utility.yul\":1438:1509   */\n      tag_76\n        /* \"#utility.yul\":1506:1507   */\n      0x00\n        /* \"#utility.yul\":1495:1504   */\n      dup4\n        /* \"#utility.yul\":1491:1508   */\n      add\n        /* \"#utility.yul\":1482:1488   */\n      dup5\n        /* \"#utility.yul\":1438:1509   */\n      tag_50\n      jump\t// in\n    tag_76:\n        /* \"#utility.yul\":1294:1516   */\n      swap3\n      swap2\n      pop\n      pop\n      jump\t// out\n        /* \"#utility.yul\":1522:1851   */\n    tag_14:\n        /* \"#utility.yul\":1581:1587   */\n      0x00\n        /* \"#utility.yul\":1630:1632   */\n      0x20\n        /* \"#utility.yul\":1618:1627   */\n      dup3\n        /* \"#utility.yul\":1609:1616   */\n      dup5\n        /* \"#utility.yul\":1605:1628   */\n      sub\n        /* \"#utility.yul\":1601:1633   */\n      slt\n        /* \"#utility.yul\":1598:1717   */\n      iszero\n      tag_78\n      jumpi\n        /* \"#utility.yul\":1636:1715   */\n      tag_79\n      tag_45\n      jump\t// in\n    tag_79:\n        /* \"#utility.yul\":1598:1717   */\n    tag_78:\n        /* \"#utility.yul\":1756:1757   */\n      0x00\n        /* \"#utility.yul\":1781:1834   */\n      tag_80\n        /* \"#utility.yul\":1826:1833   */\n      dup5\n        /* \"#utility.yul\":1817:1823   */\n      dup3\n        /* \"#utility.yul\":1806:1815   */\n      dup6\n        /* \"#utility.yul\":1802:1824   */\n      add\n        /* \"#utility.yul\":1781:1834   */\n      tag_49\n      jump\t// in\n    tag_80:\n        /* \"#utility.yul\":1771:1834   */\n      swap2\n      pop\n        /* \"#utility.yul\":1727:1844   */\n      pop\n        /* \"#utility.yul\":1522:1851   */\n      swap3\n      swap2\n      pop\n      pop\n      jump\t// out\n        /* \"#utility.yul\":1857:1990   */\n    tag_51:\n        /* \"#utility.yul\":1978:1983   */\n      dup1\n        /* \"#utility.yul\":1973:1976   */\n      dup3\n        /* \"#utility.yul\":1966:1984   */\n      mstore\n        /* \"#utility.yul\":1857:1990   */\n      pop\n      pop\n      jump\t// out\n        /* \"#utility.yul\":1996:2122   */\n    tag_52:\n        /* \"#utility.yul\":2091:2115   */\n      tag_83\n        /* \"#utility.yul\":2109:2114   */\n      dup2\n        /* \"#utility.yul\":2091:2115   */\n      tag_47\n      jump\t// in\n    tag_83:\n        /* \"#utility.yul\":2086:2089   */\n      dup3\n        /* \"#utility.yul\":2079:2116   */\n      mstore\n        /* \"#utility.yul\":1996:2122   */\n      pop\n      pop\n      jump\t// out\n        /* \"#utility.yul\":2128:2536   */\n    tag_26:\n        /* \"#utility.yul\":2283:2287   */\n      0x00\n        /* \"#utility.yul\":2321:2323   */\n      0x40\n        /* \"#utility.yul\":2310:2319   */\n      dup3\n        /* \"#utility.yul\":2306:2324   */\n      add\n        /* \"#utility.yul\":2298:2324   */\n      swap1\n      pop\n        /* \"#utility.yul\":2334:2439   */\n      tag_85\n        /* \"#utility.yul\":2436:2437   */\n      0x00\n        /* \"#utility.yul\":2425:2434   */\n      dup4\n        /* \"#utility.yul\":2421:2438   */\n      add\n        /* \"#utility.yul\":2412:2418   */\n      dup6\n        /* \"#utility.yul\":2334:2439   */\n      tag_51\n      jump\t// in\n    tag_85:\n        /* \"#utility.yul\":2449:2529   */\n      tag_86\n        /* \"#utility.yul\":2525:2527   */\n      0x20\n        /* \"#utility.yul\":2514:2523   */\n      dup4\n        /* \"#utility.yul\":2510:2528   */\n      add\n        /* \"#utility.yul\":2501:2507   */\n      dup5\n        /* \"#utility.yul\":2449:2529   */\n      tag_52\n      jump\t// in\n    tag_86:\n        /* \"#utility.yul\":2128:2536   */\n      swap4\n      swap3\n      pop\n      pop\n      pop\n      jump\t// out\n        /* \"#utility.yul\":2542:2685   */\n    tag_53:\n        /* \"#utility.yul\":2599:2604   */\n      0x00\n        /* \"#utility.yul\":2630:2636   */\n      dup2\n        /* \"#utility.yul\":2624:2637   */\n      mload\n        /* \"#utility.yul\":2615:2637   */\n      swap1\n      pop\n        /* \"#utility.yul\":2646:2679   */\n      tag_88\n        /* \"#utility.yul\":2673:2678   */\n      dup2\n        /* \"#utility.yul\":2646:2679   */\n      tag_48\n      jump\t// in\n    tag_88:\n        /* \"#utility.yul\":2542:2685   */\n      swap3\n      swap2\n      pop\n      pop\n      jump\t// out\n        /* \"#utility.yul\":2691:3042   */\n    tag_30:\n        /* \"#utility.yul\":2761:2767   */\n      0x00\n        /* \"#utility.yul\":2810:2812   */\n      0x20\n        /* \"#utility.yul\":2798:2807   */\n      dup3\n        /* \"#utility.yul\":2789:2796   */\n      dup5\n        /* \"#utility.yul\":2785:2808   */\n      sub\n        /* \"#utility.yul\":2781:2813   */\n      slt\n        /* \"#utility.yul\":2778:2897   */\n      iszero\n      tag_90\n      jumpi\n        /* \"#utility.yul\":2816:2895   */\n      tag_91\n      tag_45\n      jump\t// in\n    tag_91:\n        /* \"#utility.yul\":2778:2897   */\n    tag_90:\n        /* \"#utility.yul\":2936:2937   */\n      0x00\n        /* \"#utility.yul\":2961:3025   */\n      tag_92\n        /* \"#utility.yul\":3017:3024   */\n      dup5\n        /* \"#utility.yul\":3008:3014   */\n      dup3\n        /* \"#utility.yul\":2997:3006   */\n      dup6\n        /* \"#utility.yul\":2993:3015   */\n      add\n        /* \"#utility.yul\":2961:3025   */\n      tag_53\n      jump\t// in\n    tag_92:\n        /* \"#utility.yul\":2951:3025   */\n      swap2\n      pop\n        /* \"#utility.yul\":2907:3035   */\n      pop\n        /* \"#utility.yul\":2691:3042   */\n      swap3\n      swap2\n      pop\n      pop\n      jump\t// out\n        /* \"#utility.yul\":3048:3228   */\n    tag_36:\n        /* \"#utility.yul\":3096:3173   */\n      0x4e487b7100000000000000000000000000000000000000000000000000000000\n        /* \"#utility.yul\":3093:3094   */\n      0x00\n        /* \"#utility.yul\":3086:3174   */\n      mstore\n        /* \"#utility.yul\":3193:3197   */\n      0x32\n        /* \"#utility.yul\":3190:3191   */\n      0x04\n        /* \"#utility.yul\":3183:3198   */\n      mstore\n        /* \"#utility.yul\":3217:3221   */\n      0x24\n        /* \"#utility.yul\":3214:3215   */\n      0x00\n        /* \"#utility.yul\":3207:3222   */\n      revert\n        /* \"#utility.yul\":3234:3414   */\n    tag_54:\n        /* \"#utility.yul\":3282:3359   */\n      0x4e487b7100000000000000000000000000000000000000000000000000000000\n        /* \"#utility.yul\":3279:3280   */\n      0x00\n        /* \"#utility.yul\":3272:3360   */\n      mstore\n        /* \"#utility.yul\":3379:3383   */\n      0x11\n        /* \"#utility.yul\":3376:3377   */\n      0x04\n        /* \"#utility.yul\":3369:3384   */\n      mstore\n        /* \"#utility.yul\":3403:3407   */\n      0x24\n        /* \"#utility.yul\":3400:3401   */\n      0x00\n        /* \"#utility.yul\":3393:3408   */\n      revert\n        /* \"#utility.yul\":3420:3611   */\n    tag_40:\n        /* \"#utility.yul\":3460:3463   */\n      0x00\n        /* \"#utility.yul\":3479:3499   */\n      tag_96\n        /* \"#utility.yul\":3497:3498   */\n      dup3\n        /* \"#utility.yul\":3479:3499   */\n      tag_47\n      jump\t// in\n    tag_96:\n        /* \"#utility.yul\":3474:3499   */\n      swap2\n      pop\n        /* \"#utility.yul\":3513:3533   */\n      tag_97\n        /* \"#utility.yul\":3531:3532   */\n      dup4\n        /* \"#utility.yul\":3513:3533   */\n      tag_47\n      jump\t// in\n    tag_97:\n        /* \"#utility.yul\":3508:3533   */\n      swap3\n      pop\n        /* \"#utility.yul\":3556:3557   */\n      dup3\n        /* \"#utility.yul\":3553:3554   */\n      dup3\n        /* \"#utility.yul\":3549:3558   */\n      add\n        /* \"#utility.yul\":3542:3558   */\n      swap1\n      pop\n        /* \"#utility.yul\":3577:3580   */\n      dup1\n        /* \"#utility.yul\":3574:3575   */\n      dup3\n        /* \"#utility.yul\":3571:3581   */\n      gt\n        /* \"#utility.yul\":3568:3604   */\n      iszero\n      tag_98\n      jumpi\n        /* \"#utility.yul\":3584:3602   */\n      tag_99\n      tag_54\n      jump\t// in\n    tag_99:\n        /* \"#utility.yul\":3568:3604   */\n    tag_98:\n        /* \"#utility.yul\":3420:3611   */\n      swap3\n      swap2\n      pop\n      pop\n      jump\t// out\n        /* \"#utility.yul\":3617:3786   */\n    tag_55:\n        /* \"#utility.yul\":3701:3712   */\n      0x00\n        /* \"#utility.yul\":3735:3741   */\n      dup3\n        /* \"#utility.yul\":3730:3733   */\n      dup3\n        /* \"#utility.yul\":3723:3742   */\n      mstore\n        /* \"#utility.yul\":3775:3779   */\n      0x20\n        /* \"#utility.yul\":3770:3773   */\n      dup3\n        /* \"#utility.yul\":3766:3780   */\n      add\n        /* \"#utility.yul\":3751:3780   */\n      swap1\n      pop\n        /* \"#utility.yul\":3617:3786   */\n      swap3\n      swap2\n      pop\n      pop\n      jump\t// out\n        /* \"#utility.yul\":3792:3969   */\n    tag_56:\n        /* \"#utility.yul\":3932:3961   */\n      0x536166654d6174683a206164646974696f6e206f766572666c6f770000000000\n        /* \"#utility.yul\":3928:3929   */\n      0x00\n        /* \"#utility.yul\":3920:3926   */\n      dup3\n        /* \"#utility.yul\":3916:3930   */\n      add\n        /* \"#utility.yul\":3909:3962   */\n      mstore\n        /* \"#utility.yul\":3792:3969   */\n      pop\n      jump\t// out\n        /* \"#utility.yul\":3975:4341   */\n    tag_57:\n        /* \"#utility.yul\":4117:4120   */\n      0x00\n        /* \"#utility.yul\":4138:4205   */\n      tag_103\n        /* \"#utility.yul\":4202:4204   */\n      0x1b\n        /* \"#utility.yul\":4197:4200   */\n      dup4\n        /* \"#utility.yul\":4138:4205   */\n      tag_55\n      jump\t// in\n    tag_103:\n        /* \"#utility.yul\":4131:4205   */\n      swap2\n      pop\n        /* \"#utility.yul\":4214:4307   */\n      tag_104\n        /* \"#utility.yul\":4303:4306   */\n      dup3\n        /* \"#utility.yul\":4214:4307   */\n      tag_56\n      jump\t// in\n    tag_104:\n        /* \"#utility.yul\":4332:4334   */\n      0x20\n        /* \"#utility.yul\":4327:4330   */\n      dup3\n        /* \"#utility.yul\":4323:4335   */\n      add\n        /* \"#utility.yul\":4316:4335   */\n      swap1\n      pop\n        /* \"#utility.yul\":3975:4341   */\n      swap2\n      swap1\n      pop\n      jump\t// out\n        /* \"#utility.yul\":4347:4766   */\n    tag_43:\n        /* \"#utility.yul\":4513:4517   */\n      0x00\n        /* \"#utility.yul\":4551:4553   */\n      0x20\n        /* \"#utility.yul\":4540:4549   */\n      dup3\n        /* \"#utility.yul\":4536:4554   */\n      add\n        /* \"#utility.yul\":4528:4554   */\n      swap1\n      pop\n        /* \"#utility.yul\":4600:4609   */\n      dup2\n        /* \"#utility.yul\":4594:4598   */\n      dup2\n        /* \"#utility.yul\":4590:4610   */\n      sub\n        /* \"#utility.yul\":4586:4587   */\n      0x00\n        /* \"#utility.yul\":4575:4584   */\n      dup4\n        /* \"#utility.yul\":4571:4588   */\n      add\n        /* \"#utility.yul\":4564:4611   */\n      mstore\n        /* \"#utility.yul\":4628:4759   */\n      tag_106\n        /* \"#utility.yul\":4754:4758   */\n      dup2\n        /* \"#utility.yul\":4628:4759   */\n      tag_57\n      jump\t// in\n    tag_106:\n        /* \"#utility.yul\":4620:4759   */\n      swap1\n      pop\n        /* \"#utility.yul\":4347:4766   */\n      swap2\n      swap1\n      pop\n      jump\t// out\n\n    auxdata: 0xa2646970667358221220709c181600c260431595752a8cb3fb9346be1035fc0a70b00e229299ef8c171964736f6c63430008140033\n}\n",
				"bytecode": {
					"linkReferences": {
						"contracts/Search.sol": {
							"Search": [
								{
									"length": 20,
									"start": 272
								}
							]
						}
					},
					"object": "608060405234801561000f575f80fd5b506104a18061001d5f395ff3fe608060405234801561000f575f80fd5b506004361061003f575f3560e01c8063771602f714610043578063959ac48414610073578063e81cf24c1461008f575b5f80fd5b61005d60048036038101906100589190610259565b6100ab565b60405161006a91906102a6565b60405180910390f35b61008d600480360381019061008891906102bf565b6100c7565b005b6100a960048036038101906100a49190610259565b6100ef565b005b5f6100bf82846101c590919063ffffffff16565b905092915050565b5f81908060018154018082558091505060019003905f5260205f20015f909190919091505550565b5f8073__$cc06415bea5d3c3468a7c7f3fa8324705e$__6324fef5c89091856040518363ffffffff1660e01b815260040161012b929190610300565b602060405180830381865af4158015610146573d5f803e3d5ffd5b505050506040513d601f19601f8201168201806040525081019061016a919061033b565b90506101f4810361019f575f82908060018154018082558091505060019003905f5260205f20015f90919091909150556101c0565b815f82815481106101b3576101b2610366565b5b905f5260205f2001819055505b505050565b5f8082846101d391906103c0565b905083811015610218576040517f08c379a000000000000000000000000000000000000000000000000000000000815260040161020f9061044d565b60405180910390fd5b8091505092915050565b5f80fd5b5f819050919050565b61023881610226565b8114610242575f80fd5b50565b5f813590506102538161022f565b92915050565b5f806040838503121561026f5761026e610222565b5b5f61027c85828601610245565b925050602061028d85828601610245565b9150509250929050565b6102a081610226565b82525050565b5f6020820190506102b95f830184610297565b92915050565b5f602082840312156102d4576102d3610222565b5b5f6102e184828501610245565b91505092915050565b8082525050565b6102fa81610226565b82525050565b5f6040820190506103135f8301856102ea565b61032060208301846102f1565b9392505050565b5f815190506103358161022f565b92915050565b5f602082840312156103505761034f610222565b5b5f61035d84828501610327565b91505092915050565b7f4e487b71000000000000000000000000000000000000000000000000000000005f52603260045260245ffd5b7f4e487b71000000000000000000000000000000000000000000000000000000005f52601160045260245ffd5b5f6103ca82610226565b91506103d583610226565b92508282019050808211156103ed576103ec610393565b5b92915050565b5f82825260208201905092915050565b7f536166654d6174683a206164646974696f6e206f766572666c6f7700000000005f82015250565b5f610437601b836103f3565b915061044282610403565b602082019050919050565b5f6020820190508181035f8301526104648161042b565b905091905056fea2646970667358221220709c181600c260431595752a8cb3fb9346be1035fc0a70b00e229299ef8c171964736f6c63430008140033",
					"opcodes": "PUSH1 0x80 PUSH1 0x40 MSTORE CALLVALUE DUP1 ISZERO PUSH2 0xF JUMPI PUSH0 DUP1 REVERT JUMPDEST POP PUSH2 0x4A1 DUP1 PUSH2 0x1D PUSH0 CODECOPY PUSH0 RETURN INVALID PUSH1 0x80 PUSH1 0x40 MSTORE CALLVALUE DUP1 ISZERO PUSH2 0xF JUMPI PUSH0 DUP1 REVERT JUMPDEST POP PUSH1 0x4 CALLDATASIZE LT PUSH2 0x3F JUMPI PUSH0 CALLDATALOAD PUSH1 0xE0 SHR DUP1 PUSH4 0x771602F7 EQ PUSH2 0x43 JUMPI DUP1 PUSH4 0x959AC484 EQ PUSH2 0x73 JUMPI DUP1 PUSH4 0xE81CF24C EQ PUSH2 0x8F JUMPI JUMPDEST PUSH0 DUP1 REVERT JUMPDEST PUSH2 0x5D PUSH1 0x4 DUP1 CALLDATASIZE SUB DUP2 ADD SWAP1 PUSH2 0x58 SWAP2 SWAP1 PUSH2 0x259 JUMP JUMPDEST PUSH2 0xAB JUMP JUMPDEST PUSH1 0x40 MLOAD PUSH2 0x6A SWAP2 SWAP1 PUSH2 0x2A6 JUMP JUMPDEST PUSH1 0x40 MLOAD DUP1 SWAP2 SUB SWAP1 RETURN JUMPDEST PUSH2 0x8D PUSH1 0x4 DUP1 CALLDATASIZE SUB DUP2 ADD SWAP1 PUSH2 0x88 SWAP2 SWAP1 PUSH2 0x2BF JUMP JUMPDEST PUSH2 0xC7 JUMP JUMPDEST STOP JUMPDEST PUSH2 0xA9 PUSH1 0x4 DUP1 CALLDATASIZE SUB DUP2 ADD SWAP1 PUSH2 0xA4 SWAP2 SWAP1 PUSH2 0x259 JUMP JUMPDEST PUSH2 0xEF JUMP JUMPDEST STOP JUMPDEST PUSH0 PUSH2 0xBF DUP3 DUP5 PUSH2 0x1C5 SWAP1 SWAP2 SWAP1 PUSH4 0xFFFFFFFF AND JUMP JUMPDEST SWAP1 POP SWAP3 SWAP2 POP POP JUMP JUMPDEST PUSH0 DUP2 SWAP1 DUP1 PUSH1 0x1 DUP2 SLOAD ADD DUP1 DUP3 SSTORE DUP1 SWAP2 POP POP PUSH1 0x1 SWAP1 SUB SWAP1 PUSH0 MSTORE PUSH1 0x20 PUSH0 KECCAK256 ADD PUSH0 SWAP1 SWAP2 SWAP1 SWAP2 SWAP1 SWAP2 POP SSTORE POP JUMP JUMPDEST PUSH0 DUP1 PUSH20 0x0 PUSH4 0x24FEF5C8 SWAP1 SWAP2 DUP6 PUSH1 0x40 MLOAD DUP4 PUSH4 0xFFFFFFFF AND PUSH1 0xE0 SHL DUP2 MSTORE PUSH1 0x4 ADD PUSH2 0x12B SWAP3 SWAP2 SWAP1 PUSH2 0x300 JUMP JUMPDEST PUSH1 0x20 PUSH1 0x40 MLOAD DUP1 DUP4 SUB DUP2 DUP7 GAS DELEGATECALL ISZERO DUP1 ISZERO PUSH2 0x146 JUMPI RETURNDATASIZE PUSH0 DUP1 RETURNDATACOPY RETURNDATASIZE PUSH0 REVERT JUMPDEST POP POP POP POP PUSH1 0x40 MLOAD RETURNDATASIZE PUSH1 0x1F NOT PUSH1 0x1F DUP3 ADD AND DUP3 ADD DUP1 PUSH1 0x40 MSTORE POP DUP2 ADD SWAP1 PUSH2 0x16A SWAP2 SWAP1 PUSH2 0x33B JUMP JUMPDEST SWAP1 POP PUSH2 0x1F4 DUP2 SUB PUSH2 0x19F JUMPI PUSH0 DUP3 SWAP1 DUP1 PUSH1 0x1 DUP2 SLOAD ADD DUP1 DUP3 SSTORE DUP1 SWAP2 POP POP PUSH1 0x1 SWAP1 SUB SWAP1 PUSH0 MSTORE PUSH1 0x20 PUSH0 KECCAK256 ADD PUSH0 SWAP1 SWAP2 SWAP1 SWAP2 SWAP1 SWAP2 POP SSTORE PUSH2 0x1C0 JUMP JUMPDEST DUP2 PUSH0 DUP3 DUP2 SLOAD DUP2 LT PUSH2 0x1B3 JUMPI PUSH2 0x1B2 PUSH2 0x366 JUMP JUMPDEST JUMPDEST SWAP1 PUSH0 MSTORE PUSH1 0x20 PUSH0 KECCAK256 ADD DUP2 SWAP1 SSTORE POP JUMPDEST POP POP POP JUMP JUMPDEST PUSH0 DUP1 DUP3 DUP5 PUSH2 0x1D3 SWAP2 SWAP1 PUSH2 0x3C0 JUMP JUMPDEST SWAP1 POP DUP4 DUP2 LT ISZERO PUSH2 0x218 JUMPI PUSH1 0x40 MLOAD PUSH32 0x8C379A000000000000000000000000000000000000000000000000000000000 DUP2 MSTORE PUSH1 0x4 ADD PUSH2 0x20F SWAP1 PUSH2 0x44D JUMP JUMPDEST PUSH1 0x40 MLOAD DUP1 SWAP2 SUB SWAP1 REVERT JUMPDEST DUP1 SWAP2 POP POP SWAP3 SWAP2 POP POP JUMP JUMPDEST PUSH0 DUP1 REVERT JUMPDEST PUSH0 DUP2 SWAP1 POP SWAP2 SWAP1 POP JUMP JUMPDEST PUSH2 0x238 DUP2 PUSH2 0x226 JUMP JUMPDEST DUP2 EQ PUSH2 0x242 JUMPI PUSH0 DUP1 REVERT JUMPDEST POP JUMP JUMPDEST PUSH0 DUP2 CALLDATALOAD SWAP1 POP PUSH2 0x253 DUP2 PUSH2 0x22F JUMP JUMPDEST SWAP3 SWAP2 POP POP JUMP JUMPDEST PUSH0 DUP1 PUSH1 0x40 DUP4 DUP6 SUB SLT ISZERO PUSH2 0x26F JUMPI PUSH2 0x26E PUSH2 0x222 JUMP JUMPDEST JUMPDEST PUSH0 PUSH2 0x27C DUP6 DUP3 DUP7 ADD PUSH2 0x245 JUMP JUMPDEST SWAP3 POP POP PUSH1 0x20 PUSH2 0x28D DUP6 DUP3 DUP7 ADD PUSH2 0x245 JUMP JUMPDEST SWAP2 POP POP SWAP3 POP SWAP3 SWAP1 POP JUMP JUMPDEST PUSH2 0x2A0 DUP2 PUSH2 0x226 JUMP JUMPDEST DUP3 MSTORE POP POP JUMP JUMPDEST PUSH0 PUSH1 0x20 DUP3 ADD SWAP1 POP PUSH2 0x2B9 PUSH0 DUP4 ADD DUP5 PUSH2 0x297 JUMP JUMPDEST SWAP3 SWAP2 POP POP JUMP JUMPDEST PUSH0 PUSH1 0x20 DUP3 DUP5 SUB SLT ISZERO PUSH2 0x2D4 JUMPI PUSH2 0x2D3 PUSH2 0x222 JUMP JUMPDEST JUMPDEST PUSH0 PUSH2 0x2E1 DUP5 DUP3 DUP6 ADD PUSH2 0x245 JUMP JUMPDEST SWAP2 POP POP SWAP3 SWAP2 POP POP JUMP JUMPDEST DUP1 DUP3 MSTORE POP POP JUMP JUMPDEST PUSH2 0x2FA DUP2 PUSH2 0x226 JUMP JUMPDEST DUP3 MSTORE POP POP JUMP JUMPDEST PUSH0 PUSH1 0x40 DUP3 ADD SWAP1 POP PUSH2 0x313 PUSH0 DUP4 ADD DUP6 PUSH2 0x2EA JUMP JUMPDEST PUSH2 0x320 PUSH1 0x20 DUP4 ADD DUP5 PUSH2 0x2F1 JUMP JUMPDEST SWAP4 SWAP3 POP POP POP JUMP JUMPDEST PUSH0 DUP2 MLOAD SWAP1 POP PUSH2 0x335 DUP2 PUSH2 0x22F JUMP JUMPDEST SWAP3 SWAP2 POP POP JUMP JUMPDEST PUSH0 PUSH1 0x20 DUP3 DUP5 SUB SLT ISZERO PUSH2 0x350 JUMPI PUSH2 0x34F PUSH2 0x222 JUMP JUMPDEST JUMPDEST PUSH0 PUSH2 0x35D DUP5 DUP3 DUP6 ADD PUSH2 0x327 JUMP JUMPDEST SWAP2 POP POP SWAP3 SWAP2 POP POP JUMP JUMPDEST PUSH32 0x4E487B7100000000000000000000000000000000000000000000000000000000 PUSH0 MSTORE PUSH1 0x32 PUSH1 0x4 MSTORE PUSH1 0x24 PUSH0 REVERT JUMPDEST PUSH32 0x4E487B7100000000000000000000000000000000000000000000000000000000 PUSH0 MSTORE PUSH1 0x11 PUSH1 0x4 MSTORE PUSH1 0x24 PUSH0 REVERT JUMPDEST PUSH0 PUSH2 0x3CA DUP3 PUSH2 0x226 JUMP JUMPDEST SWAP2 POP PUSH2 0x3D5 DUP4 PUSH2 0x226 JUMP JUMPDEST SWAP3 POP DUP3 DUP3 ADD SWAP1 POP DUP1 DUP3 GT ISZERO PUSH2 0x3ED JUMPI PUSH2 0x3EC PUSH2 0x393 JUMP JUMPDEST JUMPDEST SWAP3 SWAP2 POP POP JUMP JUMPDEST PUSH0 DUP3 DUP3 MSTORE PUSH1 0x20 DUP3 ADD SWAP1 POP SWAP3 SWAP2 POP POP JUMP JUMPDEST PUSH32 0x536166654D6174683A206164646974696F6E206F766572666C6F770000000000 PUSH0 DUP3 ADD MSTORE POP JUMP JUMPDEST PUSH0 PUSH2 0x437 PUSH1 0x1B DUP4 PUSH2 0x3F3 JUMP JUMPDEST SWAP2 POP PUSH2 0x442 DUP3 PUSH2 0x403 JUMP JUMPDEST PUSH1 0x20 DUP3 ADD SWAP1 POP SWAP2 SWAP1 POP JUMP JUMPDEST PUSH0 PUSH1 0x20 DUP3 ADD SWAP1 POP DUP2 DUP2 SUB PUSH0 DUP4 ADD MSTORE PUSH2 0x464 DUP2 PUSH2 0x42B JUMP JUMPDEST SWAP1 POP SWAP2 SWAP1 POP JUMP INVALID LOG2 PUSH5 0x6970667358 0x22 SLT KECCAK256 PUSH17 0x9C181600C260431595752A8CB3FB9346BE LT CALLDATALOAD 0xFC EXP PUSH17 0xB00E229299EF8C171964736F6C63430008 EQ STOP CALLER "
				},
				"gasEstimates": {
					"creation": {
						"codeDepositCost": "237000",
						"executionCost": "279",
						"totalCost": "237279"
					},
					"external": {
						"add(uint256,uint256)": "infinite",
						"push(uint256)": "46820",
						"replace(uint256,uint256)": "infinite"
					}
				},
				"methodIdentifiers": {
					"add(uint256,uint256)": "771602f7",
					"push(uint256)": "959ac484",
					"replace(uint256,uint256)": "e81cf24c"
				}
			},
			"storageLayout": {
				"storage": [
					{
						"astId": 13,
						"contract": "contracts/Award.sol:addTest2",
						"label": "data",
						"offset": 0,
						"slot": "0",
						"type": "t_array(t_uint256)dyn_storage"
					}
				],
				"types": {
					"t_array(t_uint256)dyn_storage": {
						"base": "t_uint256",
						"encoding": "dynamic_array",
						"label": "uint256[]",
						"numberOfBytes": "32"
					},
					"t_uint256": {
						"encoding": "inplace",
						"label": "uint256",
						"numberOfBytes": "32"
					}
				}
			},
			"userdoc": {
				"kind": "user",
				"methods": {},
				"version": 1
			}
		}
	}
}