{
	"contracts/Day03.sol": {
		"TipJob": {
			"abi": [
				{
					"inputs": [],
					"stateMutability": "nonpayable",
					"type": "constructor"
				},
				{
					"inputs": [],
					"name": "getBalance",
					"outputs": [
						{
							"internalType": "uint256",
							"name": "",
							"type": "uint256"
						}
					],
					"stateMutability": "view",
					"type": "function"
				},
				{
					"inputs": [],
					"name": "owner",
					"outputs": [
						{
							"internalType": "address",
							"name": "",
							"type": "address"
						}
					],
					"stateMutability": "view",
					"type": "function"
				},
				{
					"inputs": [],
					"name": "tip",
					"outputs": [],
					"stateMutability": "payable",
					"type": "function"
				},
				{
					"inputs": [],
					"name": "withdraw",
					"outputs": [],
					"stateMutability": "nonpayable",
					"type": "function"
				}
			],
			"devdoc": {
				"kind": "dev",
				"methods": {},
				"version": 1
			},
			"evm": {
				"assembly": "    /* \"contracts/Day03.sol\":58:692  contract TipJob {... */\n  mstore(0x40, 0x80)\n    /* \"contracts/Day03.sol\":109:158  constructor() {... */\n  callvalue\n  dup1\n  iszero\n  tag_1\n  jumpi\n  0x00\n  dup1\n  revert\ntag_1:\n  pop\n    /* \"contracts/Day03.sol\":141:151  msg.sender */\n  caller\n    /* \"contracts/Day03.sol\":133:138  owner */\n  0x00\n  dup1\n    /* \"contracts/Day03.sol\":133:151  owner = msg.sender */\n  0x0100\n  exp\n  dup2\n  sload\n  dup2\n  0xffffffffffffffffffffffffffffffffffffffff\n  mul\n  not\n  and\n  swap1\n  dup4\n  0xffffffffffffffffffffffffffffffffffffffff\n  and\n  mul\n  or\n  swap1\n  sstore\n  pop\n    /* \"contracts/Day03.sol\":58:692  contract TipJob {... */\n  dataSize(sub_0)\n  dup1\n  dataOffset(sub_0)\n  0x00\n  codecopy\n  0x00\n  return\nstop\n\nsub_0: assembly {\n        /* \"contracts/Day03.sol\":58:692  contract TipJob {... */\n      mstore(0x40, 0x80)\n      jumpi(tag_1, lt(calldatasize, 0x04))\n      shr(0xe0, calldataload(0x00))\n      dup1\n      0x12065fe0\n      eq\n      tag_2\n      jumpi\n      dup1\n      0x2755cd2d\n      eq\n      tag_3\n      jumpi\n      dup1\n      0x3ccfd60b\n      eq\n      tag_4\n      jumpi\n      dup1\n      0x8da5cb5b\n      eq\n      tag_5\n      jumpi\n    tag_1:\n      0x00\n      dup1\n      revert\n        /* \"contracts/Day03.sol\":592:689  function getBalance() public view returns (uint256) {... */\n    tag_2:\n      callvalue\n      dup1\n      iszero\n      tag_6\n      jumpi\n      0x00\n      dup1\n      revert\n    tag_6:\n      pop\n      tag_7\n      tag_8\n      jump\t// in\n    tag_7:\n      mload(0x40)\n      tag_9\n      swap2\n      swap1\n      tag_10\n      jump\t// in\n    tag_9:\n      mload(0x40)\n      dup1\n      swap2\n      sub\n      swap1\n      return\n        /* \"contracts/Day03.sol\":262:379  function tip() public payable  {... */\n    tag_3:\n      tag_11\n      tag_12\n      jump\t// in\n    tag_11:\n      stop\n        /* \"contracts/Day03.sol\":385:585  function withdraw() public {... */\n    tag_4:\n      callvalue\n      dup1\n      iszero\n      tag_13\n      jumpi\n      0x00\n      dup1\n      revert\n    tag_13:\n      pop\n      tag_14\n      tag_15\n      jump\t// in\n    tag_14:\n      stop\n        /* \"contracts/Day03.sol\":81:101  address public owner */\n    tag_5:\n      callvalue\n      dup1\n      iszero\n      tag_16\n      jumpi\n      0x00\n      dup1\n      revert\n    tag_16:\n      pop\n      tag_17\n      tag_18\n      jump\t// in\n    tag_17:\n      mload(0x40)\n      tag_19\n      swap2\n      swap1\n      tag_20\n      jump\t// in\n    tag_19:\n      mload(0x40)\n      dup1\n      swap2\n      sub\n      swap1\n      return\n        /* \"contracts/Day03.sol\":592:689  function getBalance() public view returns (uint256) {... */\n    tag_8:\n        /* \"contracts/Day03.sol\":635:642  uint256 */\n      0x00\n        /* \"contracts/Day03.sol\":661:682  address(this).balance */\n      selfbalance\n        /* \"contracts/Day03.sol\":654:682  return address(this).balance */\n      swap1\n      pop\n        /* \"contracts/Day03.sol\":592:689  function getBalance() public view returns (uint256) {... */\n      swap1\n      jump\t// out\n        /* \"contracts/Day03.sol\":262:379  function tip() public payable  {... */\n    tag_12:\n        /* \"contracts/Day03.sol\":323:324  0 */\n      0x00\n        /* \"contracts/Day03.sol\":311:320  msg.value */\n      callvalue\n        /* \"contracts/Day03.sol\":311:324  msg.value > 0 */\n      gt\n        /* \"contracts/Day03.sol\":303:372  require(msg.value > 0 , \"you should send a tip to use this function\") */\n      tag_23\n      jumpi\n      mload(0x40)\n      0x08c379a000000000000000000000000000000000000000000000000000000000\n      dup2\n      mstore\n      0x04\n      add\n      tag_24\n      swap1\n      tag_25\n      jump\t// in\n    tag_24:\n      mload(0x40)\n      dup1\n      swap2\n      sub\n      swap1\n      revert\n    tag_23:\n        /* \"contracts/Day03.sol\":262:379  function tip() public payable  {... */\n      jump\t// out\n        /* \"contracts/Day03.sol\":385:585  function withdraw() public {... */\n    tag_15:\n        /* \"contracts/Day03.sol\":422:433  uint256 con */\n      0x00\n        /* \"contracts/Day03.sol\":437:458  address(this).balance */\n      selfbalance\n        /* \"contracts/Day03.sol\":422:458  uint256 con =  address(this).balance */\n      swap1\n      pop\n        /* \"contracts/Day03.sol\":482:483  0 */\n      0x00\n        /* \"contracts/Day03.sol\":476:479  con */\n      dup2\n        /* \"contracts/Day03.sol\":476:483  con > 0 */\n      gt\n        /* \"contracts/Day03.sol\":468:540  require(con > 0 , \"withdraw you should send a tip to use this function\") */\n      tag_27\n      jumpi\n      mload(0x40)\n      0x08c379a000000000000000000000000000000000000000000000000000000000\n      dup2\n      mstore\n      0x04\n      add\n      tag_28\n      swap1\n      tag_29\n      jump\t// in\n    tag_28:\n      mload(0x40)\n      dup1\n      swap2\n      sub\n      swap1\n      revert\n    tag_27:\n        /* \"contracts/Day03.sol\":558:563  owner */\n      0x00\n      dup1\n      sload\n      swap1\n      0x0100\n      exp\n      swap1\n      div\n      0xffffffffffffffffffffffffffffffffffffffff\n      and\n        /* \"contracts/Day03.sol\":550:573  payable(owner).transfer */\n      0xffffffffffffffffffffffffffffffffffffffff\n      and\n        /* \"contracts/Day03.sol\":550:578  payable(owner).transfer(con) */\n      0x08fc\n        /* \"contracts/Day03.sol\":574:577  con */\n      dup3\n        /* \"contracts/Day03.sol\":550:578  payable(owner).transfer(con) */\n      swap1\n      dup2\n      iszero\n      mul\n      swap1\n      mload(0x40)\n      0x00\n      mload(0x40)\n      dup1\n      dup4\n      sub\n      dup2\n      dup6\n      dup9\n      dup9\n      call\n      swap4\n      pop\n      pop\n      pop\n      pop\n      iszero\n      dup1\n      iszero\n      tag_31\n      jumpi\n      returndatasize\n      0x00\n      dup1\n      returndatacopy\n      revert(0x00, returndatasize)\n    tag_31:\n      pop\n        /* \"contracts/Day03.sol\":412:585  {... */\n      pop\n        /* \"contracts/Day03.sol\":385:585  function withdraw() public {... */\n      jump\t// out\n        /* \"contracts/Day03.sol\":81:101  address public owner */\n    tag_18:\n      0x00\n      dup1\n      sload\n      swap1\n      0x0100\n      exp\n      swap1\n      div\n      0xffffffffffffffffffffffffffffffffffffffff\n      and\n      dup2\n      jump\t// out\n        /* \"#utility.yul\":7:84   */\n    tag_32:\n        /* \"#utility.yul\":44:51   */\n      0x00\n        /* \"#utility.yul\":73:78   */\n      dup2\n        /* \"#utility.yul\":62:78   */\n      swap1\n      pop\n        /* \"#utility.yul\":7:84   */\n      swap2\n      swap1\n      pop\n      jump\t// out\n        /* \"#utility.yul\":90:208   */\n    tag_33:\n        /* \"#utility.yul\":177:201   */\n      tag_45\n        /* \"#utility.yul\":195:200   */\n      dup2\n        /* \"#utility.yul\":177:201   */\n      tag_32\n      jump\t// in\n    tag_45:\n        /* \"#utility.yul\":172:175   */\n      dup3\n        /* \"#utility.yul\":165:202   */\n      mstore\n        /* \"#utility.yul\":90:208   */\n      pop\n      pop\n      jump\t// out\n        /* \"#utility.yul\":214:436   */\n    tag_10:\n        /* \"#utility.yul\":307:311   */\n      0x00\n        /* \"#utility.yul\":345:347   */\n      0x20\n        /* \"#utility.yul\":334:343   */\n      dup3\n        /* \"#utility.yul\":330:348   */\n      add\n        /* \"#utility.yul\":322:348   */\n      swap1\n      pop\n        /* \"#utility.yul\":358:429   */\n      tag_47\n        /* \"#utility.yul\":426:427   */\n      0x00\n        /* \"#utility.yul\":415:424   */\n      dup4\n        /* \"#utility.yul\":411:428   */\n      add\n        /* \"#utility.yul\":402:408   */\n      dup5\n        /* \"#utility.yul\":358:429   */\n      tag_33\n      jump\t// in\n    tag_47:\n        /* \"#utility.yul\":214:436   */\n      swap3\n      swap2\n      pop\n      pop\n      jump\t// out\n        /* \"#utility.yul\":442:568   */\n    tag_34:\n        /* \"#utility.yul\":479:486   */\n      0x00\n        /* \"#utility.yul\":519:561   */\n      0xffffffffffffffffffffffffffffffffffffffff\n        /* \"#utility.yul\":512:517   */\n      dup3\n        /* \"#utility.yul\":508:562   */\n      and\n        /* \"#utility.yul\":497:562   */\n      swap1\n      pop\n        /* \"#utility.yul\":442:568   */\n      swap2\n      swap1\n      pop\n      jump\t// out\n        /* \"#utility.yul\":574:670   */\n    tag_35:\n        /* \"#utility.yul\":611:618   */\n      0x00\n        /* \"#utility.yul\":640:664   */\n      tag_50\n        /* \"#utility.yul\":658:663   */\n      dup3\n        /* \"#utility.yul\":640:664   */\n      tag_34\n      jump\t// in\n    tag_50:\n        /* \"#utility.yul\":629:664   */\n      swap1\n      pop\n        /* \"#utility.yul\":574:670   */\n      swap2\n      swap1\n      pop\n      jump\t// out\n        /* \"#utility.yul\":676:794   */\n    tag_36:\n        /* \"#utility.yul\":763:787   */\n      tag_52\n        /* \"#utility.yul\":781:786   */\n      dup2\n        /* \"#utility.yul\":763:787   */\n      tag_35\n      jump\t// in\n    tag_52:\n        /* \"#utility.yul\":758:761   */\n      dup3\n        /* \"#utility.yul\":751:788   */\n      mstore\n        /* \"#utility.yul\":676:794   */\n      pop\n      pop\n      jump\t// out\n        /* \"#utility.yul\":800:1022   */\n    tag_20:\n        /* \"#utility.yul\":893:897   */\n      0x00\n        /* \"#utility.yul\":931:933   */\n      0x20\n        /* \"#utility.yul\":920:929   */\n      dup3\n        /* \"#utility.yul\":916:934   */\n      add\n        /* \"#utility.yul\":908:934   */\n      swap1\n      pop\n        /* \"#utility.yul\":944:1015   */\n      tag_54\n        /* \"#utility.yul\":1012:1013   */\n      0x00\n        /* \"#utility.yul\":1001:1010   */\n      dup4\n        /* \"#utility.yul\":997:1014   */\n      add\n        /* \"#utility.yul\":988:994   */\n      dup5\n        /* \"#utility.yul\":944:1015   */\n      tag_36\n      jump\t// in\n    tag_54:\n        /* \"#utility.yul\":800:1022   */\n      swap3\n      swap2\n      pop\n      pop\n      jump\t// out\n        /* \"#utility.yul\":1028:1197   */\n    tag_37:\n        /* \"#utility.yul\":1112:1123   */\n      0x00\n        /* \"#utility.yul\":1146:1152   */\n      dup3\n        /* \"#utility.yul\":1141:1144   */\n      dup3\n        /* \"#utility.yul\":1134:1153   */\n      mstore\n        /* \"#utility.yul\":1186:1190   */\n      0x20\n        /* \"#utility.yul\":1181:1184   */\n      dup3\n        /* \"#utility.yul\":1177:1191   */\n      add\n        /* \"#utility.yul\":1162:1191   */\n      swap1\n      pop\n        /* \"#utility.yul\":1028:1197   */\n      swap3\n      swap2\n      pop\n      pop\n      jump\t// out\n        /* \"#utility.yul\":1203:1432   */\n    tag_38:\n        /* \"#utility.yul\":1343:1377   */\n      0x796f752073686f756c642073656e6420612074697020746f2075736520746869\n        /* \"#utility.yul\":1339:1340   */\n      0x00\n        /* \"#utility.yul\":1331:1337   */\n      dup3\n        /* \"#utility.yul\":1327:1341   */\n      add\n        /* \"#utility.yul\":1320:1378   */\n      mstore\n        /* \"#utility.yul\":1412:1424   */\n      0x732066756e6374696f6e00000000000000000000000000000000000000000000\n        /* \"#utility.yul\":1407:1409   */\n      0x20\n        /* \"#utility.yul\":1399:1405   */\n      dup3\n        /* \"#utility.yul\":1395:1410   */\n      add\n        /* \"#utility.yul\":1388:1425   */\n      mstore\n        /* \"#utility.yul\":1203:1432   */\n      pop\n      jump\t// out\n        /* \"#utility.yul\":1438:1804   */\n    tag_39:\n        /* \"#utility.yul\":1580:1583   */\n      0x00\n        /* \"#utility.yul\":1601:1668   */\n      tag_58\n        /* \"#utility.yul\":1665:1667   */\n      0x2a\n        /* \"#utility.yul\":1660:1663   */\n      dup4\n        /* \"#utility.yul\":1601:1668   */\n      tag_37\n      jump\t// in\n    tag_58:\n        /* \"#utility.yul\":1594:1668   */\n      swap2\n      pop\n        /* \"#utility.yul\":1677:1770   */\n      tag_59\n        /* \"#utility.yul\":1766:1769   */\n      dup3\n        /* \"#utility.yul\":1677:1770   */\n      tag_38\n      jump\t// in\n    tag_59:\n        /* \"#utility.yul\":1795:1797   */\n      0x40\n        /* \"#utility.yul\":1790:1793   */\n      dup3\n        /* \"#utility.yul\":1786:1798   */\n      add\n        /* \"#utility.yul\":1779:1798   */\n      swap1\n      pop\n        /* \"#utility.yul\":1438:1804   */\n      swap2\n      swap1\n      pop\n      jump\t// out\n        /* \"#utility.yul\":1810:2229   */\n    tag_25:\n        /* \"#utility.yul\":1976:1980   */\n      0x00\n        /* \"#utility.yul\":2014:2016   */\n      0x20\n        /* \"#utility.yul\":2003:2012   */\n      dup3\n        /* \"#utility.yul\":1999:2017   */\n      add\n        /* \"#utility.yul\":1991:2017   */\n      swap1\n      pop\n        /* \"#utility.yul\":2063:2072   */\n      dup2\n        /* \"#utility.yul\":2057:2061   */\n      dup2\n        /* \"#utility.yul\":2053:2073   */\n      sub\n        /* \"#utility.yul\":2049:2050   */\n      0x00\n        /* \"#utility.yul\":2038:2047   */\n      dup4\n        /* \"#utility.yul\":2034:2051   */\n      add\n        /* \"#utility.yul\":2027:2074   */\n      mstore\n        /* \"#utility.yul\":2091:2222   */\n      tag_61\n        /* \"#utility.yul\":2217:2221   */\n      dup2\n        /* \"#utility.yul\":2091:2222   */\n      tag_39\n      jump\t// in\n    tag_61:\n        /* \"#utility.yul\":2083:2222   */\n      swap1\n      pop\n        /* \"#utility.yul\":1810:2229   */\n      swap2\n      swap1\n      pop\n      jump\t// out\n        /* \"#utility.yul\":2235:2473   */\n    tag_40:\n        /* \"#utility.yul\":2375:2409   */\n      0x776974686472617720796f752073686f756c642073656e642061207469702074\n        /* \"#utility.yul\":2371:2372   */\n      0x00\n        /* \"#utility.yul\":2363:2369   */\n      dup3\n        /* \"#utility.yul\":2359:2373   */\n      add\n        /* \"#utility.yul\":2352:2410   */\n      mstore\n        /* \"#utility.yul\":2444:2465   */\n      0x6f2075736520746869732066756e6374696f6e00000000000000000000000000\n        /* \"#utility.yul\":2439:2441   */\n      0x20\n        /* \"#utility.yul\":2431:2437   */\n      dup3\n        /* \"#utility.yul\":2427:2442   */\n      add\n        /* \"#utility.yul\":2420:2466   */\n      mstore\n        /* \"#utility.yul\":2235:2473   */\n      pop\n      jump\t// out\n        /* \"#utility.yul\":2479:2845   */\n    tag_41:\n        /* \"#utility.yul\":2621:2624   */\n      0x00\n        /* \"#utility.yul\":2642:2709   */\n      tag_64\n        /* \"#utility.yul\":2706:2708   */\n      0x33\n        /* \"#utility.yul\":2701:2704   */\n      dup4\n        /* \"#utility.yul\":2642:2709   */\n      tag_37\n      jump\t// in\n    tag_64:\n        /* \"#utility.yul\":2635:2709   */\n      swap2\n      pop\n        /* \"#utility.yul\":2718:2811   */\n      tag_65\n        /* \"#utility.yul\":2807:2810   */\n      dup3\n        /* \"#utility.yul\":2718:2811   */\n      tag_40\n      jump\t// in\n    tag_65:\n        /* \"#utility.yul\":2836:2838   */\n      0x40\n        /* \"#utility.yul\":2831:2834   */\n      dup3\n        /* \"#utility.yul\":2827:2839   */\n      add\n        /* \"#utility.yul\":2820:2839   */\n      swap1\n      pop\n        /* \"#utility.yul\":2479:2845   */\n      swap2\n      swap1\n      pop\n      jump\t// out\n        /* \"#utility.yul\":2851:3270   */\n    tag_29:\n        /* \"#utility.yul\":3017:3021   */\n      0x00\n        /* \"#utility.yul\":3055:3057   */\n      0x20\n        /* \"#utility.yul\":3044:3053   */\n      dup3\n        /* \"#utility.yul\":3040:3058   */\n      add\n        /* \"#utility.yul\":3032:3058   */\n      swap1\n      pop\n        /* \"#utility.yul\":3104:3113   */\n      dup2\n        /* \"#utility.yul\":3098:3102   */\n      dup2\n        /* \"#utility.yul\":3094:3114   */\n      sub\n        /* \"#utility.yul\":3090:3091   */\n      0x00\n        /* \"#utility.yul\":3079:3088   */\n      dup4\n        /* \"#utility.yul\":3075:3092   */\n      add\n        /* \"#utility.yul\":3068:3115   */\n      mstore\n        /* \"#utility.yul\":3132:3263   */\n      tag_67\n        /* \"#utility.yul\":3258:3262   */\n      dup2\n        /* \"#utility.yul\":3132:3263   */\n      tag_41\n      jump\t// in\n    tag_67:\n        /* \"#utility.yul\":3124:3263   */\n      swap1\n      pop\n        /* \"#utility.yul\":2851:3270   */\n      swap2\n      swap1\n      pop\n      jump\t// out\n\n    auxdata: 0xa264697066735822122067e2dfc7f7bbf14722c6b8ab1f703b715e46264a88c2bd57c05b66d626bb552f64736f6c63430008140033\n}\n",
				"bytecode": {
					"linkReferences": {},
					"object": "608060405234801561000f575f80fd5b50335f806101000a81548173ffffffffffffffffffffffffffffffffffffffff021916908373ffffffffffffffffffffffffffffffffffffffff1602179055506103bb8061005c5f395ff3fe60806040526004361061003e575f3560e01c806312065fe0146100425780632755cd2d1461006c5780633ccfd60b146100765780638da5cb5b1461008c575b5f80fd5b34801561004d575f80fd5b506100566100b6565b60405161006391906101e8565b60405180910390f35b6100746100bd565b005b348015610081575f80fd5b5061008a610101565b005b348015610097575f80fd5b506100a06101ad565b6040516100ad9190610240565b60405180910390f35b5f47905090565b5f34116100ff576040517f08c379a00000000000000000000000000000000000000000000000000000000081526004016100f6906102d9565b60405180910390fd5b565b5f4790505f8111610147576040517f08c379a000000000000000000000000000000000000000000000000000000000815260040161013e90610367565b60405180910390fd5b5f8054906101000a900473ffffffffffffffffffffffffffffffffffffffff1673ffffffffffffffffffffffffffffffffffffffff166108fc8290811502906040515f60405180830381858888f193505050501580156101a9573d5f803e3d5ffd5b5050565b5f8054906101000a900473ffffffffffffffffffffffffffffffffffffffff1681565b5f819050919050565b6101e2816101d0565b82525050565b5f6020820190506101fb5f8301846101d9565b92915050565b5f73ffffffffffffffffffffffffffffffffffffffff82169050919050565b5f61022a82610201565b9050919050565b61023a81610220565b82525050565b5f6020820190506102535f830184610231565b92915050565b5f82825260208201905092915050565b7f796f752073686f756c642073656e6420612074697020746f20757365207468695f8201527f732066756e6374696f6e00000000000000000000000000000000000000000000602082015250565b5f6102c3602a83610259565b91506102ce82610269565b604082019050919050565b5f6020820190508181035f8301526102f0816102b7565b9050919050565b7f776974686472617720796f752073686f756c642073656e6420612074697020745f8201527f6f2075736520746869732066756e6374696f6e00000000000000000000000000602082015250565b5f610351603383610259565b915061035c826102f7565b604082019050919050565b5f6020820190508181035f83015261037e81610345565b905091905056fea264697066735822122067e2dfc7f7bbf14722c6b8ab1f703b715e46264a88c2bd57c05b66d626bb552f64736f6c63430008140033",
					"opcodes": "PUSH1 0x80 PUSH1 0x40 MSTORE CALLVALUE DUP1 ISZERO PUSH2 0xF JUMPI PUSH0 DUP1 REVERT JUMPDEST POP CALLER PUSH0 DUP1 PUSH2 0x100 EXP DUP2 SLOAD DUP2 PUSH20 0xFFFFFFFFFFFFFFFFFFFFFFFFFFFFFFFFFFFFFFFF MUL NOT AND SWAP1 DUP4 PUSH20 0xFFFFFFFFFFFFFFFFFFFFFFFFFFFFFFFFFFFFFFFF AND MUL OR SWAP1 SSTORE POP PUSH2 0x3BB DUP1 PUSH2 0x5C PUSH0 CODECOPY PUSH0 RETURN INVALID PUSH1 0x80 PUSH1 0x40 MSTORE PUSH1 0x4 CALLDATASIZE LT PUSH2 0x3E JUMPI PUSH0 CALLDATALOAD PUSH1 0xE0 SHR DUP1 PUSH4 0x12065FE0 EQ PUSH2 0x42 JUMPI DUP1 PUSH4 0x2755CD2D EQ PUSH2 0x6C JUMPI DUP1 PUSH4 0x3CCFD60B EQ PUSH2 0x76 JUMPI DUP1 PUSH4 0x8DA5CB5B EQ PUSH2 0x8C JUMPI JUMPDEST PUSH0 DUP1 REVERT JUMPDEST CALLVALUE DUP1 ISZERO PUSH2 0x4D JUMPI PUSH0 DUP1 REVERT JUMPDEST POP PUSH2 0x56 PUSH2 0xB6 JUMP JUMPDEST PUSH1 0x40 MLOAD PUSH2 0x63 SWAP2 SWAP1 PUSH2 0x1E8 JUMP JUMPDEST PUSH1 0x40 MLOAD DUP1 SWAP2 SUB SWAP1 RETURN JUMPDEST PUSH2 0x74 PUSH2 0xBD JUMP JUMPDEST STOP JUMPDEST CALLVALUE DUP1 ISZERO PUSH2 0x81 JUMPI PUSH0 DUP1 REVERT JUMPDEST POP PUSH2 0x8A PUSH2 0x101 JUMP JUMPDEST STOP JUMPDEST CALLVALUE DUP1 ISZERO PUSH2 0x97 JUMPI PUSH0 DUP1 REVERT JUMPDEST POP PUSH2 0xA0 PUSH2 0x1AD JUMP JUMPDEST PUSH1 0x40 MLOAD PUSH2 0xAD SWAP2 SWAP1 PUSH2 0x240 JUMP JUMPDEST PUSH1 0x40 MLOAD DUP1 SWAP2 SUB SWAP1 RETURN JUMPDEST PUSH0 SELFBALANCE SWAP1 POP SWAP1 JUMP JUMPDEST PUSH0 CALLVALUE GT PUSH2 0xFF JUMPI PUSH1 0x40 MLOAD PUSH32 0x8C379A000000000000000000000000000000000000000000000000000000000 DUP2 MSTORE PUSH1 0x4 ADD PUSH2 0xF6 SWAP1 PUSH2 0x2D9 JUMP JUMPDEST PUSH1 0x40 MLOAD DUP1 SWAP2 SUB SWAP1 REVERT JUMPDEST JUMP JUMPDEST PUSH0 SELFBALANCE SWAP1 POP PUSH0 DUP2 GT PUSH2 0x147 JUMPI PUSH1 0x40 MLOAD PUSH32 0x8C379A000000000000000000000000000000000000000000000000000000000 DUP2 MSTORE PUSH1 0x4 ADD PUSH2 0x13E SWAP1 PUSH2 0x367 JUMP JUMPDEST PUSH1 0x40 MLOAD DUP1 SWAP2 SUB SWAP1 REVERT JUMPDEST PUSH0 DUP1 SLOAD SWAP1 PUSH2 0x100 EXP SWAP1 DIV PUSH20 0xFFFFFFFFFFFFFFFFFFFFFFFFFFFFFFFFFFFFFFFF AND PUSH20 0xFFFFFFFFFFFFFFFFFFFFFFFFFFFFFFFFFFFFFFFF AND PUSH2 0x8FC DUP3 SWAP1 DUP2 ISZERO MUL SWAP1 PUSH1 0x40 MLOAD PUSH0 PUSH1 0x40 MLOAD DUP1 DUP4 SUB DUP2 DUP6 DUP9 DUP9 CALL SWAP4 POP POP POP POP ISZERO DUP1 ISZERO PUSH2 0x1A9 JUMPI RETURNDATASIZE PUSH0 DUP1 RETURNDATACOPY RETURNDATASIZE PUSH0 REVERT JUMPDEST POP POP JUMP JUMPDEST PUSH0 DUP1 SLOAD SWAP1 PUSH2 0x100 EXP SWAP1 DIV PUSH20 0xFFFFFFFFFFFFFFFFFFFFFFFFFFFFFFFFFFFFFFFF AND DUP2 JUMP JUMPDEST PUSH0 DUP2 SWAP1 POP SWAP2 SWAP1 POP JUMP JUMPDEST PUSH2 0x1E2 DUP2 PUSH2 0x1D0 JUMP JUMPDEST DUP3 MSTORE POP POP JUMP JUMPDEST PUSH0 PUSH1 0x20 DUP3 ADD SWAP1 POP PUSH2 0x1FB PUSH0 DUP4 ADD DUP5 PUSH2 0x1D9 JUMP JUMPDEST SWAP3 SWAP2 POP POP JUMP JUMPDEST PUSH0 PUSH20 0xFFFFFFFFFFFFFFFFFFFFFFFFFFFFFFFFFFFFFFFF DUP3 AND SWAP1 POP SWAP2 SWAP1 POP JUMP JUMPDEST PUSH0 PUSH2 0x22A DUP3 PUSH2 0x201 JUMP JUMPDEST SWAP1 POP SWAP2 SWAP1 POP JUMP JUMPDEST PUSH2 0x23A DUP2 PUSH2 0x220 JUMP JUMPDEST DUP3 MSTORE POP POP JUMP JUMPDEST PUSH0 PUSH1 0x20 DUP3 ADD SWAP1 POP PUSH2 0x253 PUSH0 DUP4 ADD DUP5 PUSH2 0x231 JUMP JUMPDEST SWAP3 SWAP2 POP POP JUMP JUMPDEST PUSH0 DUP3 DUP3 MSTORE PUSH1 0x20 DUP3 ADD SWAP1 POP SWAP3 SWAP2 POP POP JUMP JUMPDEST PUSH32 0x796F752073686F756C642073656E6420612074697020746F2075736520746869 PUSH0 DUP3 ADD MSTORE PUSH32 0x732066756E6374696F6E00000000000000000000000000000000000000000000 PUSH1 0x20 DUP3 ADD MSTORE POP JUMP JUMPDEST PUSH0 PUSH2 0x2C3 PUSH1 0x2A DUP4 PUSH2 0x259 JUMP JUMPDEST SWAP2 POP PUSH2 0x2CE DUP3 PUSH2 0x269 JUMP JUMPDEST PUSH1 0x40 DUP3 ADD SWAP1 POP SWAP2 SWAP1 POP JUMP JUMPDEST PUSH0 PUSH1 0x20 DUP3 ADD SWAP1 POP DUP2 DUP2 SUB PUSH0 DUP4 ADD MSTORE PUSH2 0x2F0 DUP2 PUSH2 0x2B7 JUMP JUMPDEST SWAP1 POP SWAP2 SWAP1 POP JUMP JUMPDEST PUSH32 0x776974686472617720796F752073686F756C642073656E642061207469702074 PUSH0 DUP3 ADD MSTORE PUSH32 0x6F2075736520746869732066756E6374696F6E00000000000000000000000000 PUSH1 0x20 DUP3 ADD MSTORE POP JUMP JUMPDEST PUSH0 PUSH2 0x351 PUSH1 0x33 DUP4 PUSH2 0x259 JUMP JUMPDEST SWAP2 POP PUSH2 0x35C DUP3 PUSH2 0x2F7 JUMP JUMPDEST PUSH1 0x40 DUP3 ADD SWAP1 POP SWAP2 SWAP1 POP JUMP JUMPDEST PUSH0 PUSH1 0x20 DUP3 ADD SWAP1 POP DUP2 DUP2 SUB PUSH0 DUP4 ADD MSTORE PUSH2 0x37E DUP2 PUSH2 0x345 JUMP JUMPDEST SWAP1 POP SWAP2 SWAP1 POP JUMP INVALID LOG2 PUSH5 0x6970667358 0x22 SLT KECCAK256 PUSH8 0xE2DFC7F7BBF14722 0xC6 0xB8 0xAB 0x1F PUSH17 0x3B715E46264A88C2BD57C05B66D626BB55 0x2F PUSH5 0x736F6C6343 STOP ADDMOD EQ STOP CALLER "
				},
				"gasEstimates": {
					"creation": {
						"codeDepositCost": "191000",
						"executionCost": "24495",
						"totalCost": "215495"
					},
					"external": {
						"getBalance()": "312",
						"owner()": "2549",
						"tip()": "442",
						"withdraw()": "infinite"
					}
				},
				"methodIdentifiers": {
					"getBalance()": "12065fe0",
					"owner()": "8da5cb5b",
					"tip()": "2755cd2d",
					"withdraw()": "3ccfd60b"
				}
			},
			"storageLayout": {
				"storage": [
					{
						"astId": 3,
						"contract": "contracts/Day03.sol:TipJob",
						"label": "owner",
						"offset": 0,
						"slot": "0",
						"type": "t_address"
					}
				],
				"types": {
					"t_address": {
						"encoding": "inplace",
						"label": "address",
						"numberOfBytes": "20"
					}
				}
			},
			"userdoc": {
				"kind": "user",
				"methods": {},
				"version": 1
			}
		}
	}
}