{
	"data": {
		"bytecode": {
			"linkReferences": {},
			"object": "608060405234801561000f575f80fd5b506102808061001d5f395ff3fe608060405234801561000f575f80fd5b5060043610610055575f3560e01c806308bb11141461005957806343b4364a14610089578063945b497a14610093578063b67be454146100c3578063de9bad0c146100cd575b5f80fd5b610073600480360381019061006e9190610184565b6100fd565b60405161008091906101d1565b60405180910390f35b610091610109565b005b6100ad60048036038101906100a89190610184565b610111565b6040516100ba91906101d1565b60405180910390f35b6100cb610136565b005b6100e760048036038101906100e29190610184565b610138565b6040516100f491906101d1565b60405180910390f35b5f818301805f5260205ff35b5f6005905050565b5f805b8381101561012d57826002019250600181019050610114565b50815f5260205ff35b565b5f81836101459190610217565b905092915050565b5f80fd5b5f819050919050565b61016381610151565b811461016d575f80fd5b50565b5f8135905061017e8161015a565b92915050565b5f806040838503121561019a5761019961014d565b5b5f6101a785828601610170565b92505060206101b885828601610170565b9150509250929050565b6101cb81610151565b82525050565b5f6020820190506101e45f8301846101c2565b92915050565b7f4e487b71000000000000000000000000000000000000000000000000000000005f52601160045260245ffd5b5f61022182610151565b915061022c83610151565b9250828201905080821115610244576102436101ea565b5b9291505056fea264697066735822122062002e30bc1df1283a665824d4e46b0d2ac786e2dede8dc46d97c6d1794ee11564736f6c63430008140033",
			"opcodes": "PUSH1 0x80 PUSH1 0x40 MSTORE CALLVALUE DUP1 ISZERO PUSH2 0xF JUMPI PUSH0 DUP1 REVERT JUMPDEST POP PUSH2 0x280 DUP1 PUSH2 0x1D PUSH0 CODECOPY PUSH0 RETURN INVALID PUSH1 0x80 PUSH1 0x40 MSTORE CALLVALUE DUP1 ISZERO PUSH2 0xF JUMPI PUSH0 DUP1 REVERT JUMPDEST POP PUSH1 0x4 CALLDATASIZE LT PUSH2 0x55 JUMPI PUSH0 CALLDATALOAD PUSH1 0xE0 SHR DUP1 PUSH4 0x8BB1114 EQ PUSH2 0x59 JUMPI DUP1 PUSH4 0x43B4364A EQ PUSH2 0x89 JUMPI DUP1 PUSH4 0x945B497A EQ PUSH2 0x93 JUMPI DUP1 PUSH4 0xB67BE454 EQ PUSH2 0xC3 JUMPI DUP1 PUSH4 0xDE9BAD0C EQ PUSH2 0xCD JUMPI JUMPDEST PUSH0 DUP1 REVERT JUMPDEST PUSH2 0x73 PUSH1 0x4 DUP1 CALLDATASIZE SUB DUP2 ADD SWAP1 PUSH2 0x6E SWAP2 SWAP1 PUSH2 0x184 JUMP JUMPDEST PUSH2 0xFD JUMP JUMPDEST PUSH1 0x40 MLOAD PUSH2 0x80 SWAP2 SWAP1 PUSH2 0x1D1 JUMP JUMPDEST PUSH1 0x40 MLOAD DUP1 SWAP2 SUB SWAP1 RETURN JUMPDEST PUSH2 0x91 PUSH2 0x109 JUMP JUMPDEST STOP JUMPDEST PUSH2 0xAD PUSH1 0x4 DUP1 CALLDATASIZE SUB DUP2 ADD SWAP1 PUSH2 0xA8 SWAP2 SWAP1 PUSH2 0x184 JUMP JUMPDEST PUSH2 0x111 JUMP JUMPDEST PUSH1 0x40 MLOAD PUSH2 0xBA SWAP2 SWAP1 PUSH2 0x1D1 JUMP JUMPDEST PUSH1 0x40 MLOAD DUP1 SWAP2 SUB SWAP1 RETURN JUMPDEST PUSH2 0xCB PUSH2 0x136 JUMP JUMPDEST STOP JUMPDEST PUSH2 0xE7 PUSH1 0x4 DUP1 CALLDATASIZE SUB DUP2 ADD SWAP1 PUSH2 0xE2 SWAP2 SWAP1 PUSH2 0x184 JUMP JUMPDEST PUSH2 0x138 JUMP JUMPDEST PUSH1 0x40 MLOAD PUSH2 0xF4 SWAP2 SWAP1 PUSH2 0x1D1 JUMP JUMPDEST PUSH1 0x40 MLOAD DUP1 SWAP2 SUB SWAP1 RETURN JUMPDEST PUSH0 DUP2 DUP4 ADD DUP1 PUSH0 MSTORE PUSH1 0x20 PUSH0 RETURN JUMPDEST PUSH0 PUSH1 0x5 SWAP1 POP POP JUMP JUMPDEST PUSH0 DUP1 JUMPDEST DUP4 DUP2 LT ISZERO PUSH2 0x12D JUMPI DUP3 PUSH1 0x2 ADD SWAP3 POP PUSH1 0x1 DUP2 ADD SWAP1 POP PUSH2 0x114 JUMP JUMPDEST POP DUP2 PUSH0 MSTORE PUSH1 0x20 PUSH0 RETURN JUMPDEST JUMP JUMPDEST PUSH0 DUP2 DUP4 PUSH2 0x145 SWAP2 SWAP1 PUSH2 0x217 JUMP JUMPDEST SWAP1 POP SWAP3 SWAP2 POP POP JUMP JUMPDEST PUSH0 DUP1 REVERT JUMPDEST PUSH0 DUP2 SWAP1 POP SWAP2 SWAP1 POP JUMP JUMPDEST PUSH2 0x163 DUP2 PUSH2 0x151 JUMP JUMPDEST DUP2 EQ PUSH2 0x16D JUMPI PUSH0 DUP1 REVERT JUMPDEST POP JUMP JUMPDEST PUSH0 DUP2 CALLDATALOAD SWAP1 POP PUSH2 0x17E DUP2 PUSH2 0x15A JUMP JUMPDEST SWAP3 SWAP2 POP POP JUMP JUMPDEST PUSH0 DUP1 PUSH1 0x40 DUP4 DUP6 SUB SLT ISZERO PUSH2 0x19A JUMPI PUSH2 0x199 PUSH2 0x14D JUMP JUMPDEST JUMPDEST PUSH0 PUSH2 0x1A7 DUP6 DUP3 DUP7 ADD PUSH2 0x170 JUMP JUMPDEST SWAP3 POP POP PUSH1 0x20 PUSH2 0x1B8 DUP6 DUP3 DUP7 ADD PUSH2 0x170 JUMP JUMPDEST SWAP2 POP POP SWAP3 POP SWAP3 SWAP1 POP JUMP JUMPDEST PUSH2 0x1CB DUP2 PUSH2 0x151 JUMP JUMPDEST DUP3 MSTORE POP POP JUMP JUMPDEST PUSH0 PUSH1 0x20 DUP3 ADD SWAP1 POP PUSH2 0x1E4 PUSH0 DUP4 ADD DUP5 PUSH2 0x1C2 JUMP JUMPDEST SWAP3 SWAP2 POP POP JUMP JUMPDEST PUSH32 0x4E487B7100000000000000000000000000000000000000000000000000000000 PUSH0 MSTORE PUSH1 0x11 PUSH1 0x4 MSTORE PUSH1 0x24 PUSH0 REVERT JUMPDEST PUSH0 PUSH2 0x221 DUP3 PUSH2 0x151 JUMP JUMPDEST SWAP2 POP PUSH2 0x22C DUP4 PUSH2 0x151 JUMP JUMPDEST SWAP3 POP DUP3 DUP3 ADD SWAP1 POP DUP1 DUP3 GT ISZERO PUSH2 0x244 JUMPI PUSH2 0x243 PUSH2 0x1EA JUMP JUMPDEST JUMPDEST SWAP3 SWAP2 POP POP JUMP INVALID LOG2 PUSH5 0x6970667358 0x22 SLT KECCAK256 PUSH3 0x2E30 0xBC SAR CALL 0x28 GASPRICE PUSH7 0x5824D4E46B0D2A 0xC7 DUP7 0xE2 0xDE 0xDE DUP14 0xC4 PUSH14 0x97C6D1794EE11564736F6C634300 ADDMOD EQ STOP CALLER "
		},
		"gasEstimates": {
			"creation": {
				"codeDepositCost": "128000",
				"executionCost": "169",
				"totalCost": "128169"
			},
			"external": {
				"addAssembly(uint256,uint256)": "infinite",
				"addSolidity(uint256,uint256)": "infinite",
				"do_something_cpu()": "187",
				"forloop(uint256,uint256)": "infinite",
				"localvar()": "155"
			}
		},
		"methodIdentifiers": {
			"addAssembly(uint256,uint256)": "08bb1114",
			"addSolidity(uint256,uint256)": "de9bad0c",
			"do_something_cpu()": "b67be454",
			"forloop(uint256,uint256)": "945b497a",
			"localvar()": "43b4364a"
		}
	},
	"abi": [
		{
			"inputs": [
				{
					"internalType": "uint256",
					"name": "x",
					"type": "uint256"
				},
				{
					"internalType": "uint256",
					"name": "y",
					"type": "uint256"
				}
			],
			"name": "addAssembly",
			"outputs": [
				{
					"internalType": "uint256",
					"name": "",
					"type": "uint256"
				}
			],
			"stateMutability": "pure",
			"type": "function"
		},
		{
			"inputs": [
				{
					"internalType": "uint256",
					"name": "x",
					"type": "uint256"
				},
				{
					"internalType": "uint256",
					"name": "y",
					"type": "uint256"
				}
			],
			"name": "addSolidity",
			"outputs": [
				{
					"internalType": "uint256",
					"name": "",
					"type": "uint256"
				}
			],
			"stateMutability": "pure",
			"type": "function"
		},
		{
			"inputs": [],
			"name": "do_something_cpu",
			"outputs": [],
			"stateMutability": "nonpayable",
			"type": "function"
		},
		{
			"inputs": [
				{
					"internalType": "uint256",
					"name": "x",
					"type": "uint256"
				},
				{
					"internalType": "uint256",
					"name": "y",
					"type": "uint256"
				}
			],
			"name": "forloop",
			"outputs": [
				{
					"internalType": "uint256",
					"name": "",
					"type": "uint256"
				}
			],
			"stateMutability": "pure",
			"type": "function"
		},
		{
			"inputs": [],
			"name": "localvar",
			"outputs": [],
			"stateMutability": "pure",
			"type": "function"
		}
	]
}