{
	"data": {
		"bytecode": {
			"linkReferences": {},
			"object": "608060405234801561000f575f80fd5b5061015f8061001d5f395ff3fe608060405234801561000f575f80fd5b5060043610610029575f3560e01c80634f9d719e1461002d575b5f80fd5b610035610037565b005b3373ffffffffffffffffffffffffffffffffffffffff167f0738f4da267a110d810e6e89fc59e46be6de0c37b1d5cd559b267dc3688e74e060405161007b9061010b565b60405180910390a27ffe1a3ad11e425db4b8e6af35d11c50118826a496df73006fc724cb27f2b9994660405160405180910390a1565b5f82825260208201905092915050565b7f68656c6c6f20776f726c640000000000000000000000000000000000000000005f82015250565b5f6100f5600b836100b1565b9150610100826100c1565b602082019050919050565b5f6020820190508181035f830152610122816100e9565b905091905056fea2646970667358221220509431e40d69436dc5d630799605a5d402917f6dd498c815ab6ecabdbd3427e164736f6c63430008180033",
			"opcodes": "PUSH1 0x80 PUSH1 0x40 MSTORE CALLVALUE DUP1 ISZERO PUSH2 0xF JUMPI PUSH0 DUP1 REVERT JUMPDEST POP PUSH2 0x15F DUP1 PUSH2 0x1D PUSH0 CODECOPY PUSH0 RETURN INVALID PUSH1 0x80 PUSH1 0x40 MSTORE CALLVALUE DUP1 ISZERO PUSH2 0xF JUMPI PUSH0 DUP1 REVERT JUMPDEST POP PUSH1 0x4 CALLDATASIZE LT PUSH2 0x29 JUMPI PUSH0 CALLDATALOAD PUSH1 0xE0 SHR DUP1 PUSH4 0x4F9D719E EQ PUSH2 0x2D JUMPI JUMPDEST PUSH0 DUP1 REVERT JUMPDEST PUSH2 0x35 PUSH2 0x37 JUMP JUMPDEST STOP JUMPDEST CALLER PUSH20 0xFFFFFFFFFFFFFFFFFFFFFFFFFFFFFFFFFFFFFFFF AND PUSH32 0x738F4DA267A110D810E6E89FC59E46BE6DE0C37B1D5CD559B267DC3688E74E0 PUSH1 0x40 MLOAD PUSH2 0x7B SWAP1 PUSH2 0x10B JUMP JUMPDEST PUSH1 0x40 MLOAD DUP1 SWAP2 SUB SWAP1 LOG2 PUSH32 0xFE1A3AD11E425DB4B8E6AF35D11C50118826A496DF73006FC724CB27F2B99946 PUSH1 0x40 MLOAD PUSH1 0x40 MLOAD DUP1 SWAP2 SUB SWAP1 LOG1 JUMP JUMPDEST PUSH0 DUP3 DUP3 MSTORE PUSH1 0x20 DUP3 ADD SWAP1 POP SWAP3 SWAP2 POP POP JUMP JUMPDEST PUSH32 0x68656C6C6F20776F726C64000000000000000000000000000000000000000000 PUSH0 DUP3 ADD MSTORE POP JUMP JUMPDEST PUSH0 PUSH2 0xF5 PUSH1 0xB DUP4 PUSH2 0xB1 JUMP JUMPDEST SWAP2 POP PUSH2 0x100 DUP3 PUSH2 0xC1 JUMP JUMPDEST PUSH1 0x20 DUP3 ADD SWAP1 POP SWAP2 SWAP1 POP JUMP JUMPDEST PUSH0 PUSH1 0x20 DUP3 ADD SWAP1 POP DUP2 DUP2 SUB PUSH0 DUP4 ADD MSTORE PUSH2 0x122 DUP2 PUSH2 0xE9 JUMP JUMPDEST SWAP1 POP SWAP2 SWAP1 POP JUMP INVALID LOG2 PUSH5 0x6970667358 0x22 SLT KECCAK256 POP SWAP5 BALANCE 0xE4 0xD PUSH10 0x436DC5D630799605A5D4 MUL SWAP2 PUSH32 0x6DD498C815AB6ECABDBD3427E164736F6C634300081800330000000000000000 "
		},
		"gasEstimates": {
			"creation": {
				"codeDepositCost": "70200",
				"executionCost": "115",
				"totalCost": "70315"
			},
			"external": {
				"testEvent()": "3078"
			}
		},
		"methodIdentifiers": {
			"testEvent()": "4f9d719e"
		}
	},
	"abi": [
		{
			"anonymous": false,
			"inputs": [],
			"name": "AnotherLog",
			"type": "event"
		},
		{
			"anonymous": false,
			"inputs": [
				{
					"indexed": true,
					"internalType": "address",
					"name": "sender",
					"type": "address"
				},
				{
					"indexed": false,
					"internalType": "string",
					"name": "message",
					"type": "string"
				}
			],
			"name": "Log",
			"type": "event"
		},
		{
			"inputs": [],
			"name": "testEvent",
			"outputs": [],
			"stateMutability": "nonpayable",
			"type": "function"
		}
	]
}