{
	"data": {
		"bytecode": {
			"linkReferences": {},
			"object": "608060405234801561000f575f80fd5b506106358061001d5f395ff3fe608060405234801561000f575f80fd5b506004361061007b575f3560e01c8063688734401161005957806368873440146100d957806371e5ee5f146100fb578063868875441461012b578063adb4d9901461014b5761007b565b806304cad9311461007f5780631990532b1461009b57806345f907a8146100b9575b5f80fd5b610099600480360381019061009491906103ee565b61016b565b005b6100a361016e565b6040516100b091906104ec565b60405180910390f35b6100c16101c3565b6040516100d093929190610535565b60405180910390f35b6100e16101d6565b6040516100f295949392919061056a565b60405180910390f35b610115600480360381019061011091906105bb565b610214565b60405161012291906105e6565b60405180910390f35b610133610233565b60405161014293929190610535565b60405180910390f35b610153610246565b60405161016293929190610535565b60405180910390f35b50565b60605f8054806020026020016040519081016040528092919081815260200182805480156101b957602002820191905f5260205f20905b8154815260200190600101908083116101a5575b5050505050905090565b5f805f6001806002925092509250909192565b5f805f805f805f806101e6610233565b9250925092505f80600460056006925050915084848484849950995099509950995050505050509091929394565b5f8181548110610222575f80fd5b905f5260205f20015f915090505481565b5f805f6001806002925092509250909192565b5f805f600192506001915060029050909192565b5f604051905090565b5f80fd5b5f80fd5b5f80fd5b5f601f19601f8301169050919050565b7f4e487b71000000000000000000000000000000000000000000000000000000005f52604160045260245ffd5b6102b58261026f565b810181811067ffffffffffffffff821117156102d4576102d361027f565b5b80604052505050565b5f6102e661025a565b90506102f282826102ac565b919050565b5f67ffffffffffffffff8211156103115761031061027f565b5b602082029050602081019050919050565b5f80fd5b5f819050919050565b61033881610326565b8114610342575f80fd5b50565b5f813590506103538161032f565b92915050565b5f61036b610366846102f7565b6102dd565b9050808382526020820190506020840283018581111561038e5761038d610322565b5b835b818110156103b757806103a38882610345565b845260208401935050602081019050610390565b5050509392505050565b5f82601f8301126103d5576103d461026b565b5b81356103e5848260208601610359565b91505092915050565b5f6020828403121561040357610402610263565b5b5f82013567ffffffffffffffff8111156104205761041f610267565b5b61042c848285016103c1565b91505092915050565b5f81519050919050565b5f82825260208201905092915050565b5f819050602082019050919050565b61046781610326565b82525050565b5f610478838361045e565b60208301905092915050565b5f602082019050919050565b5f61049a82610435565b6104a4818561043f565b93506104af8361044f565b805f5b838110156104df5781516104c6888261046d565b97506104d183610484565b9250506001810190506104b2565b5085935050505092915050565b5f6020820190508181035f8301526105048184610490565b905092915050565b61051581610326565b82525050565b5f8115159050919050565b61052f8161051b565b82525050565b5f6060820190506105485f83018661050c565b6105556020830185610526565b610562604083018461050c565b949350505050565b5f60a08201905061057d5f83018861050c565b61058a6020830187610526565b610597604083018661050c565b6105a4606083018561050c565b6105b1608083018461050c565b9695505050505050565b5f602082840312156105d0576105cf610263565b5b5f6105dd84828501610345565b91505092915050565b5f6020820190506105f95f83018461050c565b9291505056fea2646970667358221220583e1fc28bce816e983faca7f6dc42986084ff7df16d809605d2f33785789d4464736f6c63430008180033",
			"opcodes": "PUSH1 0x80 PUSH1 0x40 MSTORE CALLVALUE DUP1 ISZERO PUSH2 0xF JUMPI PUSH0 DUP1 REVERT JUMPDEST POP PUSH2 0x635 DUP1 PUSH2 0x1D PUSH0 CODECOPY PUSH0 RETURN INVALID PUSH1 0x80 PUSH1 0x40 MSTORE CALLVALUE DUP1 ISZERO PUSH2 0xF JUMPI PUSH0 DUP1 REVERT JUMPDEST POP PUSH1 0x4 CALLDATASIZE LT PUSH2 0x7B JUMPI PUSH0 CALLDATALOAD PUSH1 0xE0 SHR DUP1 PUSH4 0x68873440 GT PUSH2 0x59 JUMPI DUP1 PUSH4 0x68873440 EQ PUSH2 0xD9 JUMPI DUP1 PUSH4 0x71E5EE5F EQ PUSH2 0xFB JUMPI DUP1 PUSH4 0x86887544 EQ PUSH2 0x12B JUMPI DUP1 PUSH4 0xADB4D990 EQ PUSH2 0x14B JUMPI PUSH2 0x7B JUMP JUMPDEST DUP1 PUSH4 0x4CAD931 EQ PUSH2 0x7F JUMPI DUP1 PUSH4 0x1990532B EQ PUSH2 0x9B JUMPI DUP1 PUSH4 0x45F907A8 EQ PUSH2 0xB9 JUMPI JUMPDEST PUSH0 DUP1 REVERT JUMPDEST PUSH2 0x99 PUSH1 0x4 DUP1 CALLDATASIZE SUB DUP2 ADD SWAP1 PUSH2 0x94 SWAP2 SWAP1 PUSH2 0x3EE JUMP JUMPDEST PUSH2 0x16B JUMP JUMPDEST STOP JUMPDEST PUSH2 0xA3 PUSH2 0x16E JUMP JUMPDEST PUSH1 0x40 MLOAD PUSH2 0xB0 SWAP2 SWAP1 PUSH2 0x4EC JUMP JUMPDEST PUSH1 0x40 MLOAD DUP1 SWAP2 SUB SWAP1 RETURN JUMPDEST PUSH2 0xC1 PUSH2 0x1C3 JUMP JUMPDEST PUSH1 0x40 MLOAD PUSH2 0xD0 SWAP4 SWAP3 SWAP2 SWAP1 PUSH2 0x535 JUMP JUMPDEST PUSH1 0x40 MLOAD DUP1 SWAP2 SUB SWAP1 RETURN JUMPDEST PUSH2 0xE1 PUSH2 0x1D6 JUMP JUMPDEST PUSH1 0x40 MLOAD PUSH2 0xF2 SWAP6 SWAP5 SWAP4 SWAP3 SWAP2 SWAP1 PUSH2 0x56A JUMP JUMPDEST PUSH1 0x40 MLOAD DUP1 SWAP2 SUB SWAP1 RETURN JUMPDEST PUSH2 0x115 PUSH1 0x4 DUP1 CALLDATASIZE SUB DUP2 ADD SWAP1 PUSH2 0x110 SWAP2 SWAP1 PUSH2 0x5BB JUMP JUMPDEST PUSH2 0x214 JUMP JUMPDEST PUSH1 0x40 MLOAD PUSH2 0x122 SWAP2 SWAP1 PUSH2 0x5E6 JUMP JUMPDEST PUSH1 0x40 MLOAD DUP1 SWAP2 SUB SWAP1 RETURN JUMPDEST PUSH2 0x133 PUSH2 0x233 JUMP JUMPDEST PUSH1 0x40 MLOAD PUSH2 0x142 SWAP4 SWAP3 SWAP2 SWAP1 PUSH2 0x535 JUMP JUMPDEST PUSH1 0x40 MLOAD DUP1 SWAP2 SUB SWAP1 RETURN JUMPDEST PUSH2 0x153 PUSH2 0x246 JUMP JUMPDEST PUSH1 0x40 MLOAD PUSH2 0x162 SWAP4 SWAP3 SWAP2 SWAP1 PUSH2 0x535 JUMP JUMPDEST PUSH1 0x40 MLOAD DUP1 SWAP2 SUB SWAP1 RETURN JUMPDEST POP JUMP JUMPDEST PUSH1 0x60 PUSH0 DUP1 SLOAD DUP1 PUSH1 0x20 MUL PUSH1 0x20 ADD PUSH1 0x40 MLOAD SWAP1 DUP2 ADD PUSH1 0x40 MSTORE DUP1 SWAP3 SWAP2 SWAP1 DUP2 DUP2 MSTORE PUSH1 0x20 ADD DUP3 DUP1 SLOAD DUP1 ISZERO PUSH2 0x1B9 JUMPI PUSH1 0x20 MUL DUP3 ADD SWAP2 SWAP1 PUSH0 MSTORE PUSH1 0x20 PUSH0 KECCAK256 SWAP1 JUMPDEST DUP2 SLOAD DUP2 MSTORE PUSH1 0x20 ADD SWAP1 PUSH1 0x1 ADD SWAP1 DUP1 DUP4 GT PUSH2 0x1A5 JUMPI JUMPDEST POP POP POP POP POP SWAP1 POP SWAP1 JUMP JUMPDEST PUSH0 DUP1 PUSH0 PUSH1 0x1 DUP1 PUSH1 0x2 SWAP3 POP SWAP3 POP SWAP3 POP SWAP1 SWAP2 SWAP3 JUMP JUMPDEST PUSH0 DUP1 PUSH0 DUP1 PUSH0 DUP1 PUSH0 DUP1 PUSH2 0x1E6 PUSH2 0x233 JUMP JUMPDEST SWAP3 POP SWAP3 POP SWAP3 POP PUSH0 DUP1 PUSH1 0x4 PUSH1 0x5 PUSH1 0x6 SWAP3 POP POP SWAP2 POP DUP5 DUP5 DUP5 DUP5 DUP5 SWAP10 POP SWAP10 POP SWAP10 POP SWAP10 POP SWAP10 POP POP POP POP POP POP SWAP1 SWAP2 SWAP3 SWAP4 SWAP5 JUMP JUMPDEST PUSH0 DUP2 DUP2 SLOAD DUP2 LT PUSH2 0x222 JUMPI PUSH0 DUP1 REVERT JUMPDEST SWAP1 PUSH0 MSTORE PUSH1 0x20 PUSH0 KECCAK256 ADD PUSH0 SWAP2 POP SWAP1 POP SLOAD DUP2 JUMP JUMPDEST PUSH0 DUP1 PUSH0 PUSH1 0x1 DUP1 PUSH1 0x2 SWAP3 POP SWAP3 POP SWAP3 POP SWAP1 SWAP2 SWAP3 JUMP JUMPDEST PUSH0 DUP1 PUSH0 PUSH1 0x1 SWAP3 POP PUSH1 0x1 SWAP2 POP PUSH1 0x2 SWAP1 POP SWAP1 SWAP2 SWAP3 JUMP JUMPDEST PUSH0 PUSH1 0x40 MLOAD SWAP1 POP SWAP1 JUMP JUMPDEST PUSH0 DUP1 REVERT JUMPDEST PUSH0 DUP1 REVERT JUMPDEST PUSH0 DUP1 REVERT JUMPDEST PUSH0 PUSH1 0x1F NOT PUSH1 0x1F DUP4 ADD AND SWAP1 POP SWAP2 SWAP1 POP JUMP JUMPDEST PUSH32 0x4E487B7100000000000000000000000000000000000000000000000000000000 PUSH0 MSTORE PUSH1 0x41 PUSH1 0x4 MSTORE PUSH1 0x24 PUSH0 REVERT JUMPDEST PUSH2 0x2B5 DUP3 PUSH2 0x26F JUMP JUMPDEST DUP2 ADD DUP2 DUP2 LT PUSH8 0xFFFFFFFFFFFFFFFF DUP3 GT OR ISZERO PUSH2 0x2D4 JUMPI PUSH2 0x2D3 PUSH2 0x27F JUMP JUMPDEST JUMPDEST DUP1 PUSH1 0x40 MSTORE POP POP POP JUMP JUMPDEST PUSH0 PUSH2 0x2E6 PUSH2 0x25A JUMP JUMPDEST SWAP1 POP PUSH2 0x2F2 DUP3 DUP3 PUSH2 0x2AC JUMP JUMPDEST SWAP2 SWAP1 POP JUMP JUMPDEST PUSH0 PUSH8 0xFFFFFFFFFFFFFFFF DUP3 GT ISZERO PUSH2 0x311 JUMPI PUSH2 0x310 PUSH2 0x27F JUMP JUMPDEST JUMPDEST PUSH1 0x20 DUP3 MUL SWAP1 POP PUSH1 0x20 DUP2 ADD SWAP1 POP SWAP2 SWAP1 POP JUMP JUMPDEST PUSH0 DUP1 REVERT JUMPDEST PUSH0 DUP2 SWAP1 POP SWAP2 SWAP1 POP JUMP JUMPDEST PUSH2 0x338 DUP2 PUSH2 0x326 JUMP JUMPDEST DUP2 EQ PUSH2 0x342 JUMPI PUSH0 DUP1 REVERT JUMPDEST POP JUMP JUMPDEST PUSH0 DUP2 CALLDATALOAD SWAP1 POP PUSH2 0x353 DUP2 PUSH2 0x32F JUMP JUMPDEST SWAP3 SWAP2 POP POP JUMP JUMPDEST PUSH0 PUSH2 0x36B PUSH2 0x366 DUP5 PUSH2 0x2F7 JUMP JUMPDEST PUSH2 0x2DD JUMP JUMPDEST SWAP1 POP DUP1 DUP4 DUP3 MSTORE PUSH1 0x20 DUP3 ADD SWAP1 POP PUSH1 0x20 DUP5 MUL DUP4 ADD DUP6 DUP2 GT ISZERO PUSH2 0x38E JUMPI PUSH2 0x38D PUSH2 0x322 JUMP JUMPDEST JUMPDEST DUP4 JUMPDEST DUP2 DUP2 LT ISZERO PUSH2 0x3B7 JUMPI DUP1 PUSH2 0x3A3 DUP9 DUP3 PUSH2 0x345 JUMP JUMPDEST DUP5 MSTORE PUSH1 0x20 DUP5 ADD SWAP4 POP POP PUSH1 0x20 DUP2 ADD SWAP1 POP PUSH2 0x390 JUMP JUMPDEST POP POP POP SWAP4 SWAP3 POP POP POP JUMP JUMPDEST PUSH0 DUP3 PUSH1 0x1F DUP4 ADD SLT PUSH2 0x3D5 JUMPI PUSH2 0x3D4 PUSH2 0x26B JUMP JUMPDEST JUMPDEST DUP2 CALLDATALOAD PUSH2 0x3E5 DUP5 DUP3 PUSH1 0x20 DUP7 ADD PUSH2 0x359 JUMP JUMPDEST SWAP2 POP POP SWAP3 SWAP2 POP POP JUMP JUMPDEST PUSH0 PUSH1 0x20 DUP3 DUP5 SUB SLT ISZERO PUSH2 0x403 JUMPI PUSH2 0x402 PUSH2 0x263 JUMP JUMPDEST JUMPDEST PUSH0 DUP3 ADD CALLDATALOAD PUSH8 0xFFFFFFFFFFFFFFFF DUP2 GT ISZERO PUSH2 0x420 JUMPI PUSH2 0x41F PUSH2 0x267 JUMP JUMPDEST JUMPDEST PUSH2 0x42C DUP5 DUP3 DUP6 ADD PUSH2 0x3C1 JUMP JUMPDEST SWAP2 POP POP SWAP3 SWAP2 POP POP JUMP JUMPDEST PUSH0 DUP2 MLOAD SWAP1 POP SWAP2 SWAP1 POP JUMP JUMPDEST PUSH0 DUP3 DUP3 MSTORE PUSH1 0x20 DUP3 ADD SWAP1 POP SWAP3 SWAP2 POP POP JUMP JUMPDEST PUSH0 DUP2 SWAP1 POP PUSH1 0x20 DUP3 ADD SWAP1 POP SWAP2 SWAP1 POP JUMP JUMPDEST PUSH2 0x467 DUP2 PUSH2 0x326 JUMP JUMPDEST DUP3 MSTORE POP POP JUMP JUMPDEST PUSH0 PUSH2 0x478 DUP4 DUP4 PUSH2 0x45E JUMP JUMPDEST PUSH1 0x20 DUP4 ADD SWAP1 POP SWAP3 SWAP2 POP POP JUMP JUMPDEST PUSH0 PUSH1 0x20 DUP3 ADD SWAP1 POP SWAP2 SWAP1 POP JUMP JUMPDEST PUSH0 PUSH2 0x49A DUP3 PUSH2 0x435 JUMP JUMPDEST PUSH2 0x4A4 DUP2 DUP6 PUSH2 0x43F JUMP JUMPDEST SWAP4 POP PUSH2 0x4AF DUP4 PUSH2 0x44F JUMP JUMPDEST DUP1 PUSH0 JUMPDEST DUP4 DUP2 LT ISZERO PUSH2 0x4DF JUMPI DUP2 MLOAD PUSH2 0x4C6 DUP9 DUP3 PUSH2 0x46D JUMP JUMPDEST SWAP8 POP PUSH2 0x4D1 DUP4 PUSH2 0x484 JUMP JUMPDEST SWAP3 POP POP PUSH1 0x1 DUP2 ADD SWAP1 POP PUSH2 0x4B2 JUMP JUMPDEST POP DUP6 SWAP4 POP POP POP POP SWAP3 SWAP2 POP POP JUMP JUMPDEST PUSH0 PUSH1 0x20 DUP3 ADD SWAP1 POP DUP2 DUP2 SUB PUSH0 DUP4 ADD MSTORE PUSH2 0x504 DUP2 DUP5 PUSH2 0x490 JUMP JUMPDEST SWAP1 POP SWAP3 SWAP2 POP POP JUMP JUMPDEST PUSH2 0x515 DUP2 PUSH2 0x326 JUMP JUMPDEST DUP3 MSTORE POP POP JUMP JUMPDEST PUSH0 DUP2 ISZERO ISZERO SWAP1 POP SWAP2 SWAP1 POP JUMP JUMPDEST PUSH2 0x52F DUP2 PUSH2 0x51B JUMP JUMPDEST DUP3 MSTORE POP POP JUMP JUMPDEST PUSH0 PUSH1 0x60 DUP3 ADD SWAP1 POP PUSH2 0x548 PUSH0 DUP4 ADD DUP7 PUSH2 0x50C JUMP JUMPDEST PUSH2 0x555 PUSH1 0x20 DUP4 ADD DUP6 PUSH2 0x526 JUMP JUMPDEST PUSH2 0x562 PUSH1 0x40 DUP4 ADD DUP5 PUSH2 0x50C JUMP JUMPDEST SWAP5 SWAP4 POP POP POP POP JUMP JUMPDEST PUSH0 PUSH1 0xA0 DUP3 ADD SWAP1 POP PUSH2 0x57D PUSH0 DUP4 ADD DUP9 PUSH2 0x50C JUMP JUMPDEST PUSH2 0x58A PUSH1 0x20 DUP4 ADD DUP8 PUSH2 0x526 JUMP JUMPDEST PUSH2 0x597 PUSH1 0x40 DUP4 ADD DUP7 PUSH2 0x50C JUMP JUMPDEST PUSH2 0x5A4 PUSH1 0x60 DUP4 ADD DUP6 PUSH2 0x50C JUMP JUMPDEST PUSH2 0x5B1 PUSH1 0x80 DUP4 ADD DUP5 PUSH2 0x50C JUMP JUMPDEST SWAP7 SWAP6 POP POP POP POP POP POP JUMP JUMPDEST PUSH0 PUSH1 0x20 DUP3 DUP5 SUB SLT ISZERO PUSH2 0x5D0 JUMPI PUSH2 0x5CF PUSH2 0x263 JUMP JUMPDEST JUMPDEST PUSH0 PUSH2 0x5DD DUP5 DUP3 DUP6 ADD PUSH2 0x345 JUMP JUMPDEST SWAP2 POP POP SWAP3 SWAP2 POP POP JUMP JUMPDEST PUSH0 PUSH1 0x20 DUP3 ADD SWAP1 POP PUSH2 0x5F9 PUSH0 DUP4 ADD DUP5 PUSH2 0x50C JUMP JUMPDEST SWAP3 SWAP2 POP POP JUMP INVALID LOG2 PUSH5 0x6970667358 0x22 SLT KECCAK256 PC RETURNDATACOPY 0x1F 0xC2 DUP12 0xCE DUP2 PUSH15 0x983FACA7F6DC42986084FF7DF16D80 SWAP7 SDIV 0xD2 RETURN CALLDATACOPY DUP6 PUSH25 0x9D4464736F6C63430008180033000000000000000000000000 "
		},
		"gasEstimates": {
			"creation": {
				"codeDepositCost": "317800",
				"executionCost": "353",
				"totalCost": "318153"
			},
			"external": {
				"arr(uint256)": "infinite",
				"arrayInpu(uint256[])": "infinite",
				"arrayOutput()": "infinite",
				"assigned()": "infinite",
				"destructuringAssignments()": "infinite",
				"named()": "infinite",
				"returnMany()": "infinite"
			}
		},
		"methodIdentifiers": {
			"arr(uint256)": "71e5ee5f",
			"arrayInpu(uint256[])": "04cad931",
			"arrayOutput()": "1990532b",
			"assigned()": "adb4d990",
			"destructuringAssignments()": "68873440",
			"named()": "45f907a8",
			"returnMany()": "86887544"
		}
	},
	"abi": [
		{
			"inputs": [
				{
					"internalType": "uint256",
					"name": "",
					"type": "uint256"
				}
			],
			"name": "arr",
			"outputs": [
				{
					"internalType": "uint256",
					"name": "",
					"type": "uint256"
				}
			],
			"stateMutability": "view",
			"type": "function"
		},
		{
			"inputs": [
				{
					"internalType": "uint256[]",
					"name": "_arr",
					"type": "uint256[]"
				}
			],
			"name": "arrayInpu",
			"outputs": [],
			"stateMutability": "nonpayable",
			"type": "function"
		},
		{
			"inputs": [],
			"name": "arrayOutput",
			"outputs": [
				{
					"internalType": "uint256[]",
					"name": "",
					"type": "uint256[]"
				}
			],
			"stateMutability": "view",
			"type": "function"
		},
		{
			"inputs": [],
			"name": "assigned",
			"outputs": [
				{
					"internalType": "uint256",
					"name": "x",
					"type": "uint256"
				},
				{
					"internalType": "bool",
					"name": "b",
					"type": "bool"
				},
				{
					"internalType": "uint256",
					"name": "y",
					"type": "uint256"
				}
			],
			"stateMutability": "pure",
			"type": "function"
		},
		{
			"inputs": [],
			"name": "destructuringAssignments",
			"outputs": [
				{
					"internalType": "uint256",
					"name": "",
					"type": "uint256"
				},
				{
					"internalType": "bool",
					"name": "",
					"type": "bool"
				},
				{
					"internalType": "uint256",
					"name": "",
					"type": "uint256"
				},
				{
					"internalType": "uint256",
					"name": "",
					"type": "uint256"
				},
				{
					"internalType": "uint256",
					"name": "",
					"type": "uint256"
				}
			],
			"stateMutability": "pure",
			"type": "function"
		},
		{
			"inputs": [],
			"name": "named",
			"outputs": [
				{
					"internalType": "uint256",
					"name": "x",
					"type": "uint256"
				},
				{
					"internalType": "bool",
					"name": "b",
					"type": "bool"
				},
				{
					"internalType": "uint256",
					"name": "y",
					"type": "uint256"
				}
			],
			"stateMutability": "pure",
			"type": "function"
		},
		{
			"inputs": [],
			"name": "returnMany",
			"outputs": [
				{
					"internalType": "uint256",
					"name": "",
					"type": "uint256"
				},
				{
					"internalType": "bool",
					"name": "",
					"type": "bool"
				},
				{
					"internalType": "uint256",
					"name": "",
					"type": "uint256"
				}
			],
			"stateMutability": "pure",
			"type": "function"
		}
	]
}